{
  "contractName": "ExternalWallet",
  "abi": [
    {
      "constant": true,
      "inputs": [
        {
          "name": "",
          "type": "bytes32"
        },
        {
          "name": "",
          "type": "address"
        }
      ],
      "name": "withdrawingDonation",
      "outputs": [
        {
          "name": "",
          "type": "uint256"
        }
      ],
      "payable": false,
      "stateMutability": "view",
      "type": "function"
    },
    {
      "constant": true,
      "inputs": [],
      "name": "theProposalInterface",
      "outputs": [
        {
          "name": "",
          "type": "address"
        }
      ],
      "payable": false,
      "stateMutability": "view",
      "type": "function"
    },
    {
      "constant": false,
      "inputs": [],
      "name": "renounceOwnership",
      "outputs": [],
      "payable": false,
      "stateMutability": "nonpayable",
      "type": "function"
    },
    {
      "constant": true,
      "inputs": [],
      "name": "owner",
      "outputs": [
        {
          "name": "",
          "type": "address"
        }
      ],
      "payable": false,
      "stateMutability": "view",
      "type": "function"
    },
    {
      "constant": true,
      "inputs": [],
      "name": "totalBalance",
      "outputs": [
        {
          "name": "",
          "type": "uint256"
        }
      ],
      "payable": false,
      "stateMutability": "view",
      "type": "function"
    },
    {
      "constant": true,
      "inputs": [
        {
          "name": "",
          "type": "bytes32"
        }
      ],
      "name": "projectDonationList",
      "outputs": [
        {
          "name": "totalDoner",
          "type": "uint256"
        },
        {
          "name": "totalDonationForProject",
          "type": "uint256"
        }
      ],
      "payable": false,
      "stateMutability": "view",
      "type": "function"
    },
    {
      "constant": false,
      "inputs": [
        {
          "name": "_newOwner",
          "type": "address"
        }
      ],
      "name": "transferOwnership",
      "outputs": [],
      "payable": false,
      "stateMutability": "nonpayable",
      "type": "function"
    },
    {
      "inputs": [
        {
          "name": "_proposalInterfaceAddress",
          "type": "address"
        }
      ],
      "payable": false,
      "stateMutability": "nonpayable",
      "type": "constructor"
    },
    {
      "anonymous": false,
      "inputs": [
        {
          "indexed": true,
          "name": "Account",
          "type": "address"
        },
        {
          "indexed": true,
          "name": "ProposalID",
          "type": "bytes32"
        },
        {
          "indexed": false,
          "name": "Amount",
          "type": "uint256"
        },
        {
          "indexed": false,
          "name": "Timestamp",
          "type": "uint256"
        }
      ],
      "name": "DepositMoney",
      "type": "event"
    },
    {
      "anonymous": false,
      "inputs": [
        {
          "indexed": true,
          "name": "previousOwner",
          "type": "address"
        }
      ],
      "name": "OwnershipRenounced",
      "type": "event"
    },
    {
      "anonymous": false,
      "inputs": [
        {
          "indexed": true,
          "name": "previousOwner",
          "type": "address"
        },
        {
          "indexed": true,
          "name": "newOwner",
          "type": "address"
        }
      ],
      "name": "OwnershipTransferred",
      "type": "event"
    },
    {
      "constant": false,
      "inputs": [
        {
          "name": "_proposalID",
          "type": "bytes32"
        },
        {
          "name": "_adr",
          "type": "address"
        }
      ],
      "name": "depositMoney",
      "outputs": [
        {
          "name": "",
          "type": "bool"
        }
      ],
      "payable": true,
      "stateMutability": "payable",
      "type": "function"
    },
    {
      "constant": false,
      "inputs": [
        {
          "name": "_proposalID",
          "type": "bytes32"
        },
        {
          "name": "_adr",
          "type": "address"
        }
      ],
      "name": "withdrawMoney",
      "outputs": [
        {
          "name": "",
          "type": "bool"
        }
      ],
      "payable": false,
      "stateMutability": "nonpayable",
      "type": "function"
    },
    {
      "constant": false,
      "inputs": [
        {
          "name": "_newAdr",
          "type": "address"
        }
      ],
      "name": "changeWalletAddress",
      "outputs": [
        {
          "name": "",
          "type": "bool"
        }
      ],
      "payable": false,
      "stateMutability": "nonpayable",
      "type": "function"
    },
    {
      "constant": true,
      "inputs": [
        {
          "name": "_proposalID",
          "type": "bytes32"
        }
      ],
      "name": "getProjectExternalFund",
      "outputs": [
        {
          "name": "",
          "type": "uint256"
        }
      ],
      "payable": false,
      "stateMutability": "view",
      "type": "function"
    }
  ],
  "bytecode": "0x608060405234801561001057600080fd5b5060405160208061177883398101806040528101908080519060200190929190505050336000806101000a81548173ffffffffffffffffffffffffffffffffffffffff021916908373ffffffffffffffffffffffffffffffffffffffff16021790555080600160006101000a81548173ffffffffffffffffffffffffffffffffffffffff021916908373ffffffffffffffffffffffffffffffffffffffff160217905550506116b4806100c46000396000f3006080604052600436106100af576000357c0100000000000000000000000000000000000000000000000000000000900463ffffffff168063240d1195146100b45780632916a222146100f957806351f14c1d1461015e5780635dba423c146101b5578063715018a6146102115780638da5cb5b14610228578063ad7a672f1461027f578063d5697e78146102aa578063ec8edf7a146102f6578063f2fde38b14610351578063f55ba1c914610394575b600080fd5b3480156100c057600080fd5b506100e360048036038101908080356000191690602001909291905050506103fd565b6040518082815260200191505060405180910390f35b34801561010557600080fd5b506101486004803603810190808035600019169060200190929190803573ffffffffffffffffffffffffffffffffffffffff169060200190929190505050610480565b6040518082815260200191505060405180910390f35b34801561016a57600080fd5b506101736104a5565b604051808273ffffffffffffffffffffffffffffffffffffffff1673ffffffffffffffffffffffffffffffffffffffff16815260200191505060405180910390f35b6101f76004803603810190808035600019169060200190929190803573ffffffffffffffffffffffffffffffffffffffff1690602001909291905050506104cb565b604051808215151515815260200191505060405180910390f35b34801561021d57600080fd5b50610226610963565b005b34801561023457600080fd5b5061023d610a65565b604051808273ffffffffffffffffffffffffffffffffffffffff1673ffffffffffffffffffffffffffffffffffffffff16815260200191505060405180910390f35b34801561028b57600080fd5b50610294610a8a565b6040518082815260200191505060405180910390f35b3480156102b657600080fd5b506102d96004803603810190808035600019169060200190929190505050610a90565b604051808381526020018281526020019250505060405180910390f35b34801561030257600080fd5b50610337600480360381019080803573ffffffffffffffffffffffffffffffffffffffff169060200190929190505050610ab4565b604051808215151515815260200191505060405180910390f35b34801561035d57600080fd5b50610392600480360381019080803573ffffffffffffffffffffffffffffffffffffffff169060200190929190505050610b2a565b005b3480156103a057600080fd5b506103e36004803603810190808035600019169060200190929190803573ffffffffffffffffffffffffffffffffffffffff169060200190929190505050610b91565b604051808215151515815260200191505060405180910390f35b60008060009054906101000a900473ffffffffffffffffffffffffffffffffffffffff1673ffffffffffffffffffffffffffffffffffffffff163373ffffffffffffffffffffffffffffffffffffffff1614151561045a57600080fd5b600360008360001916600019168152602001908152602001600020600301549050919050565b6004602052816000526040600020602052806000526040600020600091509150505481565b600160009054906101000a900473ffffffffffffffffffffffffffffffffffffffff1681565b60008060008060009054906101000a900473ffffffffffffffffffffffffffffffffffffffff1673ffffffffffffffffffffffffffffffffffffffff163373ffffffffffffffffffffffffffffffffffffffff1614151561052b57600080fd5b60011515600160009054906101000a900473ffffffffffffffffffffffffffffffffffffffff1673ffffffffffffffffffffffffffffffffffffffff166329d10cc2876040518263ffffffff167c0100000000000000000000000000000000000000000000000000000000028152600401808260001916600019168152602001915050602060405180830381600087803b1580156105c857600080fd5b505af11580156105dc573d6000803e3d6000fd5b505050506040513d60208110156105f257600080fd5b8101908080519060200190929190505050151514151561061157600080fd5b60011515600160009054906101000a900473ffffffffffffffffffffffffffffffffffffffff1673ffffffffffffffffffffffffffffffffffffffff1663ed020418876040518263ffffffff167c0100000000000000000000000000000000000000000000000000000000028152600401808260001916600019168152602001915050602060405180830381600087803b1580156106ae57600080fd5b505af11580156106c2573d6000803e3d6000fd5b505050506040513d60208110156106d857600080fd5b810190808051906020019092919050505015151415156106f757600080fd5b34915060036000866000191660001916815260200190815260200160002060010160008573ffffffffffffffffffffffffffffffffffffffff1673ffffffffffffffffffffffffffffffffffffffff168152602001908152602001600020549050600081141561081c5783600360008760001916600019168152602001908152602001600020600001600060036000896000191660001916815260200190815260200160002060020154815260200190815260200160002060006101000a81548173ffffffffffffffffffffffffffffffffffffffff021916908373ffffffffffffffffffffffffffffffffffffffff160217905550600360008660001916600019168152602001908152602001600020600201600081548092919060010191905055505b61082f828261155990919063ffffffff16565b60036000876000191660001916815260200190815260200160002060010160008673ffffffffffffffffffffffffffffffffffffffff1673ffffffffffffffffffffffffffffffffffffffff168152602001908152602001600020819055506108bf826003600088600019166000191681526020019081526020016000206003015461155990919063ffffffff16565b600360008760001916600019168152602001908152602001600020600301819055506108f68260025461155990919063ffffffff16565b60028190555084600019168473ffffffffffffffffffffffffffffffffffffffff167f999a0185a88c904b2731059a2c19b35edb23c7e54d676d5fa527d536d7e972528442604051808381526020018281526020019250505060405180910390a360019250505092915050565b6000809054906101000a900473ffffffffffffffffffffffffffffffffffffffff1673ffffffffffffffffffffffffffffffffffffffff163373ffffffffffffffffffffffffffffffffffffffff161415156109be57600080fd5b6000809054906101000a900473ffffffffffffffffffffffffffffffffffffffff1673ffffffffffffffffffffffffffffffffffffffff167ff8df31144d9c2f0f6b59d69b8b98abd5459d07f2742c4df920b25aae33c6482060405160405180910390a260008060006101000a81548173ffffffffffffffffffffffffffffffffffffffff021916908373ffffffffffffffffffffffffffffffffffffffff160217905550565b6000809054906101000a900473ffffffffffffffffffffffffffffffffffffffff1681565b60025481565b60036020528060005260406000206000915090508060020154908060030154905082565b60008060009054906101000a900473ffffffffffffffffffffffffffffffffffffffff1673ffffffffffffffffffffffffffffffffffffffff163373ffffffffffffffffffffffffffffffffffffffff16141515610b1157600080fd5b8173ffffffffffffffffffffffffffffffffffffffff16ff5b6000809054906101000a900473ffffffffffffffffffffffffffffffffffffffff1673ffffffffffffffffffffffffffffffffffffffff163373ffffffffffffffffffffffffffffffffffffffff16141515610b8557600080fd5b610b8e81611575565b50565b6000806000806000809054906101000a900473ffffffffffffffffffffffffffffffffffffffff1673ffffffffffffffffffffffffffffffffffffffff163373ffffffffffffffffffffffffffffffffffffffff16141515610bf257600080fd5b60011515600160009054906101000a900473ffffffffffffffffffffffffffffffffffffffff1673ffffffffffffffffffffffffffffffffffffffff1663814fde0a886040518263ffffffff167c0100000000000000000000000000000000000000000000000000000000028152600401808260001916600019168152602001915050602060405180830381600087803b158015610c8f57600080fd5b505af1158015610ca3573d6000803e3d6000fd5b505050506040513d6020811015610cb957600080fd5b81019080805190602001909291905050501515141515610cd857600080fd5b8473ffffffffffffffffffffffffffffffffffffffff16600160009054906101000a900473ffffffffffffffffffffffffffffffffffffffff1673ffffffffffffffffffffffffffffffffffffffff166381423e75886040518263ffffffff167c0100000000000000000000000000000000000000000000000000000000028152600401808260001916600019168152602001915050602060405180830381600087803b158015610d8857600080fd5b505af1158015610d9c573d6000803e3d6000fd5b505050506040513d6020811015610db257600080fd5b810190808051906020019092919050505073ffffffffffffffffffffffffffffffffffffffff161480610e405750600060036000886000191660001916815260200190815260200160002060010160008773ffffffffffffffffffffffffffffffffffffffff1673ffffffffffffffffffffffffffffffffffffffff16815260200190815260200160002054115b1515610e4b57600080fd5b600160009054906101000a900473ffffffffffffffffffffffffffffffffffffffff1673ffffffffffffffffffffffffffffffffffffffff1663f4586647876040518263ffffffff167c0100000000000000000000000000000000000000000000000000000000028152600401808260001916600019168152602001915050602060405180830381600087803b158015610ee457600080fd5b505af1158015610ef8573d6000803e3d6000fd5b505050506040513d6020811015610f0e57600080fd5b81019080805190602001909291905050509250600160009054906101000a900473ffffffffffffffffffffffffffffffffffffffff1673ffffffffffffffffffffffffffffffffffffffff166381423e75876040518263ffffffff167c0100000000000000000000000000000000000000000000000000000000028152600401808260001916600019168152602001915050602060405180830381600087803b158015610fba57600080fd5b505af1158015610fce573d6000803e3d6000fd5b505050506040513d6020811015610fe457600080fd5b810190808051906020019092919050505091508215611252578473ffffffffffffffffffffffffffffffffffffffff168273ffffffffffffffffffffffffffffffffffffffff1614151561103457fe5b6003600087600019166000191681526020019081526020016000206003015490508060046000886000191660001916815260200190815260200160002060008773ffffffffffffffffffffffffffffffffffffffff1673ffffffffffffffffffffffffffffffffffffffff16815260200190815260200160002081905550600060036000886000191660001916815260200190815260200160002060030181905550600115158573ffffffffffffffffffffffffffffffffffffffff166108fc839081150290604051600060405180830381858888f19350505050151514156111c85761112c8160025461166f90919063ffffffff16565b6002819055506003600087600019166000191681526020019081526020016000206000600282016000905560038201600090555050600060046000886000191660001916815260200190815260200160002060008773ffffffffffffffffffffffffffffffffffffffff1673ffffffffffffffffffffffffffffffffffffffff1681526020019081526020016000208190555060019350611550565b8060036000886000191660001916815260200190815260200160002060030181905550600060046000886000191660001916815260200190815260200160002060008773ffffffffffffffffffffffffffffffffffffffff1673ffffffffffffffffffffffffffffffffffffffff1681526020019081526020016000208190555060009350611550565b8473ffffffffffffffffffffffffffffffffffffffff168273ffffffffffffffffffffffffffffffffffffffff161415151561128a57fe5b60036000876000191660001916815260200190815260200160002060010160008673ffffffffffffffffffffffffffffffffffffffff1673ffffffffffffffffffffffffffffffffffffffff1681526020019081526020016000205490508060046000886000191660001916815260200190815260200160002060008773ffffffffffffffffffffffffffffffffffffffff1673ffffffffffffffffffffffffffffffffffffffff16815260200190815260200160002081905550600060036000886000191660001916815260200190815260200160002060010160008773ffffffffffffffffffffffffffffffffffffffff1673ffffffffffffffffffffffffffffffffffffffff16815260200190815260200160002081905550600115158573ffffffffffffffffffffffffffffffffffffffff166108fc839081150290604051600060405180830381858888f19350505050151514156114ca576113fc8160025461166f90919063ffffffff16565b600281905550600060036000886000191660001916815260200190815260200160002060010160008773ffffffffffffffffffffffffffffffffffffffff1673ffffffffffffffffffffffffffffffffffffffff16815260200190815260200160002081905550600060046000886000191660001916815260200190815260200160002060008773ffffffffffffffffffffffffffffffffffffffff1673ffffffffffffffffffffffffffffffffffffffff1681526020019081526020016000208190555060019350611550565b8060036000886000191660001916815260200190815260200160002060030181905550600060046000886000191660001916815260200190815260200160002060008773ffffffffffffffffffffffffffffffffffffffff1673ffffffffffffffffffffffffffffffffffffffff16815260200190815260200160002081905550600093505b50505092915050565b6000818301905082811015151561156c57fe5b80905092915050565b600073ffffffffffffffffffffffffffffffffffffffff168173ffffffffffffffffffffffffffffffffffffffff16141515156115b157600080fd5b8073ffffffffffffffffffffffffffffffffffffffff166000809054906101000a900473ffffffffffffffffffffffffffffffffffffffff1673ffffffffffffffffffffffffffffffffffffffff167f8be0079c531659141344cd1fd0a4f28419497f9722a3daafe3b4186f6b6457e060405160405180910390a3806000806101000a81548173ffffffffffffffffffffffffffffffffffffffff021916908373ffffffffffffffffffffffffffffffffffffffff16021790555050565b600082821115151561167d57fe5b8183039050929150505600a165627a7a723058206cf4d2952ec5758cec5c854f6c12d196ecac999da9b6c4a179d1168fca10f7510029",
  "source": "/**\n * @title The contract that incorporates the logic of the wallet (for external usage)\n * @notice This contract is used when proposals are stored as structs but not created as individual contract by the factory.\n */\npragma solidity ^0.4.21;\n\nimport \"../node_modules/openzeppelin-solidity/contracts/math/SafeMath.sol\"; \nimport \"../node_modules/openzeppelin-solidity/contracts/ownership/Ownable.sol\";\nimport \"./ProposalInterface.sol\";\n\ncontract ExternalWallet is Ownable {\n\n    using SafeMath for uint256;\n\n    struct ProjectDonation{\n        mapping(uint256=>address) donerList;\n        mapping(address=>uint256) donationPerDoner;\n        uint256 totalDoner;\n        uint256 totalDonationForProject;\n    }\n    \n    ProposalInterface public theProposalInterface;\n    uint256 public totalBalance;\n    mapping(bytes32=>ProjectDonation) public projectDonationList;\n    mapping(bytes32=>mapping(address=>uint256)) public withdrawingDonation;  \n    // maybe mapping needs to do like bytes32 => address => \n    \n    event DepositMoney(address indexed Account, bytes32 indexed ProposalID, uint256 Amount, uint256 Timestamp);\n\n    /**\n     *@title Construct the wallet\n     *@dev the owner should be later transterred to the address of the Treasury contract\n     *@param _proposalInterfaceAddress the address of ProposalManager contract.\n     */\n    constructor(address _proposalInterfaceAddress) public {\n        theProposalInterface = ProposalInterface(_proposalInterfaceAddress);\n    }\n\n    /**\n     *@title External accounts deposit money for interesting project, via treasury\n     *@dev The Treasury forward the payment. Therefore address is passed. \n     *@notice Although the function is public, onlyOwner can successfully transfer the money. Return true upon success.\n     *@param _proposalID the reference ID of proposals\n     *@param _adr The account (address) that has deposited the money \n     */\n    function depositMoney(\n        bytes32 _proposalID, \n        address _adr\n    ) public payable onlyOwner returns(bool) {\n        // If the project accepts external participation and externals are allowed to deposit money.\n        require(theProposalInterface.canExternalParticipate(_proposalID) == true);\n        require(theProposalInterface.isProposalNotEndYet(_proposalID) == true);\n\n        uint256 _amount = msg.value;\n        uint256 _currentDonation = projectDonationList[_proposalID].donationPerDoner[_adr];\n\n        if (_currentDonation == 0) {\n            // Doner does not exists\n            projectDonationList[_proposalID].donerList[projectDonationList[_proposalID].totalDoner] = _adr;\n            projectDonationList[_proposalID].totalDoner++;\n        }\n\n        projectDonationList[_proposalID].donationPerDoner[_adr] = _currentDonation.add(_amount);\n        projectDonationList[_proposalID].totalDonationForProject = projectDonationList[_proposalID].totalDonationForProject.add(_amount);\n        totalBalance = totalBalance.add(_amount);\n        emit DepositMoney(_adr, _proposalID, _amount, now);\n        return true;\n    }\n\n    /**\n     *@title External accounts withdraw money when the proposal is not passed, via treasury\n     *@dev If proposal is sucessful upon conclusion, the account made the proposal shall retrieve the money;\n            Otherwise, is the proposal is not successful, external accounts can ask back their deposit money.\n     *@notice Although the function is public, onlyOwner can successfully transfer the money. Return true upon success.\n     *@param _proposalID the reference ID of proposals\n     *@param _adr The account (address) that has deposited the money \n     */\n    function withdrawMoney(\n        bytes32 _proposalID, \n        address _adr\n    ) public onlyOwner returns(bool) {\n        // The proposal is concluded. The requester should be either the destination of the proposal or the contributor.\n        require(theProposalInterface.isProposalConcluded(_proposalID) == true);\n        require(theProposalInterface.getProposaldestinationAddress(_proposalID) == _adr || projectDonationList[_proposalID].donationPerDoner[_adr] > 0);\n\n        bool successful;\n        address initiator;\n        uint256 operatingAmount;\n        successful = theProposalInterface.getProposalFinalResult(_proposalID);\n        initiator = theProposalInterface.getProposaldestinationAddress(_proposalID);\n\n        // transact the amount of money\n        if (successful) {\n            assert(initiator == _adr);\n             // all the external money of this proposal is ready to be withdrawed.\n            operatingAmount = projectDonationList[_proposalID].totalDonationForProject;\n            withdrawingDonation[_proposalID][_adr] = operatingAmount;\n            projectDonationList[_proposalID].totalDonationForProject = 0;\n            if (_adr.send(operatingAmount) == true) {\n                totalBalance = totalBalance.sub(operatingAmount);\n                delete(projectDonationList[_proposalID]);\n                withdrawingDonation[_proposalID][_adr] = 0;\n                return true;\n            } else {\n                projectDonationList[_proposalID].totalDonationForProject = operatingAmount;\n                withdrawingDonation[_proposalID][_adr] = 0;\n                return false;\n            }\n        } else {\n            assert(initiator != _adr);\n            // only the address's contribution to this project is ready to be withdrawed.\n            operatingAmount = projectDonationList[_proposalID].donationPerDoner[_adr];\n            withdrawingDonation[_proposalID][_adr] = operatingAmount;\n            projectDonationList[_proposalID].donationPerDoner[_adr] = 0;\n            if (_adr.send(operatingAmount) == true) {\n                totalBalance = totalBalance.sub(operatingAmount);\n                projectDonationList[_proposalID].donationPerDoner[_adr] = 0;\n                withdrawingDonation[_proposalID][_adr] = 0;\n                return true;\n            } else {\n                projectDonationList[_proposalID].totalDonationForProject = operatingAmount;\n                withdrawingDonation[_proposalID][_adr] = 0;\n                return false;\n            }\n        }\n    }\n\n    /**\n     *@title When smth happened, change the wallet addres to the new one. \n     *@dev This is owner-only, which is DAA only\n     *@notice By calling this function, all the ledger and logic in the contract are lost. \n     Only money is transferred to another address.\n     */\n    function changeWalletAddress(address _newAdr) public onlyOwner returns (bool) {\n        selfdestruct(_newAdr);\n        return true;\n    }\n\n    /**\n     *@title Getter for the individual contribution.\n     *@param _proposalID the reference ID of proposals\n     */\n    function getProjectExternalFund(bytes32 _proposalID) public view onlyOwner returns (uint256) {\n        return projectDonationList[_proposalID].totalDonationForProject;\n    }\n\n}",
  "sourcePath": "C:\\Users\\vasil\\OneDrive\\Documents\\02_e-swissolar\\02_prj\\Truffle-React-ReFiDAO-Sandbox\\backend\\contracts\\ExternalWallet.sol",
  "compiler": {
    "name": "solc",
    "version": "0.4.26+commit.4563c3fc.Emscripten.clang"
  },
  "schemaVersion": "3.4.4",
  "updatedAt": "2022-08-09T20:27:20.154Z",
  "networkType": "ethereum",
  "devdoc": {
    "methods": {
      "renounceOwnership()": {
        "details": "Allows the current owner to relinquish control of the contract."
      },
      "transferOwnership(address)": {
        "details": "Allows the current owner to transfer control of the contract to a newOwner.",
        "params": {
          "_newOwner": "The address to transfer ownership to."
        }
      }
    }
  },
  "userdoc": {
    "methods": {
      "changeWalletAddress(address)": {
        "notice": "title When smth happened, change the wallet addres to the new one.  dev This is owner-only, which is DAA only notice By calling this function, all the ledger and logic in the contract are lost.  Only money is transferred to another address."
      },
      "depositMoney(bytes32,address)": {
        "notice": "title External accounts deposit money for interesting project, via treasury dev The Treasury forward the payment. Therefore address is passed.  notice Although the function is public, onlyOwner can successfully transfer the money. Return true upon success. param _proposalID the reference ID of proposals param _adr The account (address) that has deposited the money "
      },
      "getProjectExternalFund(bytes32)": {
        "notice": "title Getter for the individual contribution. param _proposalID the reference ID of proposals"
      },
      "renounceOwnership()": {
        "notice": "Renouncing to ownership will leave the contract without an owner. It will not be possible to call the functions with the `onlyOwner` modifier anymore."
      },
      "withdrawMoney(bytes32,address)": {
        "notice": "title External accounts withdraw money when the proposal is not passed, via treasury dev If proposal is sucessful upon conclusion, the account made the proposal shall retrieve the money; Otherwise, is the proposal is not successful, external accounts can ask back their deposit money. notice Although the function is public, onlyOwner can successfully transfer the money. Return true upon success. param _proposalID the reference ID of proposals param _adr The account (address) that has deposited the money "
      }
    }
  }
}