{
  "contractName": "Membership",
  "abi": [
    {
      "constant": true,
      "inputs": [],
      "name": "headcount",
      "outputs": [
        {
          "name": "",
          "type": "uint256"
        }
      ],
      "payable": false,
      "stateMutability": "view",
      "type": "function"
    },
    {
      "constant": true,
      "inputs": [],
      "name": "treasuryAdr",
      "outputs": [
        {
          "name": "",
          "type": "address"
        }
      ],
      "payable": false,
      "stateMutability": "view",
      "type": "function"
    },
    {
      "constant": false,
      "inputs": [],
      "name": "renounceOwnership",
      "outputs": [],
      "payable": false,
      "stateMutability": "nonpayable",
      "type": "function"
    },
    {
      "constant": true,
      "inputs": [
        {
          "name": "_adr",
          "type": "address"
        }
      ],
      "name": "isWhitelister",
      "outputs": [
        {
          "name": "",
          "type": "bool"
        }
      ],
      "payable": false,
      "stateMutability": "view",
      "type": "function"
    },
    {
      "constant": true,
      "inputs": [],
      "name": "owner",
      "outputs": [
        {
          "name": "",
          "type": "address"
        }
      ],
      "payable": false,
      "stateMutability": "view",
      "type": "function"
    },
    {
      "constant": true,
      "inputs": [],
      "name": "personalContribution",
      "outputs": [
        {
          "name": "",
          "type": "uint256"
        }
      ],
      "payable": false,
      "stateMutability": "view",
      "type": "function"
    },
    {
      "constant": true,
      "inputs": [],
      "name": "testFuncGetWhitelistersLength",
      "outputs": [
        {
          "name": "",
          "type": "uint256"
        }
      ],
      "payable": false,
      "stateMutability": "view",
      "type": "function"
    },
    {
      "constant": true,
      "inputs": [],
      "name": "gaManagerAdr",
      "outputs": [
        {
          "name": "",
          "type": "address"
        }
      ],
      "payable": false,
      "stateMutability": "view",
      "type": "function"
    },
    {
      "constant": true,
      "inputs": [],
      "name": "delegate",
      "outputs": [
        {
          "name": "",
          "type": "address"
        }
      ],
      "payable": false,
      "stateMutability": "view",
      "type": "function"
    },
    {
      "constant": true,
      "inputs": [],
      "name": "whitelisterListLength",
      "outputs": [
        {
          "name": "",
          "type": "uint256"
        }
      ],
      "payable": false,
      "stateMutability": "view",
      "type": "function"
    },
    {
      "constant": true,
      "inputs": [
        {
          "name": "_i",
          "type": "uint256"
        }
      ],
      "name": "testFuncGetWhitelister",
      "outputs": [
        {
          "name": "",
          "type": "address"
        }
      ],
      "payable": false,
      "stateMutability": "view",
      "type": "function"
    },
    {
      "constant": false,
      "inputs": [
        {
          "name": "_newOwner",
          "type": "address"
        }
      ],
      "name": "transferOwnership",
      "outputs": [],
      "payable": false,
      "stateMutability": "nonpayable",
      "type": "function"
    },
    {
      "inputs": [
        {
          "name": "_delegate",
          "type": "address"
        },
        {
          "name": "_whitelisterOne",
          "type": "address"
        },
        {
          "name": "_whitelisterTwo",
          "type": "address"
        }
      ],
      "payable": false,
      "stateMutability": "nonpayable",
      "type": "constructor"
    },
    {
      "anonymous": false,
      "inputs": [
        {
          "indexed": true,
          "name": "concernedWhitelister",
          "type": "address"
        },
        {
          "indexed": false,
          "name": "removedOrAdded",
          "type": "bool"
        }
      ],
      "name": "ChangeInWhitelister",
      "type": "event"
    },
    {
      "anonymous": false,
      "inputs": [
        {
          "indexed": true,
          "name": "accountAddress",
          "type": "address"
        },
        {
          "indexed": false,
          "name": "currentStatus",
          "type": "uint256"
        }
      ],
      "name": "ChangeInMembershipStatus",
      "type": "event"
    },
    {
      "anonymous": false,
      "inputs": [
        {
          "indexed": true,
          "name": "concernedDelegate",
          "type": "address"
        },
        {
          "indexed": false,
          "name": "removedOrAdded",
          "type": "bool"
        }
      ],
      "name": "ChangeInDelegate",
      "type": "event"
    },
    {
      "anonymous": false,
      "inputs": [
        {
          "indexed": true,
          "name": "previousOwner",
          "type": "address"
        }
      ],
      "name": "OwnershipRenounced",
      "type": "event"
    },
    {
      "anonymous": false,
      "inputs": [
        {
          "indexed": true,
          "name": "previousOwner",
          "type": "address"
        },
        {
          "indexed": true,
          "name": "newOwner",
          "type": "address"
        }
      ],
      "name": "OwnershipTransferred",
      "type": "event"
    },
    {
      "constant": false,
      "inputs": [
        {
          "name": "_newProposal",
          "type": "address"
        }
      ],
      "name": "updateProposalContractAddress",
      "outputs": [],
      "payable": false,
      "stateMutability": "nonpayable",
      "type": "function"
    },
    {
      "constant": false,
      "inputs": [
        {
          "name": "_newTreasury",
          "type": "address"
        }
      ],
      "name": "updateTreasuryAddress",
      "outputs": [],
      "payable": false,
      "stateMutability": "nonpayable",
      "type": "function"
    },
    {
      "constant": false,
      "inputs": [
        {
          "name": "_newGA",
          "type": "address"
        }
      ],
      "name": "updateGAContractAddress",
      "outputs": [],
      "payable": false,
      "stateMutability": "nonpayable",
      "type": "function"
    },
    {
      "constant": false,
      "inputs": [],
      "name": "requestMembership",
      "outputs": [
        {
          "name": "",
          "type": "bool"
        }
      ],
      "payable": false,
      "stateMutability": "nonpayable",
      "type": "function"
    },
    {
      "constant": false,
      "inputs": [
        {
          "name": "_adr",
          "type": "address"
        }
      ],
      "name": "addWhitelister",
      "outputs": [
        {
          "name": "",
          "type": "bool"
        }
      ],
      "payable": false,
      "stateMutability": "nonpayable",
      "type": "function"
    },
    {
      "constant": false,
      "inputs": [
        {
          "name": "_adr",
          "type": "address"
        }
      ],
      "name": "removeWhitelister",
      "outputs": [
        {
          "name": "",
          "type": "bool"
        }
      ],
      "payable": false,
      "stateMutability": "nonpayable",
      "type": "function"
    },
    {
      "constant": false,
      "inputs": [
        {
          "name": "_adr",
          "type": "address"
        }
      ],
      "name": "whitelistMember",
      "outputs": [
        {
          "name": "",
          "type": "bool"
        }
      ],
      "payable": false,
      "stateMutability": "nonpayable",
      "type": "function"
    },
    {
      "constant": false,
      "inputs": [
        {
          "name": "_newMember",
          "type": "address"
        }
      ],
      "name": "addNewMember",
      "outputs": [
        {
          "name": "",
          "type": "bool"
        }
      ],
      "payable": false,
      "stateMutability": "nonpayable",
      "type": "function"
    },
    {
      "constant": false,
      "inputs": [
        {
          "name": "_adr",
          "type": "address"
        }
      ],
      "name": "removeMember",
      "outputs": [
        {
          "name": "",
          "type": "bool"
        }
      ],
      "payable": false,
      "stateMutability": "nonpayable",
      "type": "function"
    },
    {
      "constant": false,
      "inputs": [
        {
          "name": "_adr",
          "type": "address"
        }
      ],
      "name": "setDelegate",
      "outputs": [
        {
          "name": "",
          "type": "bool"
        }
      ],
      "payable": false,
      "stateMutability": "nonpayable",
      "type": "function"
    },
    {
      "constant": true,
      "inputs": [
        {
          "name": "_adr",
          "type": "address"
        }
      ],
      "name": "getMembershipStatus",
      "outputs": [
        {
          "name": "",
          "type": "uint256"
        }
      ],
      "payable": false,
      "stateMutability": "view",
      "type": "function"
    },
    {
      "constant": false,
      "inputs": [
        {
          "name": "_proposalID",
          "type": "bytes32"
        }
      ],
      "name": "expelMember",
      "outputs": [
        {
          "name": "",
          "type": "bool"
        }
      ],
      "payable": false,
      "stateMutability": "nonpayable",
      "type": "function"
    },
    {
      "constant": true,
      "inputs": [],
      "name": "getDelegate",
      "outputs": [
        {
          "name": "",
          "type": "address"
        }
      ],
      "payable": false,
      "stateMutability": "view",
      "type": "function"
    },
    {
      "constant": true,
      "inputs": [
        {
          "name": "_adr",
          "type": "address"
        }
      ],
      "name": "checkIsMember",
      "outputs": [
        {
          "name": "",
          "type": "bool"
        }
      ],
      "payable": false,
      "stateMutability": "view",
      "type": "function"
    },
    {
      "constant": true,
      "inputs": [
        {
          "name": "_adr",
          "type": "address"
        }
      ],
      "name": "checkIsDelegate",
      "outputs": [
        {
          "name": "",
          "type": "bool"
        }
      ],
      "payable": false,
      "stateMutability": "view",
      "type": "function"
    },
    {
      "constant": true,
      "inputs": [
        {
          "name": "_adr",
          "type": "address"
        }
      ],
      "name": "checkIsWhitelistedByTwo",
      "outputs": [
        {
          "name": "",
          "type": "bool"
        }
      ],
      "payable": false,
      "stateMutability": "view",
      "type": "function"
    },
    {
      "constant": true,
      "inputs": [
        {
          "name": "_value",
          "type": "uint256"
        }
      ],
      "name": "reachDesiredValue",
      "outputs": [
        {
          "name": "",
          "type": "bool"
        }
      ],
      "payable": false,
      "stateMutability": "view",
      "type": "function"
    },
    {
      "constant": true,
      "inputs": [],
      "name": "hasDelegate",
      "outputs": [
        {
          "name": "",
          "type": "bool"
        }
      ],
      "payable": false,
      "stateMutability": "view",
      "type": "function"
    },
    {
      "constant": true,
      "inputs": [],
      "name": "getWhitelisterNumber",
      "outputs": [
        {
          "name": "",
          "type": "uint256"
        }
      ],
      "payable": false,
      "stateMutability": "view",
      "type": "function"
    },
    {
      "constant": true,
      "inputs": [],
      "name": "getTotalMemberNumber",
      "outputs": [
        {
          "name": "",
          "type": "uint256"
        }
      ],
      "payable": false,
      "stateMutability": "view",
      "type": "function"
    }
  ],
  "bytecode": "0x608060405260026001556001600855600060095534801561001f57600080fd5b5060405160608061269783398101806040528101908080519060200190929190805190602001909291908051906020019092919050505033600460006101000a81548173ffffffffffffffffffffffffffffffffffffffff021916908373ffffffffffffffffffffffffffffffffffffffff160217905550826000806101000a81548173ffffffffffffffffffffffffffffffffffffffff021916908373ffffffffffffffffffffffffffffffffffffffff160217905550816002600080815260200190815260200160002060006101000a81548173ffffffffffffffffffffffffffffffffffffffff021916908373ffffffffffffffffffffffffffffffffffffffff16021790555080600260006001815260200190815260200160002060006101000a81548173ffffffffffffffffffffffffffffffffffffffff021916908373ffffffffffffffffffffffffffffffffffffffff1602179055506004600360008573ffffffffffffffffffffffffffffffffffffffff1673ffffffffffffffffffffffffffffffffffffffff16815260200190815260200160002060006101000a81548160ff021916908360048111156101d857fe5b02179055506000809054906101000a900473ffffffffffffffffffffffffffffffffffffffff1673ffffffffffffffffffffffffffffffffffffffff167feaf1ff0b7a64649dda841563769963aadb599456df398017829be3f4232ffa076001604051808215151515815260200191505060405180910390a28173ffffffffffffffffffffffffffffffffffffffff167f8726eedda20077f34a60d8e9c3d5354430f24a08bb1e58973b7bc1e6044efa866001604051808215151515815260200191505060405180910390a28073ffffffffffffffffffffffffffffffffffffffff167f8726eedda20077f34a60d8e9c3d5354430f24a08bb1e58973b7bc1e6044efa866001604051808215151515815260200191505060405180910390a26000809054906101000a900473ffffffffffffffffffffffffffffffffffffffff1673ffffffffffffffffffffffffffffffffffffffff167f4f1b9dde7946cb2308d2ff71fe7e03b9ffadf198ee9292fbae7c9e9e19c573f360048081111561035c57fe5b6040518082815260200191505060405180910390a2505050612314806103836000396000f300608060405260043610610196576000357c0100000000000000000000000000000000000000000000000000000000900463ffffffff1680630b1ca49a1461019b5780630d4ac0f9146101f65780630d9321031461022157806320c92e201461026657806321d2a573146102bd5780632c0ac022146103185780633450e683146103435780636a07951f1461039e578063715018a6146103e15780637b10b293146103f85780637d0c269f1461042757806382c3f79c14610482578063841e4561146104dd5780638da5cb5b146105205780638ee847241461057757806398eb8d93146105a25780639a3248bc146105fd578063a21a9a0714610658578063a7f2f4e214610683578063bb9d1710146106da578063bc7f3b5014610731578063c89e436114610788578063ca5eb5e1146107df578063ceccd1061461083a578063d264ec7f14610883578063d62d8f20146108ae578063da450ed9146108f1578063e257e67b1461095e578063e4a436ef1461098d578063e9034b75146109b8578063eaf9144a14610a13578063f2fde38b14610a6e575b600080fd5b3480156101a757600080fd5b506101dc600480360381019080803573ffffffffffffffffffffffffffffffffffffffff169060200190929190505050610ab1565b604051808215151515815260200191505060405180910390f35b34801561020257600080fd5b5061020b610bf6565b6040518082815260200191505060405180910390f35b34801561022d57600080fd5b5061024c60048036038101908080359060200190929190505050610bfc565b604051808215151515815260200191505060405180910390f35b34801561027257600080fd5b5061027b610c1b565b604051808273ffffffffffffffffffffffffffffffffffffffff1673ffffffffffffffffffffffffffffffffffffffff16815260200191505060405180910390f35b3480156102c957600080fd5b506102fe600480360381019080803573ffffffffffffffffffffffffffffffffffffffff169060200190929190505050610c41565b604051808215151515815260200191505060405180910390f35b34801561032457600080fd5b5061032d610caf565b6040518082815260200191505060405180910390f35b34801561034f57600080fd5b50610384600480360381019080803573ffffffffffffffffffffffffffffffffffffffff169060200190929190505050610cb9565b604051808215151515815260200191505060405180910390f35b3480156103aa57600080fd5b506103df600480360381019080803573ffffffffffffffffffffffffffffffffffffffff1690602001909291905050506110b8565b005b3480156103ed57600080fd5b506103f661117e565b005b34801561040457600080fd5b5061040d611283565b604051808215151515815260200191505060405180910390f35b34801561043357600080fd5b50610468600480360381019080803573ffffffffffffffffffffffffffffffffffffffff1690602001909291905050506113b7565b604051808215151515815260200191505060405180910390f35b34801561048e57600080fd5b506104c3600480360381019080803573ffffffffffffffffffffffffffffffffffffffff169060200190929190505050611455565b604051808215151515815260200191505060405180910390f35b3480156104e957600080fd5b5061051e600480360381019080803573ffffffffffffffffffffffffffffffffffffffff169060200190929190505050611670565b005b34801561052c57600080fd5b50610535611736565b604051808273ffffffffffffffffffffffffffffffffffffffff1673ffffffffffffffffffffffffffffffffffffffff16815260200191505060405180910390f35b34801561058357600080fd5b5061058c61175c565b6040518082815260200191505060405180910390f35b3480156105ae57600080fd5b506105e3600480360381019080803573ffffffffffffffffffffffffffffffffffffffff169060200190929190505050611762565b604051808215151515815260200191505060405180910390f35b34801561060957600080fd5b5061063e600480360381019080803573ffffffffffffffffffffffffffffffffffffffff1690602001909291905050506118a9565b604051808215151515815260200191505060405180910390f35b34801561066457600080fd5b5061066d611902565b6040518082815260200191505060405180910390f35b34801561068f57600080fd5b506106c4600480360381019080803573ffffffffffffffffffffffffffffffffffffffff16906020019092919050505061190c565b6040518082815260200191505060405180910390f35b3480156106e657600080fd5b506106ef61196d565b604051808273ffffffffffffffffffffffffffffffffffffffff1673ffffffffffffffffffffffffffffffffffffffff16815260200191505060405180910390f35b34801561073d57600080fd5b50610746611993565b604051808273ffffffffffffffffffffffffffffffffffffffff1673ffffffffffffffffffffffffffffffffffffffff16815260200191505060405180910390f35b34801561079457600080fd5b5061079d6119bc565b604051808273ffffffffffffffffffffffffffffffffffffffff1673ffffffffffffffffffffffffffffffffffffffff16815260200191505060405180910390f35b3480156107eb57600080fd5b50610820600480360381019080803573ffffffffffffffffffffffffffffffffffffffff1690602001909291905050506119e1565b604051808215151515815260200191505060405180910390f35b34801561084657600080fd5b506108696004803603810190808035600019169060200190929190505050611b28565b604051808215151515815260200191505060405180910390f35b34801561088f57600080fd5b50610898611e86565b6040518082815260200191505060405180910390f35b3480156108ba57600080fd5b506108ef600480360381019080803573ffffffffffffffffffffffffffffffffffffffff169060200190929190505050611e8c565b005b3480156108fd57600080fd5b5061091c60048036038101908080359060200190929190505050611f52565b604051808273ffffffffffffffffffffffffffffffffffffffff1673ffffffffffffffffffffffffffffffffffffffff16815260200191505060405180910390f35b34801561096a57600080fd5b50610973611f8f565b604051808215151515815260200191505060405180910390f35b34801561099957600080fd5b506109a2611fd1565b6040518082815260200191505060405180910390f35b3480156109c457600080fd5b506109f9600480360381019080803573ffffffffffffffffffffffffffffffffffffffff169060200190929190505050611fdb565b604051808215151515815260200191505060405180910390f35b348015610a1f57600080fd5b50610a54600480360381019080803573ffffffffffffffffffffffffffffffffffffffff16906020019092919050505061204a565b604051808215151515815260200191505060405180910390f35b348015610a7a57600080fd5b50610aaf600480360381019080803573ffffffffffffffffffffffffffffffffffffffff169060200190929190505050612184565b005b6000600480811115610abf57fe5b600360008473ffffffffffffffffffffffffffffffffffffffff1673ffffffffffffffffffffffffffffffffffffffff16815260200190815260200160002060009054906101000a900460ff166004811115610b1757fe5b141515610b2357600080fd5b6000600360008473ffffffffffffffffffffffffffffffffffffffff1673ffffffffffffffffffffffffffffffffffffffff16815260200190815260200160002060006101000a81548160ff02191690836004811115610b7f57fe5b0217905550600860008154809291906001900391905055508173ffffffffffffffffffffffffffffffffffffffff167f4f1b9dde7946cb2308d2ff71fe7e03b9ffadf198ee9292fbae7c9e9e19c573f360006004811115610bdc57fe5b6040518082815260200191505060405180910390a2919050565b60085481565b6000612710821015610c115760009050610c16565b600190505b919050565b600660009054906101000a900473ffffffffffffffffffffffffffffffffffffffff1681565b6000600480811115610c4f57fe5b600360008473ffffffffffffffffffffffffffffffffffffffff1673ffffffffffffffffffffffffffffffffffffffff16815260200190815260200160002060009054906101000a900460ff166004811115610ca757fe5b149050919050565b6000600854905090565b600060011515610cc8336113b7565b1515141515610cd657600080fd5b60016004811115610ce357fe5b600360008473ffffffffffffffffffffffffffffffffffffffff1673ffffffffffffffffffffffffffffffffffffffff16815260200190815260200160002060009054906101000a900460ff166004811115610d3b57fe5b1480610e40575060026004811115610d4f57fe5b600360008473ffffffffffffffffffffffffffffffffffffffff1673ffffffffffffffffffffffffffffffffffffffff16815260200190815260200160002060009054906101000a900460ff166004811115610da757fe5b148015610e3f57503373ffffffffffffffffffffffffffffffffffffffff16600c60008473ffffffffffffffffffffffffffffffffffffffff1673ffffffffffffffffffffffffffffffffffffffff16815260200190815260200160002060009054906101000a900473ffffffffffffffffffffffffffffffffffffffff1673ffffffffffffffffffffffffffffffffffffffff1614155b5b1515610e4b57600080fd5b60016004811115610e5857fe5b600360008473ffffffffffffffffffffffffffffffffffffffff1673ffffffffffffffffffffffffffffffffffffffff16815260200190815260200160002060009054906101000a900460ff166004811115610eb057fe5b1415610ff4576002600360008473ffffffffffffffffffffffffffffffffffffffff1673ffffffffffffffffffffffffffffffffffffffff16815260200190815260200160002060006101000a81548160ff02191690836004811115610f1257fe5b021790555033600c60008473ffffffffffffffffffffffffffffffffffffffff1673ffffffffffffffffffffffffffffffffffffffff16815260200190815260200160002060006101000a81548173ffffffffffffffffffffffffffffffffffffffff021916908373ffffffffffffffffffffffffffffffffffffffff1602179055508173ffffffffffffffffffffffffffffffffffffffff167f4f1b9dde7946cb2308d2ff71fe7e03b9ffadf198ee9292fbae7c9e9e19c573f360026004811115610fda57fe5b6040518082815260200191505060405180910390a26110af565b60038060008473ffffffffffffffffffffffffffffffffffffffff1673ffffffffffffffffffffffffffffffffffffffff16815260200190815260200160002060006101000a81548160ff0219169083600481111561104f57fe5b02179055508173ffffffffffffffffffffffffffffffffffffffff167f4f1b9dde7946cb2308d2ff71fe7e03b9ffadf198ee9292fbae7c9e9e19c573f36003600481111561109957fe5b6040518082815260200191505060405180910390a25b60019050919050565b600460009054906101000a900473ffffffffffffffffffffffffffffffffffffffff1673ffffffffffffffffffffffffffffffffffffffff163373ffffffffffffffffffffffffffffffffffffffff1614151561111457600080fd5b60008173ffffffffffffffffffffffffffffffffffffffff161415151561113a57600080fd5b80600560006101000a81548173ffffffffffffffffffffffffffffffffffffffff021916908373ffffffffffffffffffffffffffffffffffffffff16021790555050565b600460009054906101000a900473ffffffffffffffffffffffffffffffffffffffff1673ffffffffffffffffffffffffffffffffffffffff163373ffffffffffffffffffffffffffffffffffffffff161415156111da57600080fd5b600460009054906101000a900473ffffffffffffffffffffffffffffffffffffffff1673ffffffffffffffffffffffffffffffffffffffff167ff8df31144d9c2f0f6b59d69b8b98abd5459d07f2742c4df920b25aae33c6482060405160405180910390a26000600460006101000a81548173ffffffffffffffffffffffffffffffffffffffff021916908373ffffffffffffffffffffffffffffffffffffffff160217905550565b600080600481111561129157fe5b600360003373ffffffffffffffffffffffffffffffffffffffff1673ffffffffffffffffffffffffffffffffffffffff16815260200190815260200160002060009054906101000a900460ff1660048111156112e957fe5b1415156112f557600080fd5b6001600360003373ffffffffffffffffffffffffffffffffffffffff1673ffffffffffffffffffffffffffffffffffffffff16815260200190815260200160002060006101000a81548160ff0219169083600481111561135157fe5b02179055503373ffffffffffffffffffffffffffffffffffffffff167f4f1b9dde7946cb2308d2ff71fe7e03b9ffadf198ee9292fbae7c9e9e19c573f36001600481111561139b57fe5b6040518082815260200191505060405180910390a26001905090565b6000806000809150600090505b60015481101561144b578373ffffffffffffffffffffffffffffffffffffffff166002600083815260200190815260200160002060009054906101000a900473ffffffffffffffffffffffffffffffffffffffff1673ffffffffffffffffffffffffffffffffffffffff16141561143e576001915061144b565b80806001019150506113c4565b8192505050919050565b6000806000809054906101000a900473ffffffffffffffffffffffffffffffffffffffff1673ffffffffffffffffffffffffffffffffffffffff163373ffffffffffffffffffffffffffffffffffffffff161415156114b357600080fd5b600115156114c0846113b7565b15151415156114ce57600080fd5b60026001541115156114df57600080fd5b600090505b6001805403811015611569578273ffffffffffffffffffffffffffffffffffffffff166002600083815260200190815260200160002060009054906101000a900473ffffffffffffffffffffffffffffffffffffffff1673ffffffffffffffffffffffffffffffffffffffff16141561155c57611569565b80806001019150506114e4565b60018054038114151561160057600260006001805403815260200190815260200160002060009054906101000a900473ffffffffffffffffffffffffffffffffffffffff166002600083815260200190815260200160002060006101000a81548173ffffffffffffffffffffffffffffffffffffffff021916908373ffffffffffffffffffffffffffffffffffffffff1602179055505b600160008154809291906001900391905055508273ffffffffffffffffffffffffffffffffffffffff167f8726eedda20077f34a60d8e9c3d5354430f24a08bb1e58973b7bc1e6044efa866000604051808215151515815260200191505060405180910390a26001915050919050565b600460009054906101000a900473ffffffffffffffffffffffffffffffffffffffff1673ffffffffffffffffffffffffffffffffffffffff163373ffffffffffffffffffffffffffffffffffffffff161415156116cc57600080fd5b60008173ffffffffffffffffffffffffffffffffffffffff16141515156116f257600080fd5b80600660006101000a81548173ffffffffffffffffffffffffffffffffffffffff021916908373ffffffffffffffffffffffffffffffffffffffff16021790555050565b600460009054906101000a900473ffffffffffffffffffffffffffffffffffffffff1681565b61271081565b6000600660009054906101000a900473ffffffffffffffffffffffffffffffffffffffff1673ffffffffffffffffffffffffffffffffffffffff163373ffffffffffffffffffffffffffffffffffffffff161415156117c057600080fd5b600360048111156117cd57fe5b600360008473ffffffffffffffffffffffffffffffffffffffff1673ffffffffffffffffffffffffffffffffffffffff16815260200190815260200160002060009054906101000a900460ff16600481111561182557fe5b14151561183157600080fd5b6004600360008473ffffffffffffffffffffffffffffffffffffffff1673ffffffffffffffffffffffffffffffffffffffff16815260200190815260200160002060006101000a81548160ff0219169083600481111561188d57fe5b0217905550600860008154809291906001019190505550919050565b60008173ffffffffffffffffffffffffffffffffffffffff166000809054906101000a900473ffffffffffffffffffffffffffffffffffffffff1673ffffffffffffffffffffffffffffffffffffffff16149050919050565b6000600154905090565b6000600360008373ffffffffffffffffffffffffffffffffffffffff1673ffffffffffffffffffffffffffffffffffffffff16815260200190815260200160002060009054906101000a900460ff16600481111561196657fe5b9050919050565b600760009054906101000a900473ffffffffffffffffffffffffffffffffffffffff1681565b60008060009054906101000a900473ffffffffffffffffffffffffffffffffffffffff16905090565b6000809054906101000a900473ffffffffffffffffffffffffffffffffffffffff1681565b6000600760009054906101000a900473ffffffffffffffffffffffffffffffffffffffff1673ffffffffffffffffffffffffffffffffffffffff163373ffffffffffffffffffffffffffffffffffffffff16141515611a3f57600080fd5b600480811115611a4b57fe5b600360008473ffffffffffffffffffffffffffffffffffffffff1673ffffffffffffffffffffffffffffffffffffffff16815260200190815260200160002060009054906101000a900460ff166004811115611aa357fe5b141515611aaf57600080fd5b6000809054906101000a900473ffffffffffffffffffffffffffffffffffffffff1673ffffffffffffffffffffffffffffffffffffffff167feaf1ff0b7a64649dda841563769963aadb599456df398017829be3f4232ffa076001604051808215151515815260200191505060405180910390a2919050565b600080600560009054906101000a900473ffffffffffffffffffffffffffffffffffffffff1673ffffffffffffffffffffffffffffffffffffffff1663f4586647846040518263ffffffff167c0100000000000000000000000000000000000000000000000000000000028152600401808260001916600019168152602001915050602060405180830381600087803b158015611bc457600080fd5b505af1158015611bd8573d6000803e3d6000fd5b505050506040513d6020811015611bee57600080fd5b81019080805190602001909291905050501515611c0a57600080fd5b600560009054906101000a900473ffffffffffffffffffffffffffffffffffffffff1673ffffffffffffffffffffffffffffffffffffffff1663fbfc55dc846040518263ffffffff167c0100000000000000000000000000000000000000000000000000000000028152600401808260001916600019168152602001915050602060405180830381600087803b158015611ca357600080fd5b505af1158015611cb7573d6000803e3d6000fd5b505050506040513d6020811015611ccd57600080fd5b81019080805190602001909291905050501515611ce957600080fd5b600560009054906101000a900473ffffffffffffffffffffffffffffffffffffffff1673ffffffffffffffffffffffffffffffffffffffff16638d1064c4846040518263ffffffff167c0100000000000000000000000000000000000000000000000000000000028152600401808260001916600019168152602001915050602060405180830381600087803b158015611d8257600080fd5b505af1158015611d96573d6000803e3d6000fd5b505050506040513d6020811015611dac57600080fd5b810190808051906020019092919050505090506000809054906101000a900473ffffffffffffffffffffffffffffffffffffffff1673ffffffffffffffffffffffffffffffffffffffff168173ffffffffffffffffffffffffffffffffffffffff1614151515611e1b57600080fd5b6000600360008373ffffffffffffffffffffffffffffffffffffffff1673ffffffffffffffffffffffffffffffffffffffff16815260200190815260200160002060006101000a81548160ff02191690836004811115611e7757fe5b02179055506001915050919050565b60015481565b600460009054906101000a900473ffffffffffffffffffffffffffffffffffffffff1673ffffffffffffffffffffffffffffffffffffffff163373ffffffffffffffffffffffffffffffffffffffff16141515611ee857600080fd5b60008173ffffffffffffffffffffffffffffffffffffffff1614151515611f0e57600080fd5b80600760006101000a81548173ffffffffffffffffffffffffffffffffffffffff021916908373ffffffffffffffffffffffffffffffffffffffff16021790555050565b60006002600083815260200190815260200160002060009054906101000a900473ffffffffffffffffffffffffffffffffffffffff169050919050565b6000806000809054906101000a900473ffffffffffffffffffffffffffffffffffffffff1673ffffffffffffffffffffffffffffffffffffffff161415905090565b6000600154905090565b600060036004811115611fea57fe5b600360008473ffffffffffffffffffffffffffffffffffffffff1673ffffffffffffffffffffffffffffffffffffffff16815260200190815260200160002060009054906101000a900460ff16600481111561204257fe5b149050919050565b60008060009054906101000a900473ffffffffffffffffffffffffffffffffffffffff1673ffffffffffffffffffffffffffffffffffffffff163373ffffffffffffffffffffffffffffffffffffffff161415156120a757600080fd5b600015156120b4836113b7565b15151415156120c257600080fd5b8160026000600154815260200190815260200160002060006101000a81548173ffffffffffffffffffffffffffffffffffffffff021916908373ffffffffffffffffffffffffffffffffffffffff1602179055506001600081548092919060010191905055508173ffffffffffffffffffffffffffffffffffffffff167f8726eedda20077f34a60d8e9c3d5354430f24a08bb1e58973b7bc1e6044efa866001604051808215151515815260200191505060405180910390a260019050919050565b600460009054906101000a900473ffffffffffffffffffffffffffffffffffffffff1673ffffffffffffffffffffffffffffffffffffffff163373ffffffffffffffffffffffffffffffffffffffff161415156121e057600080fd5b6121e9816121ec565b50565b600073ffffffffffffffffffffffffffffffffffffffff168173ffffffffffffffffffffffffffffffffffffffff161415151561222857600080fd5b8073ffffffffffffffffffffffffffffffffffffffff16600460009054906101000a900473ffffffffffffffffffffffffffffffffffffffff1673ffffffffffffffffffffffffffffffffffffffff167f8be0079c531659141344cd1fd0a4f28419497f9722a3daafe3b4186f6b6457e060405160405180910390a380600460006101000a81548173ffffffffffffffffffffffffffffffffffffffff021916908373ffffffffffffffffffffffffffffffffffffffff160217905550505600a165627a7a723058203c7c5dbad0e02a3630fec5c58b66a8cb0e7e4b208045bb115e2c858ce487fe220029",
  "source": "/**\n * @title Membership \n * @notice This contract stores basic modifiers which control the membership\n * @dev  The contract consists of the functionality of crowdsale-like token generation and basic functions of user management. \n */\npragma solidity ^0.4.21;\n\nimport \"./Accessible.sol\";\nimport \"./ProposalInterface.sol\";\n//@TODO To introduce the feature of DAOToken later. This feature and the feature of reputation, along with the rewarding system can be introduced later. \n// import \"./DAOToken.sol\";\n//@TODO The SafeMath contract is used for calculating membership contribution.\nimport \"../node_modules/openzeppelin-solidity/contracts/math/SafeMath.sol\"; \nimport \"../node_modules/openzeppelin-solidity/contracts/ownership/Ownable.sol\"; \n\n//@TODO Other wallet or addresses to be imported in the contract...\n\ncontract Membership is Accessible, Ownable {\n\n    using SafeMath for uint256;\n    // using SafeERC20 for DAOToken;\n    \n    ProposalInterface proposalGate;\n    // DAOToken public nativeToken;\n\n    address public treasuryAdr;\n    address public gaManagerAdr;\n    uint256 public headcount = 1;\n    uint256 private lastNoDelegateTime = 0;\n    uint256 public constant personalContribution = 10000 wei;        // The contribution (in wei) that each person needs to pay\n    mapping(address=>uint256) internal memberContribution; // This is sepecially used when a minimum contribution is needed but not restrict to this value.\n    mapping(address=>uint256) internal voteWeight;\n    mapping(address=>address) internal firstWhiteLister;\n\n    /**\n     *@param concernedWhitelister The account of the whitelister.\n     *@param removedOrAdded If a whitelister is newly added, true; If removed, false\n     */\n    event ChangeInWhitelister(address indexed concernedWhitelister, bool removedOrAdded);\n    event ChangeInMembershipStatus(address indexed accountAddress, uint currentStatus);\n    event ChangeInDelegate(address indexed concernedDelegate, bool removedOrAdded);\n\n    modifier treasuryOnly {\n        require(msg.sender == treasuryAdr);\n        _;\n    }\n\n    /**\n     *@title The constructor of the contract\n     *@notice By default, the contract deployer is the delegate (holds the admin right, at the very first beginning)\n     *@dev Whitelisters need to be provided upon construction.\n     *@param _nativeToken the voting token used in the DAAS. However, at the current stage, no token is needed.\n     *                    Token can then be introduced later when a staking mechanism is introduced.\n     *@param _whitelisterOne the account address of the first whitelister\n     *@param _whitelisterTwo the account address of the second whitelister\n     */\n    constructor (address _delegate, address _whitelisterOne, address _whitelisterTwo) public {\n        delegate = _delegate;\n        // nativeToken = _nativeToken;\n        //@TODO linked the token. mint token and later transfer the ownership of the token to this contact address.\n        whitelisterList[0] = _whitelisterOne;\n        whitelisterList[1] = _whitelisterTwo;\n        // whitelisterList.push(_whitelisterOne);\n        // whitelisterList.push(_whitelisterTwo);\n        membershipList[_delegate] = membershipStatus.isMember;     // By default, the delegate is also a member.\n        emit ChangeInDelegate(delegate, true);\n        emit ChangeInWhitelister(_whitelisterOne, true);\n        emit ChangeInWhitelister(_whitelisterTwo, true);\n        emit ChangeInMembershipStatus(delegate, uint(membershipStatus.isMember));\n    }\n    // new function for update proposals\n    function updateProposalContractAddress(address _newProposal) public onlyOwner {\n        require(_newProposal != 0x0);\n        proposalGate = ProposalInterface(_newProposal);\n    }\n\n    function updateTreasuryAddress(address _newTreasury) public onlyOwner {\n        require(_newTreasury != 0x0);\n        treasuryAdr = _newTreasury;\n    }\n\n    function updateGAContractAddress(address _newGA) public onlyOwner {\n        require(_newGA != 0x0);\n        gaManagerAdr = _newGA;\n    }\n\n    // // // separate the update contract function into two small ones \n    // function updateContractAddress(address _newProposal, address _newTreasury) public onlyOwner {\n    //     require(_newProposal != 0x0 || _newTreasury != 0x0);\n\n    //     if (_newProposal != 0x0) {\n    //         proposalGate = ProposalInterface(_newProposal);\n    //     }\n\n    //     if (_newTreasury != 0x0) {\n    //         treasuryAdr = _newTreasury;\n    //     }\n    // }\n\n\n    /**\n     *@title A non-member requests the membership from the DAAS.\n     *@notice Set the status of the member into requesting if the particular account has not yet done the request. \n     */\n    function requestMembership() public returns (bool) {\n        require(membershipList[msg.sender] == membershipStatus.nonMember);\n        membershipList[msg.sender] = membershipStatus.requesting;\n        emit ChangeInMembershipStatus(msg.sender, uint(membershipStatus.requesting));\n        return true;\n    }\n\n    /**\n     *@title Check the status of membership status: requesting or not\n     *@dev  Check whether this should be implemented as a modifier\n     *@param _adr The address of the to-be-verified account\n     */\n    function isRequestingMembership(address _adr) private view returns (bool) {\n        if (membershipList[_adr] == membershipStatus.requesting) {\n            return true;\n        } else {\n            return false;\n        }\n     }\n\n     /**\n      *@title Check the status of membership status: whitelisted or not\n      *@dev Check whether this should be implemented as a modifier\n      *@param _adr The address of the to-be-verified account\n      */\n    function isWhitelisted(address _adr) private view returns (bool) {\n        if (membershipList[_adr] == membershipStatus.whitelistedByOne || membershipList[_adr] == membershipStatus.whitelistedByTwo) {\n            return true;\n        } else {\n            return false;\n        }\n    }\n\n    /**\n     *@notice Set up the status of the member into the desired one.\n     *@dev Can only be called internally by other functions.\n     *@param _adr Account address that needs to be set into another status\n     *@param _status The corresponding membershipStatus, as per defined in the Accessible.sol\n     */\n    function setMembershipStatus(address _adr, uint _status) private returns (bool) {\n    //@TODO Need to compare the gas cost with hard-coded lines.\n        membershipList[_adr] = membershipStatus(_status);\n        emit ChangeInMembershipStatus(msg.sender, _status);\n        return true;\n    }\n\n    /**\n     *@title Add another whitelister. \n     *@dev   Only delegate has the right to add another whitelister.\n     *@notice The new whitelister does not need to be a member of the DAAS. Theoretically, delegate can also take over the role of whitelister.\n     *@param _adr The address of the new whitelister\n     */\n    function addWhitelister(address _adr) public delegateOnly returns (bool) {\n        require(isWhitelister(_adr) == false);\n        whitelisterList[whitelisterListLength] = _adr;\n        whitelisterListLength++;\n        // whitelisterList.push(_adr);\n        emit ChangeInWhitelister(_adr,true);\n        return true;\n    }\n\n    /**\n     *@title Remove whitelister\n     *@notice This action can only be called by delegate. Firstly, check the length of the whitelister's list.\n     */\n    function removeWhitelister(address _adr) public delegateOnly returns (bool) {\n        require(isWhitelister(_adr) == true);\n        require(whitelisterListLength > MINIMUM_WHITELISTER);\n\n        for (uint i = 0; i < whitelisterListLength-1; i++) {\n            if (whitelisterList[i] == _adr) {\n                break;\n            }\n        }\n        if (i != whitelisterListLength-1) {\n            whitelisterList[i] = whitelisterList[whitelisterListLength-1];\n        }\n        whitelisterListLength--;\n        emit ChangeInWhitelister(_adr,false);\n        return true;\n    }\n\n    /**\n     *@notice Whitelisters can give their approvals regarding the application of new members\n     *@dev Check whether add a modifier, if isRequesting is implemented as modifier\n     */\n    function whitelistMember(address _adr) public whitelisterOnly returns (bool) {\n        require(membershipList[_adr] == membershipStatus.requesting || (membershipList[_adr] == membershipStatus.whitelistedByOne && firstWhiteLister[_adr] != msg.sender));\n        if (membershipList[_adr] == membershipStatus.requesting) {\n            membershipList[_adr] = membershipStatus.whitelistedByOne;\n            firstWhiteLister[_adr] = msg.sender;\n            emit ChangeInMembershipStatus(_adr, uint(membershipStatus.whitelistedByOne));\n        } else {\n            membershipList[_adr] = membershipStatus.whitelistedByTwo;\n            emit ChangeInMembershipStatus(_adr, uint(membershipStatus.whitelistedByTwo));\n        }\n        return true;\n    }\n\n    // /**\n    //  *@notice To pay membership if needed. If the person is not a member the transaction cannot pass through.\n    //  *@dev Evaluate how to define the membership unit price. Whether hardcoded or not / In which form: identical price for all or depending on the membershipStatus.\n    //  *     Link to the fallback function. \n    //  *     When the person or entity is a member or ready to be a member, it is allowed to deposit money in to the contract. Then contract transfer money to the wallet address.\n    //  */\n    // function payMembership() public payable returns (bool) {\n    //     require(msg.value >= personalContribution);\n\n    //     // call function of treasuryInterface and forward the money.\n    // }\n\n    function addNewMember(address _newMember) public returns (bool) {   //treasuryOnly\n        require(msg.sender == treasuryAdr);\n        require(membershipList[_newMember] == membershipStatus.whitelistedByTwo);\n        membershipList[_newMember] = membershipStatus.isMember;\n        headcount++;\n    }\n    \n    // /**\n    //  *@notice Whether need to move to the wallet contract\n    //  */\n    // function enablePayout() public returns (bool) {\n    // //@TODO Should be called by proposal contract when the proposal is passed with success.\n    // }\n\n    /**\n     *@title To remove a member from the association\n     *@notice Can only be triggered by a valid proposal or also possible for delegate to expel a member?\n     */\n    function removeMember(address _adr) public returns (bool) {\n        require(membershipList[_adr] == membershipStatus.isMember);\n    //@TODO require(verify msg.sender == purposal address) Also need to make sure that the purposal contract is actuallly pertinent to the removal of a member.\n    //@TODO refund its membership contribution?\n        membershipList[_adr] = membershipStatus.nonMember;\n        headcount--;\n        emit ChangeInMembershipStatus(_adr, uint(membershipStatus.nonMember));\n    }\n\n    /**\n     *@title Set the account address of the delegate.\n     *@dev This can only be successfully called by the GA purposal (upon sucess of voting..) \n     */\n    function setDelegate(address _adr) public returns (bool) {\n        require(msg.sender == gaManagerAdr);\n    //@TODO require(verify msg.sender == GA purposal address)\n        require(membershipList[_adr] == membershipStatus.isMember);\n        emit ChangeInDelegate(delegate, true);\n    }\n\n    /**\n     *@notice To see the membership status of a particular address\n     *@param _adr The address of the to-be-checked account\n     */\n    function getMembershipStatus(address _adr) public view returns (uint) {\n        return uint256(membershipList[_adr]);\n    }\n\n    function expelMember(bytes32 _proposalID) public returns (bool) {\n        // upon proposal success\n        require(proposalGate.getProposalFinalResult(_proposalID));\n        // request is dissolve\n        require(proposalGate.checkActionIsExpel(_proposalID));\n        address _expelledMember;\n        _expelledMember = proposalGate.getProposalProposedAdr(_proposalID);\n        // Cannot expel delegate\n        require(_expelledMember != delegate);\n        membershipList[_expelledMember] = membershipStatus.nonMember;\n        return true;\n    }\n\n    /**\n     *@notice Get important information.\n     */\n    function getDelegate() public view returns (address) {\n        return delegate;\n    }\n\n    function checkIsMember(address _adr) external view returns (bool) {\n        return (membershipList[_adr] == membershipStatus.isMember);\n    }\n\n    function checkIsDelegate(address _adr) external view returns (bool) {\n        return (delegate == _adr);\n    }\n\n    function checkIsWhitelistedByTwo(address _adr) external view returns (bool) {\n        return (membershipList[_adr] == membershipStatus.whitelistedByTwo);\n    }\n\n    function reachDesiredValue(uint256 _value) external view returns (bool) {\n        if (_value < personalContribution) {\n            return false;\n        } else {\n            return true;\n        }\n    }\n\n    function hasDelegate() external view returns (bool) {\n        return (delegate != 0x0);\n    }\n    \n    function getWhitelisterNumber() public view returns (uint256) {\n        return whitelisterListLength;\n    }\n\n    function getTotalMemberNumber() public view returns (uint256) {\n        return headcount;\n    }\n}",
  "sourcePath": "C:\\Users\\vasil\\OneDrive\\Documents\\02_e-swissolar\\02_prj\\Truffle-React-ReFiDAO-Sandbox\\backend\\contracts\\Membership.sol",
  "compiler": {
    "name": "solc",
    "version": "0.4.26+commit.4563c3fc.Emscripten.clang"
  },
  "schemaVersion": "3.4.4",
  "updatedAt": "2022-08-09T20:27:20.017Z",
  "networkType": "ethereum",
  "devdoc": {
    "methods": {
      "renounceOwnership()": {
        "details": "Allows the current owner to relinquish control of the contract."
      },
      "transferOwnership(address)": {
        "details": "Allows the current owner to transfer control of the contract to a newOwner.",
        "params": {
          "_newOwner": "The address to transfer ownership to."
        }
      }
    }
  },
  "userdoc": {
    "methods": {
      "addWhitelister(address)": {
        "notice": "title Add another whitelister.  dev   Only delegate has the right to add another whitelister. notice The new whitelister does not need to be a member of the DAAS. Theoretically, delegate can also take over the role of whitelister. param _adr The address of the new whitelister"
      },
      "getDelegate()": {
        "notice": "notice Get important information."
      },
      "getMembershipStatus(address)": {
        "notice": "notice To see the membership status of a particular address param _adr The address of the to-be-checked account"
      },
      "removeMember(address)": {
        "notice": "title To remove a member from the association notice Can only be triggered by a valid proposal or also possible for delegate to expel a member?"
      },
      "removeWhitelister(address)": {
        "notice": "title Remove whitelister notice This action can only be called by delegate. Firstly, check the length of the whitelister's list."
      },
      "renounceOwnership()": {
        "notice": "Renouncing to ownership will leave the contract without an owner. It will not be possible to call the functions with the `onlyOwner` modifier anymore."
      },
      "requestMembership()": {
        "notice": "title A non-member requests the membership from the DAAS. notice Set the status of the member into requesting if the particular account has not yet done the request. "
      },
      "setDelegate(address)": {
        "notice": "title Set the account address of the delegate. dev This can only be successfully called by the GA purposal (upon sucess of voting..) "
      },
      "whitelistMember(address)": {
        "notice": "notice Whitelisters can give their approvals regarding the application of new members dev Check whether add a modifier, if isRequesting is implemented as modifier"
      }
    }
  }
}