{
  "contractName": "ProposalManager",
  "abi": [
    {
      "constant": true,
      "inputs": [
        {
          "name": "_proposalID",
          "type": "bytes32"
        }
      ],
      "name": "getProposalType",
      "outputs": [
        {
          "name": "",
          "type": "bool"
        }
      ],
      "payable": false,
      "stateMutability": "view",
      "type": "function"
    },
    {
      "constant": true,
      "inputs": [
        {
          "name": "",
          "type": "uint256"
        }
      ],
      "name": "actionQuorum",
      "outputs": [
        {
          "name": "dependency",
          "type": "bool"
        },
        {
          "name": "participantNumerator",
          "type": "uint256"
        },
        {
          "name": "participantDenominator",
          "type": "uint256"
        },
        {
          "name": "supporterNumerator",
          "type": "uint256"
        },
        {
          "name": "supporterDenominator",
          "type": "uint256"
        }
      ],
      "payable": false,
      "stateMutability": "view",
      "type": "function"
    },
    {
      "constant": true,
      "inputs": [
        {
          "name": "",
          "type": "bytes32"
        }
      ],
      "name": "proposalList",
      "outputs": [
        {
          "name": "proposalID",
          "type": "bytes32"
        },
        {
          "name": "shortDescription",
          "type": "bytes32"
        },
        {
          "name": "startingTime",
          "type": "uint256"
        },
        {
          "name": "endingTime",
          "type": "uint256"
        },
        {
          "name": "concludeStatus",
          "type": "bool"
        },
        {
          "name": "finalResult",
          "type": "bool"
        },
        {
          "name": "proposalType",
          "type": "bool"
        }
      ],
      "payable": false,
      "stateMutability": "view",
      "type": "function"
    },
    {
      "constant": true,
      "inputs": [],
      "name": "accessibleGate",
      "outputs": [
        {
          "name": "",
          "type": "address"
        }
      ],
      "payable": false,
      "stateMutability": "view",
      "type": "function"
    },
    {
      "constant": true,
      "inputs": [
        {
          "name": "_proposalID",
          "type": "bytes32"
        }
      ],
      "name": "isProposalVotable",
      "outputs": [
        {
          "name": "",
          "type": "bool"
        }
      ],
      "payable": false,
      "stateMutability": "view",
      "type": "function"
    },
    {
      "constant": false,
      "inputs": [],
      "name": "renounceOwnership",
      "outputs": [],
      "payable": false,
      "stateMutability": "nonpayable",
      "type": "function"
    },
    {
      "constant": true,
      "inputs": [],
      "name": "numTotalProposals",
      "outputs": [
        {
          "name": "",
          "type": "uint256"
        }
      ],
      "payable": false,
      "stateMutability": "view",
      "type": "function"
    },
    {
      "constant": true,
      "inputs": [
        {
          "name": "",
          "type": "uint256"
        }
      ],
      "name": "limitedVotingTime",
      "outputs": [
        {
          "name": "",
          "type": "uint256"
        }
      ],
      "payable": false,
      "stateMutability": "view",
      "type": "function"
    },
    {
      "constant": true,
      "inputs": [
        {
          "name": "_proposalID",
          "type": "bytes32"
        }
      ],
      "name": "isProposalConcluded",
      "outputs": [
        {
          "name": "",
          "type": "bool"
        }
      ],
      "payable": false,
      "stateMutability": "view",
      "type": "function"
    },
    {
      "constant": true,
      "inputs": [],
      "name": "owner",
      "outputs": [
        {
          "name": "",
          "type": "address"
        }
      ],
      "payable": false,
      "stateMutability": "view",
      "type": "function"
    },
    {
      "constant": true,
      "inputs": [
        {
          "name": "",
          "type": "bytes32"
        }
      ],
      "name": "gaProposalAdditionalsList",
      "outputs": [
        {
          "name": "actionType",
          "type": "uint8"
        },
        {
          "name": "candidate",
          "type": "address"
        },
        {
          "name": "proposedGADate",
          "type": "uint256"
        },
        {
          "name": "proposedStatute",
          "type": "bytes32"
        },
        {
          "name": "internalWallet",
          "type": "address"
        },
        {
          "name": "externalWallet",
          "type": "address"
        }
      ],
      "payable": false,
      "stateMutability": "view",
      "type": "function"
    },
    {
      "constant": true,
      "inputs": [
        {
          "name": "_proposalID",
          "type": "bytes32"
        }
      ],
      "name": "isProposalConcludable",
      "outputs": [
        {
          "name": "",
          "type": "bool"
        }
      ],
      "payable": false,
      "stateMutability": "view",
      "type": "function"
    },
    {
      "constant": true,
      "inputs": [],
      "name": "votesForDelegateProposal",
      "outputs": [
        {
          "name": "participantNum",
          "type": "uint256"
        }
      ],
      "payable": false,
      "stateMutability": "view",
      "type": "function"
    },
    {
      "constant": true,
      "inputs": [
        {
          "name": "",
          "type": "bytes32"
        }
      ],
      "name": "proposalAdditionalsList",
      "outputs": [
        {
          "name": "destinationAddress",
          "type": "address"
        },
        {
          "name": "targetAmount",
          "type": "uint256"
        },
        {
          "name": "allowExternalDeposition",
          "type": "bool"
        }
      ],
      "payable": false,
      "stateMutability": "view",
      "type": "function"
    },
    {
      "constant": true,
      "inputs": [
        {
          "name": "",
          "type": "bytes32"
        }
      ],
      "name": "votesForEachProposal",
      "outputs": [
        {
          "name": "participantNum",
          "type": "uint256"
        },
        {
          "name": "yesNum",
          "type": "uint256"
        },
        {
          "name": "abstainNum",
          "type": "uint256"
        }
      ],
      "payable": false,
      "stateMutability": "view",
      "type": "function"
    },
    {
      "constant": true,
      "inputs": [],
      "name": "gaManager",
      "outputs": [
        {
          "name": "",
          "type": "address"
        }
      ],
      "payable": false,
      "stateMutability": "view",
      "type": "function"
    },
    {
      "constant": true,
      "inputs": [],
      "name": "daaGate",
      "outputs": [
        {
          "name": "",
          "type": "address"
        }
      ],
      "payable": false,
      "stateMutability": "view",
      "type": "function"
    },
    {
      "constant": true,
      "inputs": [
        {
          "name": "_proposalID",
          "type": "bytes32"
        }
      ],
      "name": "isProposalNotEndYet",
      "outputs": [
        {
          "name": "",
          "type": "bool"
        }
      ],
      "payable": false,
      "stateMutability": "view",
      "type": "function"
    },
    {
      "constant": false,
      "inputs": [
        {
          "name": "_newOwner",
          "type": "address"
        }
      ],
      "name": "transferOwnership",
      "outputs": [],
      "payable": false,
      "stateMutability": "nonpayable",
      "type": "function"
    },
    {
      "constant": true,
      "inputs": [
        {
          "name": "_proposalID",
          "type": "bytes32"
        }
      ],
      "name": "getProposalFinalResult",
      "outputs": [
        {
          "name": "",
          "type": "bool"
        }
      ],
      "payable": false,
      "stateMutability": "view",
      "type": "function"
    },
    {
      "inputs": [
        {
          "name": "_membershipAdr",
          "type": "address"
        },
        {
          "name": "timeLimit_GAGDate",
          "type": "uint256"
        },
        {
          "name": "timeLimit_ExpelMember",
          "type": "uint256"
        }
      ],
      "payable": false,
      "stateMutability": "nonpayable",
      "type": "constructor"
    },
    {
      "anonymous": false,
      "inputs": [
        {
          "indexed": true,
          "name": "ID",
          "type": "bytes32"
        },
        {
          "indexed": true,
          "name": "DestinationAddress",
          "type": "address"
        },
        {
          "indexed": false,
          "name": "Amount",
          "type": "uint256"
        },
        {
          "indexed": false,
          "name": "StartingTime",
          "type": "uint256"
        },
        {
          "indexed": false,
          "name": "EndingTime",
          "type": "uint256"
        }
      ],
      "name": "CreateProposal",
      "type": "event"
    },
    {
      "anonymous": false,
      "inputs": [
        {
          "indexed": true,
          "name": "ID",
          "type": "bytes32"
        },
        {
          "indexed": true,
          "name": "Action",
          "type": "uint8"
        }
      ],
      "name": "CreateGAProposal",
      "type": "event"
    },
    {
      "anonymous": false,
      "inputs": [
        {
          "indexed": true,
          "name": "ID",
          "type": "bytes32"
        },
        {
          "indexed": true,
          "name": "Concluder",
          "type": "address"
        },
        {
          "indexed": false,
          "name": "AtTime",
          "type": "uint256"
        },
        {
          "indexed": false,
          "name": "FinalResult",
          "type": "bool"
        }
      ],
      "name": "ConcludeProposal",
      "type": "event"
    },
    {
      "anonymous": false,
      "inputs": [
        {
          "indexed": true,
          "name": "previousOwner",
          "type": "address"
        }
      ],
      "name": "OwnershipRenounced",
      "type": "event"
    },
    {
      "anonymous": false,
      "inputs": [
        {
          "indexed": true,
          "name": "previousOwner",
          "type": "address"
        },
        {
          "indexed": true,
          "name": "newOwner",
          "type": "address"
        }
      ],
      "name": "OwnershipTransferred",
      "type": "event"
    },
    {
      "constant": false,
      "inputs": [
        {
          "name": "_gaManager",
          "type": "address"
        },
        {
          "name": "_daa",
          "type": "address"
        }
      ],
      "name": "linkContract",
      "outputs": [],
      "payable": false,
      "stateMutability": "nonpayable",
      "type": "function"
    },
    {
      "constant": false,
      "inputs": [
        {
          "name": "_newAccessible",
          "type": "address"
        }
      ],
      "name": "updateMembershipContractAddress",
      "outputs": [],
      "payable": false,
      "stateMutability": "nonpayable",
      "type": "function"
    },
    {
      "constant": false,
      "inputs": [
        {
          "name": "_newGA",
          "type": "address"
        }
      ],
      "name": "updateGAContractAddress",
      "outputs": [],
      "payable": false,
      "stateMutability": "nonpayable",
      "type": "function"
    },
    {
      "constant": false,
      "inputs": [
        {
          "name": "_proposalID",
          "type": "bytes32"
        },
        {
          "name": "_shortDescription",
          "type": "bytes32"
        },
        {
          "name": "_destinationAddress",
          "type": "address"
        },
        {
          "name": "_targetAmount",
          "type": "uint256"
        },
        {
          "name": "_startingTime",
          "type": "uint256"
        },
        {
          "name": "_duration",
          "type": "uint256"
        },
        {
          "name": "_externalHelp",
          "type": "bool"
        }
      ],
      "name": "createProposal",
      "outputs": [
        {
          "name": "",
          "type": "bool"
        }
      ],
      "payable": false,
      "stateMutability": "nonpayable",
      "type": "function"
    },
    {
      "constant": false,
      "inputs": [
        {
          "name": "_proposalID",
          "type": "bytes32"
        },
        {
          "name": "_shortDescription",
          "type": "bytes32"
        }
      ],
      "name": "createDelegateCandidancyProposal",
      "outputs": [
        {
          "name": "",
          "type": "bool"
        }
      ],
      "payable": false,
      "stateMutability": "nonpayable",
      "type": "function"
    },
    {
      "constant": false,
      "inputs": [
        {
          "name": "_proposalID",
          "type": "bytes32"
        },
        {
          "name": "_shortDescription",
          "type": "bytes32"
        },
        {
          "name": "_proposedTime",
          "type": "uint256"
        },
        {
          "name": "_votingStarts",
          "type": "uint256"
        }
      ],
      "name": "createGADateProposal",
      "outputs": [
        {
          "name": "",
          "type": "bool"
        }
      ],
      "payable": false,
      "stateMutability": "nonpayable",
      "type": "function"
    },
    {
      "constant": false,
      "inputs": [
        {
          "name": "_proposalID",
          "type": "bytes32"
        },
        {
          "name": "_shortDescription",
          "type": "bytes32"
        }
      ],
      "name": "createDissolutionProposal",
      "outputs": [
        {
          "name": "",
          "type": "bool"
        }
      ],
      "payable": false,
      "stateMutability": "nonpayable",
      "type": "function"
    },
    {
      "constant": false,
      "inputs": [
        {
          "name": "_proposalID",
          "type": "bytes32"
        },
        {
          "name": "_shortDescription",
          "type": "bytes32"
        },
        {
          "name": "_newHash",
          "type": "bytes32"
        }
      ],
      "name": "createUpdateStatuteProposal",
      "outputs": [
        {
          "name": "",
          "type": "bool"
        }
      ],
      "payable": false,
      "stateMutability": "nonpayable",
      "type": "function"
    },
    {
      "constant": false,
      "inputs": [
        {
          "name": "_proposalID",
          "type": "bytes32"
        },
        {
          "name": "_shortDescription",
          "type": "bytes32"
        },
        {
          "name": "_targetMember",
          "type": "address"
        },
        {
          "name": "_startingTime",
          "type": "uint256"
        }
      ],
      "name": "createExpelMemberProposal",
      "outputs": [
        {
          "name": "",
          "type": "bool"
        }
      ],
      "payable": false,
      "stateMutability": "nonpayable",
      "type": "function"
    },
    {
      "constant": false,
      "inputs": [
        {
          "name": "_proposalID",
          "type": "bytes32"
        },
        {
          "name": "_shortDescription",
          "type": "bytes32"
        },
        {
          "name": "_internalWallet",
          "type": "address"
        },
        {
          "name": "_externalWallet",
          "type": "address"
        }
      ],
      "name": "createUpdateWalletProposal",
      "outputs": [
        {
          "name": "",
          "type": "bool"
        }
      ],
      "payable": false,
      "stateMutability": "nonpayable",
      "type": "function"
    },
    {
      "constant": false,
      "inputs": [
        {
          "name": "_proposalID",
          "type": "bytes32"
        },
        {
          "name": "_answer",
          "type": "uint256"
        }
      ],
      "name": "voteForProposal",
      "outputs": [
        {
          "name": "",
          "type": "bool"
        }
      ],
      "payable": false,
      "stateMutability": "nonpayable",
      "type": "function"
    },
    {
      "constant": false,
      "inputs": [
        {
          "name": "_proposalID",
          "type": "bytes32"
        },
        {
          "name": "_answer",
          "type": "uint8"
        }
      ],
      "name": "voteForDelegate",
      "outputs": [
        {
          "name": "",
          "type": "bool"
        }
      ],
      "payable": false,
      "stateMutability": "nonpayable",
      "type": "function"
    },
    {
      "constant": false,
      "inputs": [
        {
          "name": "_proposalID",
          "type": "bytes32"
        },
        {
          "name": "_gaIndex",
          "type": "uint256"
        }
      ],
      "name": "setProposalToGA",
      "outputs": [
        {
          "name": "",
          "type": "bool"
        }
      ],
      "payable": false,
      "stateMutability": "nonpayable",
      "type": "function"
    },
    {
      "constant": false,
      "inputs": [
        {
          "name": "_proposalID",
          "type": "bytes32"
        }
      ],
      "name": "concludeProposal",
      "outputs": [
        {
          "name": "",
          "type": "bool"
        }
      ],
      "payable": false,
      "stateMutability": "nonpayable",
      "type": "function"
    },
    {
      "constant": true,
      "inputs": [
        {
          "name": "_proposalID",
          "type": "bytes32"
        },
        {
          "name": "_adr",
          "type": "address"
        }
      ],
      "name": "getVoteForProposal",
      "outputs": [
        {
          "name": "",
          "type": "uint256"
        }
      ],
      "payable": false,
      "stateMutability": "view",
      "type": "function"
    },
    {
      "constant": true,
      "inputs": [
        {
          "name": "_proposalID",
          "type": "bytes32"
        }
      ],
      "name": "canExternalParticipate",
      "outputs": [
        {
          "name": "",
          "type": "bool"
        }
      ],
      "payable": false,
      "stateMutability": "view",
      "type": "function"
    },
    {
      "constant": true,
      "inputs": [
        {
          "name": "_proposalID",
          "type": "bytes32"
        }
      ],
      "name": "getProposaldestinationAddress",
      "outputs": [
        {
          "name": "",
          "type": "address"
        }
      ],
      "payable": false,
      "stateMutability": "view",
      "type": "function"
    },
    {
      "constant": true,
      "inputs": [
        {
          "name": "_proposalID",
          "type": "bytes32"
        }
      ],
      "name": "getProposalStatute",
      "outputs": [
        {
          "name": "",
          "type": "bytes32"
        }
      ],
      "payable": false,
      "stateMutability": "view",
      "type": "function"
    },
    {
      "constant": true,
      "inputs": [
        {
          "name": "_proposalID",
          "type": "bytes32"
        }
      ],
      "name": "getProposalAllowance",
      "outputs": [
        {
          "name": "",
          "type": "uint256"
        }
      ],
      "payable": false,
      "stateMutability": "view",
      "type": "function"
    },
    {
      "constant": true,
      "inputs": [
        {
          "name": "_proposalID",
          "type": "bytes32"
        }
      ],
      "name": "getProposalProposedWalletAddress",
      "outputs": [
        {
          "name": "",
          "type": "address"
        },
        {
          "name": "",
          "type": "address"
        }
      ],
      "payable": false,
      "stateMutability": "view",
      "type": "function"
    },
    {
      "constant": true,
      "inputs": [
        {
          "name": "_proposalID",
          "type": "bytes32"
        }
      ],
      "name": "getProposalProposedDate",
      "outputs": [
        {
          "name": "",
          "type": "uint256"
        }
      ],
      "payable": false,
      "stateMutability": "view",
      "type": "function"
    },
    {
      "constant": true,
      "inputs": [
        {
          "name": "_proposalID",
          "type": "bytes32"
        }
      ],
      "name": "getProposalProposedAdr",
      "outputs": [
        {
          "name": "",
          "type": "address"
        }
      ],
      "payable": false,
      "stateMutability": "view",
      "type": "function"
    },
    {
      "constant": true,
      "inputs": [
        {
          "name": "_proposalID",
          "type": "bytes32"
        }
      ],
      "name": "checkActionIsUpdateWallet",
      "outputs": [
        {
          "name": "",
          "type": "bool"
        }
      ],
      "payable": false,
      "stateMutability": "view",
      "type": "function"
    },
    {
      "constant": true,
      "inputs": [
        {
          "name": "_proposalID",
          "type": "bytes32"
        }
      ],
      "name": "checkActionIsDissolution",
      "outputs": [
        {
          "name": "",
          "type": "bool"
        }
      ],
      "payable": false,
      "stateMutability": "view",
      "type": "function"
    },
    {
      "constant": true,
      "inputs": [
        {
          "name": "_proposalID",
          "type": "bytes32"
        }
      ],
      "name": "checkActionIsStatute",
      "outputs": [
        {
          "name": "",
          "type": "bool"
        }
      ],
      "payable": false,
      "stateMutability": "view",
      "type": "function"
    },
    {
      "constant": true,
      "inputs": [
        {
          "name": "_proposalID",
          "type": "bytes32"
        }
      ],
      "name": "checkActionIsSuccessfulGA",
      "outputs": [
        {
          "name": "",
          "type": "bool"
        }
      ],
      "payable": false,
      "stateMutability": "view",
      "type": "function"
    },
    {
      "constant": true,
      "inputs": [
        {
          "name": "_proposalID",
          "type": "bytes32"
        }
      ],
      "name": "checkActionIsExpel",
      "outputs": [
        {
          "name": "",
          "type": "bool"
        }
      ],
      "payable": false,
      "stateMutability": "view",
      "type": "function"
    }
  ],
  "bytecode": "0x60806040523480156200001157600080fd5b506040516060806200566b83398101806040528101908080519060200190929190805190602001909291908051906020019092919050505033600160006101000a81548173ffffffffffffffffffffffffffffffffffffffff021916908373ffffffffffffffffffffffffffffffffffffffff16021790555082600260006101000a81548173ffffffffffffffffffffffffffffffffffffffff021916908373ffffffffffffffffffffffffffffffffffffffff160217905550816007600060026006811115620000de57fe5b81526020019081526020016000208190555080600760006006808111156200010257fe5b81526020019081526020016000208190555060a0604051908101604052806001151581526020016000815260200160028152602001600181526020016002815250600860008060068111156200015457fe5b815260200190815260200160002060008201518160000160006101000a81548160ff0219169083151502179055506020820151816001015560408201518160020155606082015181600301556080820151816004015590505060a06040519081016040528060001515815260200160018152602001600281526020016000815260200160018152506008600060016006811115620001ee57fe5b815260200190815260200160002060008201518160000160006101000a81548160ff0219169083151502179055506020820151816001015560408201518160020155606082015181600301556080820151816004015590505060a060405190810160405280600015158152602001600181526020016005815260200160018152602001600581525060086000600260068111156200028857fe5b815260200190815260200160002060008201518160000160006101000a81548160ff0219169083151502179055506020820151816001015560408201518160020155606082015181600301556080820151816004015590505060a060405190810160405280600115158152602001600281526020016003815260200160028152602001600381525060086000600360068111156200032257fe5b815260200190815260200160002060008201518160000160006101000a81548160ff0219169083151502179055506020820151816001015560408201518160020155606082015181600301556080820151816004015590505060a06040519081016040528060011515815260200160028152602001600381526020016002815260200160038152506008600060046006811115620003bc57fe5b815260200190815260200160002060008201518160000160006101000a81548160ff0219169083151502179055506020820151816001015560408201518160020155606082015181600301556080820151816004015590505060a060405190810160405280600115158152602001600281526020016003815260200160028152602001600381525060086000600560068111156200045657fe5b815260200190815260200160002060008201518160000160006101000a81548160ff0219169083151502179055506020820151816001015560408201518160020155606082015181600301556080820151816004015590505060a06040519081016040528060011515815260200160018152602001600a815260200160028152602001600381525060086000600680811115620004ef57fe5b815260200190815260200160002060008201518160000160006101000a81548160ff02191690831515021790555060208201518160010155604082015181600201556060820151816003015560808201518160040155905050505050615110806200055b6000396000f30060806040526004361061023b576000357c0100000000000000000000000000000000000000000000000000000000900463ffffffff1680630e2f26cf1461024057806317ff4b311461028957806318091755146102d25780631883ba94146103335780631da899d81461038a57806328b8f392146103d357806329d10cc214610474578063304df5a9146104bd57806330fa63ab14610528578063324cf687146105b3578063351839c1146106065780633e4bba4f1461065d5780633e98fdc6146106aa5780633f470c511461070f57806354bf36561461075857806364d563fa1461079d578063715018a6146107f4578063728517671461080b578063732171a6146108505780637dbd4c54146108e75780638098985f1461091257806381423e7514610953578063814fde0a146109c45780638d1064c414610a0d5780638da5cb5b14610a7e5780638f225dfb14610ad5578063923ef7b714610b56578063945dbfd014610c58578063983c9a3b14610c9b578063988db79c14610cee578063a491d3e114610d51578063b140397b14610d9a578063b6b0d71214610de3578063be4194bb14610e0e578063c264190314610e64578063c68124ff14610ee7578063c9b1f80c14610f30578063ccf165e414610f83578063cfca7b3714610fcc578063d62d8f2014611070578063e0275501146110b3578063e3dec9171461110a578063e86e34ba1461116f578063ed020418146111c6578063f2fde38b1461120f578063f458664714611252578063fbfc55dc1461129b575b600080fd5b34801561024c57600080fd5b5061026f60048036038101908080356000191690602001909291905050506112e4565b604051808215151515815260200191505060405180910390f35b34801561029557600080fd5b506102b86004803603810190808035600019169060200190929190505050611318565b604051808215151515815260200191505060405180910390f35b3480156102de57600080fd5b506102fd60048036038101908080359060200190929190505050611377565b60405180861515151581526020018581526020018481526020018381526020018281526020019550505050505060405180910390f35b34801561033f57600080fd5b50610370600480360381019080803560001916906020019092919080356000191690602001909291905050506113ba565b604051808215151515815260200191505060405180910390f35b34801561039657600080fd5b506103b960048036038101908080356000191690602001909291905050506118bd565b604051808215151515815260200191505060405180910390f35b3480156103df57600080fd5b5061045a60048036038101908080356000191690602001909291908035600019169060200190929190803573ffffffffffffffffffffffffffffffffffffffff16906020019092919080359060200190929190803590602001909291908035906020019092919080351515906020019092919050505061191c565b604051808215151515815260200191505060405180910390f35b34801561048057600080fd5b506104a36004803603810190808035600019169060200190929190505050611c95565b604051808215151515815260200191505060405180910390f35b3480156104c957600080fd5b5061050e600480360381019080803560001916906020019092919080356000191690602001909291908035906020019092919080359060200190929190505050611cca565b604051808215151515815260200191505060405180910390f35b34801561053457600080fd5b5061055760048036038101908080356000191690602001909291905050506121de565b604051808860001916600019168152602001876000191660001916815260200186815260200185815260200184151515158152602001831515151581526020018215151515815260200197505050505050505060405180910390f35b3480156105bf57600080fd5b506105ec600480360381019080803560001916906020019092919080359060200190929190505050612247565b604051808215151515815260200191505060405180910390f35b34801561061257600080fd5b5061061b612554565b604051808273ffffffffffffffffffffffffffffffffffffffff1673ffffffffffffffffffffffffffffffffffffffff16815260200191505060405180910390f35b34801561066957600080fd5b5061068c600480360381019080803560001916906020019092919050505061257a565b60405180826000191660001916815260200191505060405180910390f35b3480156106b657600080fd5b506106f96004803603810190808035600019169060200190929190803573ffffffffffffffffffffffffffffffffffffffff1690602001909291905050506125a2565b6040518082815260200191505060405180910390f35b34801561071b57600080fd5b5061073e6004803603810190808035600019169060200190929190505050612620565b604051808215151515815260200191505060405180910390f35b34801561076457600080fd5b506107876004803603810190808035600019169060200190929190505050612678565b6040518082815260200191505060405180910390f35b3480156107a957600080fd5b506107da600480360381019080803560001916906020019092919080356000191690602001909291905050506126a0565b604051808215151515815260200191505060405180910390f35b34801561080057600080fd5b50610809612acf565b005b34801561081757600080fd5b5061083a6004803603810190808035600019169060200190929190505050612bd4565b6040518082815260200191505060405180910390f35b34801561085c57600080fd5b506108cd60048036038101908080356000191690602001909291908035600019169060200190929190803573ffffffffffffffffffffffffffffffffffffffff169060200190929190803573ffffffffffffffffffffffffffffffffffffffff169060200190929190505050612bfc565b604051808215151515815260200191505060405180910390f35b3480156108f357600080fd5b506108fc613073565b6040518082815260200191505060405180910390f35b34801561091e57600080fd5b5061093d60048036038101908080359060200190929190505050613079565b6040518082815260200191505060405180910390f35b34801561095f57600080fd5b506109826004803603810190808035600019169060200190929190505050613091565b604051808273ffffffffffffffffffffffffffffffffffffffff1673ffffffffffffffffffffffffffffffffffffffff16815260200191505060405180910390f35b3480156109d057600080fd5b506109f360048036038101908080356000191690602001909291905050506130d9565b604051808215151515815260200191505060405180910390f35b348015610a1957600080fd5b50610a3c600480360381019080803560001916906020019092919050505061310d565b604051808273ffffffffffffffffffffffffffffffffffffffff1673ffffffffffffffffffffffffffffffffffffffff16815260200191505060405180910390f35b348015610a8a57600080fd5b50610a93613155565b604051808273ffffffffffffffffffffffffffffffffffffffff1673ffffffffffffffffffffffffffffffffffffffff16815260200191505060405180910390f35b348015610ae157600080fd5b50610b3c60048036038101908080356000191690602001909291908035600019169060200190929190803573ffffffffffffffffffffffffffffffffffffffff1690602001909291908035906020019092919050505061317b565b604051808215151515815260200191505060405180910390f35b348015610b6257600080fd5b50610b85600480360381019080803560001916906020019092919050505061379b565b60405180876006811115610b9557fe5b60ff1681526020018673ffffffffffffffffffffffffffffffffffffffff1673ffffffffffffffffffffffffffffffffffffffff16815260200185815260200184600019166000191681526020018373ffffffffffffffffffffffffffffffffffffffff1673ffffffffffffffffffffffffffffffffffffffff1681526020018273ffffffffffffffffffffffffffffffffffffffff1673ffffffffffffffffffffffffffffffffffffffff168152602001965050505050505060405180910390f35b348015610c6457600080fd5b50610c99600480360381019080803573ffffffffffffffffffffffffffffffffffffffff169060200190929190505050613844565b005b348015610ca757600080fd5b50610cd460048036038101908080356000191690602001909291908035906020019092919050505061390a565b604051808215151515815260200191505060405180910390f35b348015610cfa57600080fd5b50610d4f600480360381019080803573ffffffffffffffffffffffffffffffffffffffff169060200190929190803573ffffffffffffffffffffffffffffffffffffffff169060200190929190505050613bc9565b005b348015610d5d57600080fd5b50610d806004803603810190808035600019169060200190929190505050613cab565b604051808215151515815260200191505060405180910390f35b348015610da657600080fd5b50610dc96004803603810190808035600019169060200190929190505050613ce4565b604051808215151515815260200191505060405180910390f35b348015610def57600080fd5b50610df861422f565b6040518082815260200191505060405180910390f35b348015610e1a57600080fd5b50610e4a6004803603810190808035600019169060200190929190803560ff16906020019092919050505061423b565b604051808215151515815260200191505060405180910390f35b348015610e7057600080fd5b50610e9360048036038101908080356000191690602001909291905050506146d1565b604051808473ffffffffffffffffffffffffffffffffffffffff1673ffffffffffffffffffffffffffffffffffffffff16815260200183815260200182151515158152602001935050505060405180910390f35b348015610ef357600080fd5b50610f166004803603810190808035600019169060200190929190505050614728565b604051808215151515815260200191505060405180910390f35b348015610f3c57600080fd5b50610f5f6004803603810190808035600019169060200190929190505050614787565b60405180848152602001838152602001828152602001935050505060405180910390f35b348015610f8f57600080fd5b50610fb260048036038101908080356000191690602001909291905050506147b1565b604051808215151515815260200191505060405180910390f35b348015610fd857600080fd5b50610ffb6004803603810190808035600019169060200190929190505050614810565b604051808373ffffffffffffffffffffffffffffffffffffffff1673ffffffffffffffffffffffffffffffffffffffff1681526020018273ffffffffffffffffffffffffffffffffffffffff1673ffffffffffffffffffffffffffffffffffffffff1681526020019250505060405180910390f35b34801561107c57600080fd5b506110b1600480360381019080803573ffffffffffffffffffffffffffffffffffffffff16906020019092919050505061489a565b005b3480156110bf57600080fd5b506110c8614960565b604051808273ffffffffffffffffffffffffffffffffffffffff1673ffffffffffffffffffffffffffffffffffffffff16815260200191505060405180910390f35b34801561111657600080fd5b50611155600480360381019080803560001916906020019092919080356000191690602001909291908035600019169060200190929190505050614986565b604051808215151515815260200191505060405180910390f35b34801561117b57600080fd5b50611184614db6565b604051808273ffffffffffffffffffffffffffffffffffffffff1673ffffffffffffffffffffffffffffffffffffffff16815260200191505060405180910390f35b3480156111d257600080fd5b506111f56004803603810190808035600019169060200190929190505050614ddc565b604051808215151515815260200191505060405180910390f35b34801561121b57600080fd5b50611250600480360381019080803573ffffffffffffffffffffffffffffffffffffffff169060200190929190505050614e18565b005b34801561125e57600080fd5b506112816004803603810190808035600019169060200190929190505050614e80565b604051808215151515815260200191505060405180910390f35b3480156112a757600080fd5b506112ca6004803603810190808035600019169060200190929190505050614ef1565b604051808215151515815260200191505060405180910390f35b6000806000836000191660001916815260200190815260200160002060040160029054906101000a900460ff169050919050565b60006005600681111561132757fe5b600a6000846000191660001916815260200190815260200160002060000160009054906101000a900460ff16600681111561135e57fe5b141561136d5760019050611372565b600090505b919050565b60086020528060005260406000206000915090508060000160009054906101000a900460ff16908060010154908060020154908060030154908060040154905085565b6000600260009054906101000a900473ffffffffffffffffffffffffffffffffffffffff1673ffffffffffffffffffffffffffffffffffffffff166321d2a573336040518263ffffffff167c0100000000000000000000000000000000000000000000000000000000028152600401808273ffffffffffffffffffffffffffffffffffffffff1673ffffffffffffffffffffffffffffffffffffffff168152602001915050602060405180830381600087803b15801561147957600080fd5b505af115801561148d573d6000803e3d6000fd5b505050506040513d60208110156114a357600080fd5b810190808051906020019092919050505015156114bf57600080fd5b6001600f6000856000191660001916815260200190815260200160002060006101000a81548160ff02191690831515021790555060e060405190810160405280846000191681526020018360001916815260200160008152602001600081526020016000151581526020016000151581526020016001151581525060008085600019166000191681526020019081526020016000206000820151816000019060001916905560208201518160010190600019169055604082015181600201556060820151816003015560808201518160040160006101000a81548160ff02191690831515021790555060a08201518160040160016101000a81548160ff02191690831515021790555060c08201518160040160026101000a81548160ff02191690831515021790555090505060c0604051908101604052806001600681111561160457fe5b81526020013373ffffffffffffffffffffffffffffffffffffffff1681526020016000815260200160008019168152602001600073ffffffffffffffffffffffffffffffffffffffff168152602001600073ffffffffffffffffffffffffffffffffffffffff16815250600a6000856000191660001916815260200190815260200160002060008201518160000160006101000a81548160ff021916908360068111156116ad57fe5b021790555060208201518160000160016101000a81548173ffffffffffffffffffffffffffffffffffffffff021916908373ffffffffffffffffffffffffffffffffffffffff160217905550604082015181600101556060820151816002019060001916905560808201518160030160006101000a81548173ffffffffffffffffffffffffffffffffffffffff021916908373ffffffffffffffffffffffffffffffffffffffff16021790555060a08201518160040160006101000a81548173ffffffffffffffffffffffffffffffffffffffff021916908373ffffffffffffffffffffffffffffffffffffffff160217905550905050600160068111156117b157fe5b83600019167f2778c8b2ffa624af94f05a0c08ea2768547ad470fb332799a60958248a8f718f60405160405180910390a3600360009054906101000a900473ffffffffffffffffffffffffffffffffffffffff1673ffffffffffffffffffffffffffffffffffffffff1663ad19f90c336040518263ffffffff167c0100000000000000000000000000000000000000000000000000000000028152600401808273ffffffffffffffffffffffffffffffffffffffff1673ffffffffffffffffffffffffffffffffffffffff168152602001915050600060405180830381600087803b15801561189f57600080fd5b505af11580156118b3573d6000803e3d6000fd5b5050505092915050565b6000600460068111156118cc57fe5b600a6000846000191660001916815260200190815260200160002060000160009054906101000a900460ff16600681111561190357fe5b14156119125760019050611917565b600090505b919050565b600080600260009054906101000a900473ffffffffffffffffffffffffffffffffffffffff1673ffffffffffffffffffffffffffffffffffffffff166321d2a573336040518263ffffffff167c0100000000000000000000000000000000000000000000000000000000028152600401808273ffffffffffffffffffffffffffffffffffffffff1673ffffffffffffffffffffffffffffffffffffffff168152602001915050602060405180830381600087803b1580156119dc57600080fd5b505af11580156119f0573d6000803e3d6000fd5b505050506040513d6020811015611a0657600080fd5b81019080805190602001909291905050501515611a2257600080fd5b83611a3e62093a80624f1a0083614f4f9092919063ffffffff16565b1515611a4957600080fd5b4286111515611a5757600080fd5b611a6a8587614f7b90919063ffffffff16565b915060e0604051908101604052808b6000191681526020018a600019168152602001878152602001838152602001600015158152602001600015158152602001600015158152506000808c600019166000191681526020019081526020016000206000820151816000019060001916905560208201518160010190600019169055604082015181600201556060820151816003015560808201518160040160006101000a81548160ff02191690831515021790555060a08201518160040160016101000a81548160ff02191690831515021790555060c08201518160040160026101000a81548160ff0219169083151502179055509050506060604051908101604052808973ffffffffffffffffffffffffffffffffffffffff168152602001888152602001851515815250600960008c6000191660001916815260200190815260200160002060008201518160000160006101000a81548173ffffffffffffffffffffffffffffffffffffffff021916908373ffffffffffffffffffffffffffffffffffffffff1602179055506020820151816001015560408201518160020160006101000a81548160ff0219169083151502179055509050508773ffffffffffffffffffffffffffffffffffffffff168a600019167f9d9114cb0be22d75faf53c34669748220b8090363bb7dbbfcdf373f58cc6371d89898660405180848152602001838152602001828152602001935050505060405180910390a35050979650505050505050565b600060096000836000191660001916815260200190815260200160002060020160009054906101000a900460ff169050919050565b600080600260009054906101000a900473ffffffffffffffffffffffffffffffffffffffff1673ffffffffffffffffffffffffffffffffffffffff166321d2a573336040518263ffffffff167c0100000000000000000000000000000000000000000000000000000000028152600401808273ffffffffffffffffffffffffffffffffffffffff1673ffffffffffffffffffffffffffffffffffffffff168152602001915050602060405180830381600087803b158015611d8a57600080fd5b505af1158015611d9e573d6000803e3d6000fd5b505050506040513d6020811015611db457600080fd5b81019080805190602001909291905050501515611dd057600080fd5b600360009054906101000a900473ffffffffffffffffffffffffffffffffffffffff1673ffffffffffffffffffffffffffffffffffffffff1663ccefcc2c8560016040518363ffffffff167c0100000000000000000000000000000000000000000000000000000000028152600401808381526020018215151515815260200192505050602060405180830381600087803b158015611e6e57600080fd5b505af1158015611e82573d6000803e3d6000fd5b505050506040513d6020811015611e9857600080fd5b81019080805190602001909291905050501515611eb457600080fd5b611ee66007600060026006811115611ec857fe5b81526020019081526020016000205484614f7b90919063ffffffff16565b905060e06040519081016040528087600019168152602001866000191681526020018481526020018281526020016000151581526020016000151581526020016001151581525060008088600019166000191681526020019081526020016000206000820151816000019060001916905560208201518160010190600019169055604082015181600201556060820151816003015560808201518160040160006101000a81548160ff02191690831515021790555060a08201518160040160016101000a81548160ff02191690831515021790555060c08201518160040160026101000a81548160ff02191690831515021790555090505060c06040519081016040528060026006811115611ff757fe5b8152602001600073ffffffffffffffffffffffffffffffffffffffff16815260200185815260200160008019168152602001600073ffffffffffffffffffffffffffffffffffffffff168152602001600073ffffffffffffffffffffffffffffffffffffffff16815250600a6000886000191660001916815260200190815260200160002060008201518160000160006101000a81548160ff021916908360068111156120a057fe5b021790555060208201518160000160016101000a81548173ffffffffffffffffffffffffffffffffffffffff021916908373ffffffffffffffffffffffffffffffffffffffff160217905550604082015181600101556060820151816002019060001916905560808201518160030160006101000a81548173ffffffffffffffffffffffffffffffffffffffff021916908373ffffffffffffffffffffffffffffffffffffffff16021790555060a08201518160040160006101000a81548173ffffffffffffffffffffffffffffffffffffffff021916908373ffffffffffffffffffffffffffffffffffffffff160217905550905050600260068111156121a457fe5b86600019167f2778c8b2ffa624af94f05a0c08ea2768547ad470fb332799a60958248a8f718f60405160405180910390a350949350505050565b60006020528060005260406000206000915090508060000154908060010154908060020154908060030154908060040160009054906101000a900460ff16908060040160019054906101000a900460ff16908060040160029054906101000a900460ff16905087565b6000806000600260009054906101000a900473ffffffffffffffffffffffffffffffffffffffff1673ffffffffffffffffffffffffffffffffffffffff166321d2a573336040518263ffffffff167c0100000000000000000000000000000000000000000000000000000000028152600401808273ffffffffffffffffffffffffffffffffffffffff1673ffffffffffffffffffffffffffffffffffffffff168152602001915050602060405180830381600087803b15801561230957600080fd5b505af115801561231d573d6000803e3d6000fd5b505050506040513d602081101561233357600080fd5b8101908080519060200190929190505050151561234f57600080fd5b60011515600f6000876000191660001916815260200190815260200160002060009054906101000a900460ff16151514151561238a57600080fd5b6001600681111561239757fe5b600a6000876000191660001916815260200190815260200160002060000160009054906101000a900460ff1660068111156123ce57fe5b141515156123db57600080fd5b600360009054906101000a900473ffffffffffffffffffffffffffffffffffffffff1673ffffffffffffffffffffffffffffffffffffffff1663c64d2810856040518263ffffffff167c010000000000000000000000000000000000000000000000000000000002815260040180828152602001915050602060405180830381600087803b15801561246c57600080fd5b505af1158015612480573d6000803e3d6000fd5b505050506040513d602081101561249657600080fd5b81019080805190602001909291905050509150600082141515156124b957600080fd5b6124ce61025883614f7b90919063ffffffff16565b905081600080876000191660001916815260200190815260200160002060020181905550806000808760001916600019168152602001908152602001600020600301819055506000600f6000876000191660001916815260200190815260200160002060006101000a81548160ff02191690831515021790555060019250505092915050565b600260009054906101000a900473ffffffffffffffffffffffffffffffffffffffff1681565b6000600a60008360001916600019168152602001908152602001600020600201549050919050565b600060066000846000191660001916815260200190815260200160002060030160008373ffffffffffffffffffffffffffffffffffffffff1673ffffffffffffffffffffffffffffffffffffffff16815260200190815260200160002060009054906101000a900460ff16600381111561261857fe5b905092915050565b600061267160008084600019166000191681526020019081526020016000206002015460008085600019166000191681526020019081526020016000206003015442614f4f9092919063ffffffff16565b9050919050565b6000600a60008360001916600019168152602001908152602001600020600101549050919050565b6000600260009054906101000a900473ffffffffffffffffffffffffffffffffffffffff1673ffffffffffffffffffffffffffffffffffffffff166321d2a573336040518263ffffffff167c0100000000000000000000000000000000000000000000000000000000028152600401808273ffffffffffffffffffffffffffffffffffffffff1673ffffffffffffffffffffffffffffffffffffffff168152602001915050602060405180830381600087803b15801561275f57600080fd5b505af1158015612773573d6000803e3d6000fd5b505050506040513d602081101561278957600080fd5b810190808051906020019092919050505015156127a557600080fd5b6001600f6000856000191660001916815260200190815260200160002060006101000a81548160ff02191690831515021790555060e060405190810160405280846000191681526020018360001916815260200160008152602001600081526020016000151581526020016000151581526020016001151581525060008085600019166000191681526020019081526020016000206000820151816000019060001916905560208201518160010190600019169055604082015181600201556060820151816003015560808201518160040160006101000a81548160ff02191690831515021790555060a08201518160040160016101000a81548160ff02191690831515021790555060c08201518160040160026101000a81548160ff02191690831515021790555090505060c060405190810160405280600360068111156128ea57fe5b8152602001600073ffffffffffffffffffffffffffffffffffffffff1681526020016000815260200160008019168152602001600073ffffffffffffffffffffffffffffffffffffffff168152602001600073ffffffffffffffffffffffffffffffffffffffff16815250600a6000856000191660001916815260200190815260200160002060008201518160000160006101000a81548160ff0219169083600681111561299457fe5b021790555060208201518160000160016101000a81548173ffffffffffffffffffffffffffffffffffffffff021916908373ffffffffffffffffffffffffffffffffffffffff160217905550604082015181600101556060820151816002019060001916905560808201518160030160006101000a81548173ffffffffffffffffffffffffffffffffffffffff021916908373ffffffffffffffffffffffffffffffffffffffff16021790555060a08201518160040160006101000a81548173ffffffffffffffffffffffffffffffffffffffff021916908373ffffffffffffffffffffffffffffffffffffffff16021790555090505060036006811115612a9857fe5b83600019167f2778c8b2ffa624af94f05a0c08ea2768547ad470fb332799a60958248a8f718f60405160405180910390a392915050565b600160009054906101000a900473ffffffffffffffffffffffffffffffffffffffff1673ffffffffffffffffffffffffffffffffffffffff163373ffffffffffffffffffffffffffffffffffffffff16141515612b2b57600080fd5b600160009054906101000a900473ffffffffffffffffffffffffffffffffffffffff1673ffffffffffffffffffffffffffffffffffffffff167ff8df31144d9c2f0f6b59d69b8b98abd5459d07f2742c4df920b25aae33c6482060405160405180910390a26000600160006101000a81548173ffffffffffffffffffffffffffffffffffffffff021916908373ffffffffffffffffffffffffffffffffffffffff160217905550565b6000600960008360001916600019168152602001908152602001600020600101549050919050565b6000600260009054906101000a900473ffffffffffffffffffffffffffffffffffffffff1673ffffffffffffffffffffffffffffffffffffffff166321d2a573336040518263ffffffff167c0100000000000000000000000000000000000000000000000000000000028152600401808273ffffffffffffffffffffffffffffffffffffffff1673ffffffffffffffffffffffffffffffffffffffff168152602001915050602060405180830381600087803b158015612cbb57600080fd5b505af1158015612ccf573d6000803e3d6000fd5b505050506040513d6020811015612ce557600080fd5b81019080805190602001909291905050501515612d0157600080fd5b60008373ffffffffffffffffffffffffffffffffffffffff16141580612d3e575060008273ffffffffffffffffffffffffffffffffffffffff1614155b1515612d4957600080fd5b60e060405190810160405280866000191681526020018560001916815260200160008152602001600081526020016000151581526020016000151581526020016001151581525060008087600019166000191681526020019081526020016000206000820151816000019060001916905560208201518160010190600019169055604082015181600201556060820151816003015560808201518160040160006101000a81548160ff02191690831515021790555060a08201518160040160016101000a81548160ff02191690831515021790555060c08201518160040160026101000a81548160ff02191690831515021790555090505060c06040519081016040528060056006811115612e5a57fe5b8152602001600073ffffffffffffffffffffffffffffffffffffffff16815260200160008152602001600080191681526020018473ffffffffffffffffffffffffffffffffffffffff1681526020018373ffffffffffffffffffffffffffffffffffffffff16815250600a6000876000191660001916815260200190815260200160002060008201518160000160006101000a81548160ff02191690836006811115612f0257fe5b021790555060208201518160000160016101000a81548173ffffffffffffffffffffffffffffffffffffffff021916908373ffffffffffffffffffffffffffffffffffffffff160217905550604082015181600101556060820151816002019060001916905560808201518160030160006101000a81548173ffffffffffffffffffffffffffffffffffffffff021916908373ffffffffffffffffffffffffffffffffffffffff16021790555060a08201518160040160006101000a81548173ffffffffffffffffffffffffffffffffffffffff021916908373ffffffffffffffffffffffffffffffffffffffff1602179055509050506001600f6000876000191660001916815260200190815260200160002060006101000a81548160ff0219169083151502179055506005600681111561303a57fe5b85600019167f2778c8b2ffa624af94f05a0c08ea2768547ad470fb332799a60958248a8f718f60405160405180910390a3949350505050565b60055481565b60076020528060005260406000206000915090505481565b600060096000836000191660001916815260200190815260200160002060000160009054906101000a900473ffffffffffffffffffffffffffffffffffffffff169050919050565b6000806000836000191660001916815260200190815260200160002060040160009054906101000a900460ff169050919050565b6000600a6000836000191660001916815260200190815260200160002060000160019054906101000a900473ffffffffffffffffffffffffffffffffffffffff169050919050565b600160009054906101000a900473ffffffffffffffffffffffffffffffffffffffff1681565b600080600260009054906101000a900473ffffffffffffffffffffffffffffffffffffffff1673ffffffffffffffffffffffffffffffffffffffff166321d2a573336040518263ffffffff167c0100000000000000000000000000000000000000000000000000000000028152600401808273ffffffffffffffffffffffffffffffffffffffff1673ffffffffffffffffffffffffffffffffffffffff168152602001915050602060405180830381600087803b15801561323b57600080fd5b505af115801561324f573d6000803e3d6000fd5b505050506040513d602081101561326557600080fd5b8101908080519060200190929190505050151561328157600080fd5b600260009054906101000a900473ffffffffffffffffffffffffffffffffffffffff1673ffffffffffffffffffffffffffffffffffffffff166321d2a573856040518263ffffffff167c0100000000000000000000000000000000000000000000000000000000028152600401808273ffffffffffffffffffffffffffffffffffffffff1673ffffffffffffffffffffffffffffffffffffffff168152602001915050602060405180830381600087803b15801561333e57600080fd5b505af1158015613352573d6000803e3d6000fd5b505050506040513d602081101561336857600080fd5b8101908080519060200190929190505050151561338457600080fd5b60001515600260009054906101000a900473ffffffffffffffffffffffffffffffffffffffff1673ffffffffffffffffffffffffffffffffffffffff16639a3248bc866040518263ffffffff167c0100000000000000000000000000000000000000000000000000000000028152600401808273ffffffffffffffffffffffffffffffffffffffff1673ffffffffffffffffffffffffffffffffffffffff168152602001915050602060405180830381600087803b15801561344557600080fd5b505af1158015613459573d6000803e3d6000fd5b505050506040513d602081101561346f57600080fd5b8101908080519060200190929190505050151514151561348e57600080fd5b6134a462093a8084614f7b90919063ffffffff16565b905060e06040519081016040528087600019168152602001866000191681526020018481526020018281526020016000151581526020016000151581526020016001151581525060008088600019166000191681526020019081526020016000206000820151816000019060001916905560208201518160010190600019169055604082015181600201556060820151816003015560808201518160040160006101000a81548160ff02191690831515021790555060a08201518160040160016101000a81548160ff02191690831515021790555060c08201518160040160026101000a81548160ff02191690831515021790555090505060c0604051908101604052806006808111156135b457fe5b81526020018573ffffffffffffffffffffffffffffffffffffffff1681526020016000815260200160008019168152602001600073ffffffffffffffffffffffffffffffffffffffff168152602001600073ffffffffffffffffffffffffffffffffffffffff16815250600a6000886000191660001916815260200190815260200160002060008201518160000160006101000a81548160ff0219169083600681111561365d57fe5b021790555060208201518160000160016101000a81548173ffffffffffffffffffffffffffffffffffffffff021916908373ffffffffffffffffffffffffffffffffffffffff160217905550604082015181600101556060820151816002019060001916905560808201518160030160006101000a81548173ffffffffffffffffffffffffffffffffffffffff021916908373ffffffffffffffffffffffffffffffffffffffff16021790555060a08201518160040160006101000a81548173ffffffffffffffffffffffffffffffffffffffff021916908373ffffffffffffffffffffffffffffffffffffffff1602179055509050506005600681111561376157fe5b86600019167f2778c8b2ffa624af94f05a0c08ea2768547ad470fb332799a60958248a8f718f60405160405180910390a350949350505050565b600a6020528060005260406000206000915090508060000160009054906101000a900460ff16908060000160019054906101000a900473ffffffffffffffffffffffffffffffffffffffff16908060010154908060020154908060030160009054906101000a900473ffffffffffffffffffffffffffffffffffffffff16908060040160009054906101000a900473ffffffffffffffffffffffffffffffffffffffff16905086565b600160009054906101000a900473ffffffffffffffffffffffffffffffffffffffff1673ffffffffffffffffffffffffffffffffffffffff163373ffffffffffffffffffffffffffffffffffffffff161415156138a057600080fd5b60008173ffffffffffffffffffffffffffffffffffffffff16141515156138c657600080fd5b80600260006101000a81548173ffffffffffffffffffffffffffffffffffffffff021916908373ffffffffffffffffffffffffffffffffffffffff16021790555050565b6000600260009054906101000a900473ffffffffffffffffffffffffffffffffffffffff1673ffffffffffffffffffffffffffffffffffffffff166321d2a573336040518263ffffffff167c0100000000000000000000000000000000000000000000000000000000028152600401808273ffffffffffffffffffffffffffffffffffffffff1673ffffffffffffffffffffffffffffffffffffffff168152602001915050602060405180830381600087803b1580156139c957600080fd5b505af11580156139dd573d6000803e3d6000fd5b505050506040513d60208110156139f357600080fd5b81019080805190602001909291905050501515613a0f57600080fd5b82613a5f60008083600019166000191681526020019081526020016000206002015460008084600019166000191681526020019081526020016000206003015442614f4f9092919063ffffffff16565b1515613a6a57600080fd5b600483101515613a7957600080fd5b60016006811115613a8657fe5b600a6000866000191660001916815260200190815260200160002060000160009054906101000a900460ff166006811115613abd57fe5b14151515613aca57600080fd5b60066000856000191660001916815260200190815260200160002073__TallyClerkLib_________________________63cca0a5a7909133866003811115613b0e57fe5b6040518463ffffffff167c0100000000000000000000000000000000000000000000000000000000028152600401808481526020018373ffffffffffffffffffffffffffffffffffffffff1673ffffffffffffffffffffffffffffffffffffffff168152602001826003811115613b8157fe5b60ff168152602001935050505060006040518083038186803b158015613ba657600080fd5b505af4158015613bba573d6000803e3d6000fd5b50505050600191505092915050565b600160009054906101000a900473ffffffffffffffffffffffffffffffffffffffff1673ffffffffffffffffffffffffffffffffffffffff163373ffffffffffffffffffffffffffffffffffffffff16141515613c2557600080fd5b81600360006101000a81548173ffffffffffffffffffffffffffffffffffffffff021916908373ffffffffffffffffffffffffffffffffffffffff16021790555080600460006101000a81548173ffffffffffffffffffffffffffffffffffffffff021916908373ffffffffffffffffffffffffffffffffffffffff1602179055505050565b6000613cdd60008084600019166000191681526020019081526020016000206003015442614f9790919063ffffffff16565b9050919050565b600080613cef6150b2565b60008085613d2360008083600019166000191681526020019081526020016000206003015442614f9790919063ffffffff16565b1515613d2e57600080fd5b60016006811115613d3b57fe5b600a6000896000191660001916815260200190815260200160002060000160009054906101000a900460ff166006811115613d7257fe5b14151515613d7f57600080fd5b600260009054906101000a900473ffffffffffffffffffffffffffffffffffffffff1673ffffffffffffffffffffffffffffffffffffffff16632c0ac0226040518163ffffffff167c0100000000000000000000000000000000000000000000000000000000028152600401602060405180830381600087803b158015613e0557600080fd5b505af1158015613e19573d6000803e3d6000fd5b505050506040513d6020811015613e2f57600080fd5b8101908080519060200190929190505050945060086000600a60008a6000191660001916815260200190815260200160002060000160009054906101000a900460ff166006811115613e7d57fe5b815260200190815260200160002060a060405190810160405290816000820160009054906101000a900460ff1615151515815260200160018201548152602001600282015481526020016003820154815260200160048201548152505093508473__TallyClerkLib_________________________63ab2b33429091866020015187604001516040518463ffffffff167c010000000000000000000000000000000000000000000000000000000002815260040180848152602001838152602001828152602001935050505060206040518083038186803b158015613f6157600080fd5b505af4158015613f75573d6000803e3d6000fd5b505050506040513d6020811015613f8b57600080fd5b810190808051906020019092919050505092508473__TallyClerkLib_________________________63ab2b33429091866060015187608001516040518463ffffffff167c010000000000000000000000000000000000000000000000000000000002815260040180848152602001838152602001828152602001935050505060206040518083038186803b15801561402357600080fd5b505af4158015614037573d6000803e3d6000fd5b505050506040513d602081101561404d57600080fd5b810190808051906020019092919050505091508260066000896000191660001916815260200190815260200160002060000154101580156140ac5750816006600089600019166000191681526020019081526020016000206001015410155b15614122576001600080896000191660001916815260200190815260200160002060040160006101000a81548160ff0219169083151502179055506001600080896000191660001916815260200190815260200160002060040160016101000a81548160ff021916908315150217905550614197565b6001600080896000191660001916815260200190815260200160002060040160006101000a81548160ff0219169083151502179055506000806000896000191660001916815260200190815260200160002060040160016101000a81548160ff02191690831515021790555060019550614225565b3373ffffffffffffffffffffffffffffffffffffffff1687600019167fca7210d0ed76aa06d51dc7e00c4be3f6396a49fc520d04fddea5224cd8972db6426000808c6000191660001916815260200190815260200160002060040160019054906101000a900460ff1660405180838152602001821515151581526020019250505060405180910390a3600195505b5050505050919050565b600b8060010154905081565b600080600260009054906101000a900473ffffffffffffffffffffffffffffffffffffffff1673ffffffffffffffffffffffffffffffffffffffff166321d2a573336040518263ffffffff167c0100000000000000000000000000000000000000000000000000000000028152600401808273ffffffffffffffffffffffffffffffffffffffff1673ffffffffffffffffffffffffffffffffffffffff168152602001915050602060405180830381600087803b1580156142fb57600080fd5b505af115801561430f573d6000803e3d6000fd5b505050506040513d602081101561432557600080fd5b8101908080519060200190929190505050151561434157600080fd5b6001600681111561434e57fe5b600a6000866000191660001916815260200190815260200160002060000160009054906101000a900460ff16600681111561438557fe5b14151561439157600080fd5b600a6000856000191660001916815260200190815260200160002060000160019054906101000a900473ffffffffffffffffffffffffffffffffffffffff169050600360009054906101000a900473ffffffffffffffffffffffffffffffffffffffff1673ffffffffffffffffffffffffffffffffffffffff16639bbc92e4826040518263ffffffff167c0100000000000000000000000000000000000000000000000000000000028152600401808273ffffffffffffffffffffffffffffffffffffffff1673ffffffffffffffffffffffffffffffffffffffff168152602001915050602060405180830381600087803b15801561448f57600080fd5b505af11580156144a3573d6000803e3d6000fd5b505050506040513d60208110156144b957600080fd5b810190808051906020019092919050505015156144d557600080fd5b6003808111156144e157fe5b8360038111156144ed57fe5b14156146c65783600b60000160003373ffffffffffffffffffffffffffffffffffffffff1673ffffffffffffffffffffffffffffffffffffffff16815260200190815260200160002081600019169055506000600b60000160003373ffffffffffffffffffffffffffffffffffffffff1673ffffffffffffffffffffffffffffffffffffffff168152602001908152602001600020546000191614156146c557600360009054906101000a900473ffffffffffffffffffffffffffffffffffffffff1673ffffffffffffffffffffffffffffffffffffffff166352599dcf600a6000876000191660001916815260200190815260200160002060000160019054906101000a900473ffffffffffffffffffffffffffffffffffffffff166040518263ffffffff167c0100000000000000000000000000000000000000000000000000000000028152600401808273ffffffffffffffffffffffffffffffffffffffff1673ffffffffffffffffffffffffffffffffffffffff168152602001915050602060405180830381600087803b15801561468857600080fd5b505af115801561469c573d6000803e3d6000fd5b505050506040513d60208110156146b257600080fd5b8101908080519060200190929190505050505b5b600191505092915050565b60096020528060005260406000206000915090508060000160009054906101000a900473ffffffffffffffffffffffffffffffffffffffff16908060010154908060020160009054906101000a900460ff16905083565b60006002600681111561473757fe5b600a6000846000191660001916815260200190815260200160002060000160009054906101000a900460ff16600681111561476e57fe5b141561477d5760019050614782565b600090505b919050565b60066020528060005260406000206000915090508060000154908060010154908060020154905083565b6000600360068111156147c057fe5b600a6000846000191660001916815260200190815260200160002060000160009054906101000a900460ff1660068111156147f757fe5b1415614806576001905061480b565b600090505b919050565b600080600a6000846000191660001916815260200190815260200160002060030160009054906101000a900473ffffffffffffffffffffffffffffffffffffffff16600a6000856000191660001916815260200190815260200160002060040160009054906101000a900473ffffffffffffffffffffffffffffffffffffffff1691509150915091565b600160009054906101000a900473ffffffffffffffffffffffffffffffffffffffff1673ffffffffffffffffffffffffffffffffffffffff163373ffffffffffffffffffffffffffffffffffffffff161415156148f657600080fd5b60008173ffffffffffffffffffffffffffffffffffffffff161415151561491c57600080fd5b80600360006101000a81548173ffffffffffffffffffffffffffffffffffffffff021916908373ffffffffffffffffffffffffffffffffffffffff16021790555050565b600360009054906101000a900473ffffffffffffffffffffffffffffffffffffffff1681565b6000600260009054906101000a900473ffffffffffffffffffffffffffffffffffffffff1673ffffffffffffffffffffffffffffffffffffffff166321d2a573336040518263ffffffff167c0100000000000000000000000000000000000000000000000000000000028152600401808273ffffffffffffffffffffffffffffffffffffffff1673ffffffffffffffffffffffffffffffffffffffff168152602001915050602060405180830381600087803b158015614a4557600080fd5b505af1158015614a59573d6000803e3d6000fd5b505050506040513d6020811015614a6f57600080fd5b81019080805190602001909291905050501515614a8b57600080fd5b6001600f6000866000191660001916815260200190815260200160002060006101000a81548160ff02191690831515021790555060e060405190810160405280856000191681526020018460001916815260200160008152602001600081526020016000151581526020016000151581526020016001151581525060008086600019166000191681526020019081526020016000206000820151816000019060001916905560208201518160010190600019169055604082015181600201556060820151816003015560808201518160040160006101000a81548160ff02191690831515021790555060a08201518160040160016101000a81548160ff02191690831515021790555060c08201518160040160026101000a81548160ff02191690831515021790555090505060c06040519081016040528060046006811115614bd057fe5b8152602001600073ffffffffffffffffffffffffffffffffffffffff1681526020016000815260200183600019168152602001600073ffffffffffffffffffffffffffffffffffffffff168152602001600073ffffffffffffffffffffffffffffffffffffffff16815250600a6000866000191660001916815260200190815260200160002060008201518160000160006101000a81548160ff02191690836006811115614c7a57fe5b021790555060208201518160000160016101000a81548173ffffffffffffffffffffffffffffffffffffffff021916908373ffffffffffffffffffffffffffffffffffffffff160217905550604082015181600101556060820151816002019060001916905560808201518160030160006101000a81548173ffffffffffffffffffffffffffffffffffffffff021916908373ffffffffffffffffffffffffffffffffffffffff16021790555060a08201518160040160006101000a81548173ffffffffffffffffffffffffffffffffffffffff021916908373ffffffffffffffffffffffffffffffffffffffff16021790555090505060046006811115614d7e57fe5b84600019167f2778c8b2ffa624af94f05a0c08ea2768547ad470fb332799a60958248a8f718f60405160405180910390a39392505050565b600460009054906101000a900473ffffffffffffffffffffffffffffffffffffffff1681565b6000614e11600080600085600019166000191681526020019081526020016000206003015442614f4f9092919063ffffffff16565b9050919050565b600160009054906101000a900473ffffffffffffffffffffffffffffffffffffffff1673ffffffffffffffffffffffffffffffffffffffff163373ffffffffffffffffffffffffffffffffffffffff16141515614e7457600080fd5b614e7d81614fb6565b50565b600060011515600080846000191660001916815260200190815260200160002060040160009054906101000a900460ff161515141515614ebf57600080fd5b600080836000191660001916815260200190815260200160002060040160019054906101000a900460ff169050919050565b6000600680811115614eff57fe5b600a6000846000191660001916815260200190815260200160002060000160009054906101000a900460ff166006811115614f3657fe5b1415614f455760019050614f4a565b600090505b919050565b6000828410158015614f615750818411155b15614f6f5760019050614f74565b600090505b9392505050565b60008183019050828110151515614f8e57fe5b80905092915050565b60008183101515614fab5760019050614fb0565b600090505b92915050565b600073ffffffffffffffffffffffffffffffffffffffff168173ffffffffffffffffffffffffffffffffffffffff1614151515614ff257600080fd5b8073ffffffffffffffffffffffffffffffffffffffff16600160009054906101000a900473ffffffffffffffffffffffffffffffffffffffff1673ffffffffffffffffffffffffffffffffffffffff167f8be0079c531659141344cd1fd0a4f28419497f9722a3daafe3b4186f6b6457e060405160405180910390a380600160006101000a81548173ffffffffffffffffffffffffffffffffffffffff021916908373ffffffffffffffffffffffffffffffffffffffff16021790555050565b60a0604051908101604052806000151581526020016000815260200160008152602001600081526020016000815250905600a165627a7a723058205d81f9f09ddbc4ba3a2a73cb58e93409f0d80f329ce9d1a4799decebbf226da40029",
  "source": "/**\n * @title The contract that manages the creation and voting of the DAA.\n * @notice This contract is used when proposals are stored as structs but not created as individual contract by the factory.\n */\npragma solidity ^0.4.21;\n\nimport \"./Accessible.sol\";\nimport \"./TallyClerkLib.sol\";\nimport \"./TimedLib.sol\";\nimport \"./ProposalInterface.sol\";\nimport \"./MinimalProposal.sol\";\nimport \"./GAManager.sol\";\nimport \"./DAAInterface.sol\";\nimport \"../node_modules/openzeppelin-solidity/contracts/math/SafeMath.sol\"; \nimport \"../node_modules/openzeppelin-solidity/contracts/ownership/Ownable.sol\"; \n\n\n//@TODO     upgradable: put the enum struct into a library together with other methods\ncontract ProposalManager is MinimalProposal, Ownable {   // Accessible\n\n    using TallyClerkLib for *;\n    using TimedLib for uint256;\n    using SafeMath for uint256;\n    // using ActionLib for *;\n\n    Accessible public accessibleGate;\n    GAManager public gaManager;\n    DAAInterface public daaGate;\n\n    enum ActionType {\n        notGAproposal,\n        proposeDelegateCandidancy,\n        proposeGADate,\n        proposeDissolution,\n        proposeUpdateStatute,\n        proposeUpdateWallet,\n        proposeExpelMember\n    }\n\n    //@TODO Consider move this part into another contract inheriting from the minimal proposal...\n    struct ProposalAdditionals{\n        address destinationAddress;\n        uint256 targetAmount;\n        bool allowExternalDeposition;\n    }\n\n    //@ATTENTION Not all the properties below are necessary for each and every GA.\n    struct GAProposalAdditionals {\n        // TallyClerkLib.CandidancyForDelegate candidateList;\n        // An alternative is to use the following lines, which seperates this action into two steps.\n        //      1. Save the addresses into a list, as well as the number of the registered candidates.\n        //      2. Translate this infomation into the global variable \"candidateList\"\n        // mapping(uint256=>address) listOfCandidateAddress;\n        // uint256 numberOfCandidate;\n        ActionType actionType;\n        address candidate;\n        uint256 proposedGADate;\n        bytes32 proposedStatute;\n        address internalWallet;\n        address externalWallet;\n    }\n\n    struct Quorum {\n        bool dependency;                    // If dependent (true), the supporting number is based on the voting number. If not, the yes number is based on the total number.\n        uint256 participantNumerator;       // defines the minimum participant number comparing to the total member numbers.\n        uint256 participantDenominator;     // same as above\n        uint256 supporterNumerator;         // defines the minimum number of \"yes\" vote, among all participants\n        uint256 supporterDenominator;       // same as above\n    }\n\n    uint256 constant EXPELMEMBER_DURATION = 1 weeks; \n    uint256 constant VOTINGTIMEGAP_BETWEENPROPOSALS_GA = 3 minutes;\n    uint256 constant VOTINGDURITION_PROPOSAL_GA = 10 minutes;\n    uint256 constant ANSWER_OPTIONS = 4;\n\n    // replace the bytes32 _proposalID by the uint256 _proposalID\n    uint256 public numTotalProposals;\n    mapping(bytes32=>TallyClerkLib.VotesPerProposal) public votesForEachProposal;\n    mapping(uint256=>uint256) public limitedVotingTime;                     // mapping from ActionType to maximum period of time\n    mapping(uint256=>Quorum) public actionQuorum;\n    mapping(bytes32=>ProposalAdditionals) public proposalAdditionalsList;\n    mapping(bytes32=>GAProposalAdditionals) public gaProposalAdditionalsList;\n   \n    //@TODO The candidacyForDeligate is stored separately...(cause Solidity does not allow this one)\n    //      WHAT IF! There are several ongoing GA prooposal that is proposed for the newdelegate...\n    //      The solution may be: using this mapping that links structs into this public variable... which is in parallel to the gaProposalAdditionalsList.\n    TallyClerkLib.VotesForDelegate public votesForDelegateProposal;\n    // mapping(bytes32=>TallyClerkLib.CandidancyForDelegate) public potentialCandidateListForParticularGA;\n    mapping(address=>uint256) listOfCandidateAddress;\n    uint256 numberOfCandidate;\n\n    // bytes32[] public proposalsForNextGA; // This array is replaced by the following mapping due to the change of process. \n    // The first mapping maps from the proposalID to bool (true if the proposal is available to be set to the next GA).\n    mapping(bytes32=>bool) proposalsCanBeSetForNextGA;\n    // bytes32[] public proposalsForDelegateForNextGA;\n\n\n    event CreateProposal(bytes32 indexed ID, address indexed DestinationAddress, uint256 Amount, uint256 StartingTime, uint256 EndingTime);\n    event CreateGAProposal(bytes32 indexed ID, ActionType indexed Action);\n    event ConcludeProposal(bytes32 indexed ID, address indexed Concluder, uint256 AtTime, bool FinalResult);\n    \n\n    modifier memberOnly {\n        require(accessibleGate.checkIsMember(msg.sender));\n        _;\n    }\n\n    modifier proposalNotYetExists(bytes32 _proposalID) {\n        require(proposalList[_proposalID].proposalID == \"\");\n        _;\n    }\n\n    /**\n     *@notice min duration 7 days, max duration 60 days.\n     */\n    modifier shouldVoteInTime(uint256 _proposedDuration) {\n        require(_proposedDuration.isInside(7 days, 60 days));\n        _;\n    }\n\n\n    //@TODO What if hard-code all the time limits and/or quorum??\n    constructor(address _membershipAdr, \n        //uint256 timeLimit_DelegateCandidancy, \n        uint256 timeLimit_GAGDate, \n        //uint256 timeLimit_Dissolution, \n        //uint256 timeLimit_Update, \n        uint256 timeLimit_ExpelMember\n    ) public {\n        accessibleGate = Accessible(_membershipAdr);\n        \n        // limitedVotingTime[uint256(ActionType.proposeDelegateCandidancy)] = timeLimit_DelegateCandidancy;    // 10 minutes, not sure, but during GA\n        limitedVotingTime[uint256(ActionType.proposeGADate)] = timeLimit_GAGDate;           // 2 weeks\n        // limitedVotingTime[uint256(ActionType.proposeDissolution)] = timeLimit_Dissolution;  // 10 minutes\n        // limitedVotingTime[uint256(ActionType.proposeUpdateStatute)] = timeLimit_Update;  // 10 minutes\n        // limitedVotingTime[uint256(ActionType.proposeUpdateWallet)] = timeLimit_Update;      // 10 minutes\n        limitedVotingTime[uint256(ActionType.proposeExpelMember)] = timeLimit_ExpelMember;  // 1 week\n        // conventional proposal: simple majority, no quorum.\n        actionQuorum[uint256(ActionType.notGAproposal)] = Quorum(true, 0, 2, 1, 2);\n        actionQuorum[uint256(ActionType.proposeDelegateCandidancy)] = Quorum(false, 1, 2, 0, 1);   // majority?\n        actionQuorum[uint256(ActionType.proposeGADate)] = Quorum(false, 1, 5, 1, 5);\n        actionQuorum[uint256(ActionType.proposeDissolution)] = Quorum(true, 2, 3, 2, 3);\n        actionQuorum[uint256(ActionType.proposeUpdateStatute)] = Quorum(true, 2, 3, 2, 3);\n        actionQuorum[uint256(ActionType.proposeUpdateWallet)] = Quorum(true, 2, 3, 2, 3);\n        actionQuorum[uint256(ActionType.proposeExpelMember)] = Quorum(true, 1, 10, 2, 3);\n    }\n\n    function linkContract(address _gaManager, address _daa) public onlyOwner {\n        gaManager = GAManager(_gaManager);\n        daaGate = DAAInterface(_daa);\n    }\n\n    function updateMembershipContractAddress(address _newAccessible) public onlyOwner {\n        require(_newAccessible != 0x0);\n        accessibleGate = Accessible(_newAccessible);\n    }\n\n    function updateGAContractAddress(address _newGA) public onlyOwner {\n        require(_newGA != 0x0);\n        gaManager = GAManager(_newGA);\n    }\n    // // old functions \n    // function updateContractAddress(address _newAccessible, address _newGA) public onlyOwner {\n    //     require(_newAccessible != 0x0 || _newGA != 0x0);\n    //     if (_newAccessible != 0x0) {\n    //         accessibleGate = Accessible(_newAccessible);\n    //     }\n    //     if (_newGA != 0x0) {\n    //         gaManager = GAManager(_newGA);\n    //     }\n    // }\n\n    /**\n     *@title Create a normal proposal\n     *@dev   The infomation is stored in two mapping, one is inside the minimal proposal, the additionals are stored in the additionals mappings for the normal proposal.\n     */\n    function createProposal(\n        bytes32 _proposalID,\n        bytes32 _shortDescription,\n        address _destinationAddress,\n        uint256 _targetAmount,\n        uint256 _startingTime,\n        uint256 _duration,\n        bool _externalHelp\n    ) \n        public \n        memberOnly \n        shouldVoteInTime(_duration) \n    returns (bool) {\n        require(_startingTime > block.timestamp);\n\n        uint256 _endingTime = _startingTime.add(_duration);\n\n        proposalList[_proposalID] = BasicProposal(_proposalID, _shortDescription, _startingTime, _endingTime, false, false, false);\n        proposalAdditionalsList[_proposalID] = ProposalAdditionals(_destinationAddress, _targetAmount, _externalHelp);\n\n        emit CreateProposal(_proposalID, _destinationAddress, _targetAmount, _startingTime, _endingTime);\n\n    }\n\n\n    //======================================================================================\n    // The following functions create GA proposals (administrative proposals)\n    // Alternative is to merge these functions together and user if to select by action type.\n    //======================================================================================\n\n    /**\n     *@title Propose their own candidacy for the next (replacing) delegate\n     *@notice People can propose outside GA but only during GA can one vote.\n     */\n    function createDelegateCandidancyProposal (\n        bytes32 _proposalID,\n        bytes32 _shortDescription\n    ) public memberOnly returns (bool) {\n        // require(_duration.isInside(0, limitedVotingTime[uint256(ActionType.proposeDelegateCandidancy)]));\n\n        // BasicProposal memory tempBasic = BasicProposal(_proposalID, _shortDescription, 0, 0, false, false, true);\n        // GAProposalAdditionals memory tempAdditional = GAProposalAdditionals(ActionType.proposeDelegateCandidancy, msg.sender, 0, \"\", 0x0, 0x0);\n        // proposalList[_proposalID] = tempBasic;\n        // gaProposalAdditionalsList[_proposalID] = GAProposalAdditionals;\n\n        // proposalsForDelegateForNextGA.push(_proposalID);\n        proposalsCanBeSetForNextGA[_proposalID] = true;\n\n        proposalList[_proposalID] = BasicProposal(_proposalID, _shortDescription, 0, 0, false, false, true);\n        gaProposalAdditionalsList[_proposalID] = GAProposalAdditionals(ActionType.proposeDelegateCandidancy, msg.sender, 0, \"\", 0x0, 0x0);\n        emit CreateGAProposal(_proposalID, ActionType.proposeDelegateCandidancy);\n\n        gaManager.addDelegateCandidate(msg.sender);\n    }\n\n    /**\n     *@title To propose a new GA. This proposal is generated by members. \n     */\n    function createGADateProposal(\n        bytes32 _proposalID\n        ,bytes32 _shortDescription\n        ,uint256 _proposedTime\n        ,uint256 _votingStarts\n        // ,uint256 _votingDuration\n    ) public memberOnly returns (bool) {\n        // require(_votingDuration.isInside(0, limitedVotingTime[uint256(ActionType.proposeGADate)]));\n        require(gaManager.canSetGA(_proposedTime, true));   // propose an extraordinary GA\n        uint256 _votingEnds = _votingStarts.add(limitedVotingTime[uint256(ActionType.proposeGADate)]);\n        proposalList[_proposalID] = BasicProposal(_proposalID, _shortDescription, _votingStarts, _votingEnds, false, false, true);\n        gaProposalAdditionalsList[_proposalID] = GAProposalAdditionals(ActionType.proposeGADate, 0x0, _proposedTime, \"\", 0x0, 0x0);\n        emit CreateGAProposal(_proposalID, ActionType.proposeGADate);\n    }\n\n    /**\n     *@title Propose dissolve DAAS.\n     *@dev   The precise starting date/time is subject to the next GA date/time\n     */\n    function createDissolutionProposal(\n        bytes32 _proposalID,\n        bytes32 _shortDescription\n    ) public memberOnly returns (bool) {\n        \n        // proposalsForNextGA.push(_proposalID);\n        proposalsCanBeSetForNextGA[_proposalID] = true;\n\n        proposalList[_proposalID] = BasicProposal(_proposalID, _shortDescription, 0, 0, false, false, true);\n        gaProposalAdditionalsList[_proposalID] = GAProposalAdditionals(ActionType.proposeDissolution, 0x0, 0, \"\", 0x0, 0x0);\n        emit CreateGAProposal(_proposalID, ActionType.proposeDissolution);\n    }\n\n    /**\n     *@title Update the constitute hash.\n     */\n    function createUpdateStatuteProposal(\n        bytes32 _proposalID,\n        bytes32 _shortDescription,\n        bytes32 _newHash\n    ) public memberOnly returns (bool) {\n        // proposalsForNextGA.push(_proposalID);\n        proposalsCanBeSetForNextGA[_proposalID] = true;\n\n        proposalList[_proposalID] = BasicProposal(_proposalID, _shortDescription, 0, 0, false, false, true);\n        gaProposalAdditionalsList[_proposalID] = GAProposalAdditionals(ActionType.proposeUpdateStatute, 0x0, 0, _newHash, 0x0, 0x0);\n        emit CreateGAProposal(_proposalID, ActionType.proposeUpdateStatute);\n    }\n\n    /**\n     *@notice We cannot directly expel a delegate. If the member happens to be a whitelister, there must be at least more than two, to be able to delete one.\n     *@dev    Now we check whether this member is a whitelister. Later, when the proposal concludes, another check is needed.\n     */\n    function createExpelMemberProposal(\n        bytes32 _proposalID\n        ,bytes32 _shortDescription\n        ,address _targetMember\n        ,uint256 _startingTime\n    ) public memberOnly returns (bool) {\n        require(accessibleGate.checkIsMember(_targetMember));\n        require(accessibleGate.checkIsDelegate(_targetMember) == false);\n        // require(accessibleGate.isWhitelister(_targetMember) == false || (accessibleGate.isWhitelister(_targetMember) && accessibleGate.getWhitelisterNumber() > 2));\n        // This account should be either a ordinary member / a member with whitelister's role and there are more than 2 whitelisters.\n        // Acutally it doesn't matter, because a whitelister can be a non-member. But whether it is possible to expel his whitelister's role?\n        uint256 _endingTime = _startingTime.add(EXPELMEMBER_DURATION);\n        proposalList[_proposalID] = BasicProposal(_proposalID, _shortDescription, _startingTime, _endingTime, false, false, true);\n        gaProposalAdditionalsList[_proposalID] = GAProposalAdditionals(ActionType.proposeExpelMember, _targetMember, 0, \"\", 0x0, 0x0);\n        emit CreateGAProposal(_proposalID, ActionType.proposeUpdateWallet);\n    }\n\n    /**\n     *@title Create a proposal (can only be voted during GA). To update the wallet address.\n     */\n    function createUpdateWalletProposal(\n        bytes32 _proposalID,\n        bytes32 _shortDescription,\n        address _internalWallet,\n        address _externalWallet\n    ) public memberOnly returns (bool) {\n        require(_internalWallet != 0x0 || _externalWallet != 0x0);\n\n        // The real starting time and ending time needs to be later filled according to the latest GA.\n        proposalList[_proposalID] = BasicProposal(_proposalID, _shortDescription, 0, 0, false, false, true);\n        gaProposalAdditionalsList[_proposalID] = GAProposalAdditionals(ActionType.proposeUpdateWallet, 0x0, 0, \"\", _internalWallet, _externalWallet);\n\n        // proposalsForNextGA.push(_proposalID);\n        proposalsCanBeSetForNextGA[_proposalID] = true;\n\n\n        emit CreateGAProposal(_proposalID, ActionType.proposeUpdateWallet);\n    }\n\n    /**\n     *@notice All the proposals except the vote for delegate can use this function.\n     */\n    function voteForProposal(\n        bytes32 _proposalID, \n        uint256 _answer\n    ) \n        public \n        memberOnly \n        votable(_proposalID) \n        returns (bool) \n    {\n        require(_answer < ANSWER_OPTIONS);   //TallyClerk.voteTicket{Abstain, No, Yes}\n        require(gaProposalAdditionalsList[_proposalID].actionType != ActionType.proposeDelegateCandidancy);\n        votesForEachProposal[_proposalID].refreshResult(msg.sender, TallyClerkLib.voteTicket(_answer));\n        // votesForEachProposal[_proposalID].participantList[msg.sender] = TallyClerkLib.voteTicket(_answer);\n        // votesForEachProposal[_proposalID].participantNum++;\n        // if (uint(_answer) == 0) {\n        //     votesForEachProposal[_proposalID].abstainNum++;\n        // } else if (uint(_answer) == 1) {\n        //     votesForEachProposal[_proposalID].yesNum++;\n        // }\n        return true;\n    }\n\n    /**\n     *@title Vote for new delegate proposal.\n     *@notice There is/are (multiple) proposal(s) for the delegate position. One has only one vote for such proposal that happens at the same time.\n     */\n     //@TODO When someone wants to change the vote....\n    function voteForDelegate(bytes32 _proposalID, TallyClerkLib.voteTicket _answer) public memberOnly returns (bool) {\n        require(gaProposalAdditionalsList[_proposalID].actionType == ActionType.proposeDelegateCandidancy);\n        address preferredCandidate = gaProposalAdditionalsList[_proposalID].candidate;\n        require(gaManager.canVoteForDelegate(preferredCandidate));\n\n        if (_answer == TallyClerkLib.voteTicket.Yes) {\n            votesForDelegateProposal.participantList[msg.sender] = _proposalID;\n            if (votesForDelegateProposal.participantList[msg.sender] == \"\") {\n                gaManager.voteForDelegate(gaProposalAdditionalsList[_proposalID].candidate);\n            }\n        }\n        return true;\n    }\n\n    // /**\n    //  *@title  Set order (statingTime etc) for GA proposals to be open automatically at GA.\n    //  *@dev  This function can be called by anyone, when GA starts.\n    //  */\n    //  //@TODO Change this function into assigning proposals to GA.\n    // function prepareForGA() public returns (bool) {\n    //     require(gaManager.isDuringGA());\n    //     require(proposalsForNextGA.length > 0 || proposalsForDelegateForNextGA.length > 0);\n    //     uint256 _scheduledStartingTime = now.add(VOTINGTIMEGAP_BETWEENPROPOSALS_GA);\n    //     if (proposalsForDelegateForNextGA.length > 0) {\n    //         uint256 _scheduledEndingTime = _scheduledStartingTime.add(VOTINGDURITION_PROPOSAL_GA);\n    //         for (uint256 j = 0; j < proposalsForDelegateForNextGA.length; j++) {\n    //             proposalList[proposalsForDelegateForNextGA[i]].startingTime = _scheduledStartingTime;\n    //             proposalList[proposalsForNextGA[i]].endingTime = _scheduledEndingTime;\n    //         }\n    //         delete(proposalsForDelegateForNextGA);\n    //     }\n    //     for (uint256 i = 0; i < proposalsForNextGA.length; i++) {\n    //         _scheduledStartingTime = _scheduledStartingTime.add(VOTINGTIMEGAP_BETWEENPROPOSALS_GA);\n    //         proposalList[proposalsForNextGA[i]].startingTime = _scheduledStartingTime;\n    //         _scheduledStartingTime = _scheduledStartingTime.add(VOTINGDURITION_PROPOSAL_GA);\n    //         proposalList[proposalsForNextGA[i]].endingTime = _scheduledStartingTime;\n    //     }\n    //     delete(proposalsForNextGA);\n    //     return true;\n    // }\n\n    /**\n     *@title New method of allocating a GA proposal (except for the delegate election) to a scheduled GA\n     *@dev   Need to make sure that the current GA proposal has not yet be assigned.\n     *@notice Delegate candidacy related proposals cannot be set via such function but another one. \n     *@param _proposalID The reference ID of proposals.\n     *@param _gaIndex The index of the addressed GA.\n     */\n    function setProposalToGA(bytes32 _proposalID, uint256 _gaIndex) public memberOnly returns (bool) {\n        require(proposalsCanBeSetForNextGA[_proposalID] == true);\n        require(gaProposalAdditionalsList[_proposalID].actionType != ActionType.proposeDelegateCandidancy);\n        uint256 _startingTime = gaManager.getTimeIfNextGAExistsAndNotYetFullyBooked(_gaIndex);\n        require(_startingTime != 0);\n        uint256 _newEndTime = _startingTime.add(VOTINGDURITION_PROPOSAL_GA);\n        proposalList[_proposalID].startingTime = _startingTime;\n        proposalList[_proposalID].endingTime = _newEndTime;\n        // _newEndTime = _newEndTime.add(VOTINGTIMEGAP_BETWEENPROPOSALS_GA);\n        proposalsCanBeSetForNextGA[_proposalID] = false;\n        // setGAcurrentEndTime(_gaIndex, _newEndTime);\n        return true; \n    }\n\n    /**\n     *@title Conclude the current concludable proposal\n     *@dev Conclude delegate candidacy is implemented in a separate function.\n     *@notice This function shall be called by anyone, even non-members.\n     */\n    //@TODO Implement the proposeDelegateCandidancy!!!\n    function concludeProposal(bytes32 _proposalID) concludable(_proposalID) public returns (bool) {\n        // calculate the quorum at the moment of conclusion. \n        require(gaProposalAdditionalsList[_proposalID].actionType != ActionType.proposeDelegateCandidancy);\n        uint256 _totalMemberNum = accessibleGate.getTotalMemberNumber();\n        Quorum memory _actionTypeEnumToUint = actionQuorum[uint256(gaProposalAdditionalsList[_proposalID].actionType)];\n        uint256 _minParticipantNum = _totalMemberNum.calculateQuorum(_actionTypeEnumToUint.participantNumerator, _actionTypeEnumToUint.participantDenominator);\n        uint256 _minYesNum = _totalMemberNum.calculateQuorum(_actionTypeEnumToUint.supporterNumerator, _actionTypeEnumToUint.supporterDenominator);\n\n        if (votesForEachProposal[_proposalID].participantNum >= _minParticipantNum && votesForEachProposal[_proposalID].yesNum >= _minYesNum) {\n            proposalList[_proposalID].concludeStatus = true;\n            proposalList[_proposalID].finalResult = true;\n        } else {\n            proposalList[_proposalID].concludeStatus = true;\n            proposalList[_proposalID].finalResult = false;\n            return true;\n        }\n        emit ConcludeProposal(_proposalID, msg.sender, now, proposalList[_proposalID].finalResult);\n        // should emit one event.\n        // Actions are taken separately by other concluders.\n\n        return true;\n    }\n\n    function getVoteForProposal(bytes32 _proposalID, address _adr) public view returns (uint256) {\n        return uint256(votesForEachProposal[_proposalID].participantList[_adr]);\n    }\n\n    function canExternalParticipate(bytes32 _proposalID) public view returns (bool) {\n        return proposalAdditionalsList[_proposalID].allowExternalDeposition;\n    }\n\n    function getProposaldestinationAddress(bytes32 _proposalID) public view returns (address) {\n        return proposalAdditionalsList[_proposalID].destinationAddress;\n    }\n\n    function getProposalStatute(bytes32 _proposalID) public view returns (bytes32) {\n        return gaProposalAdditionalsList[_proposalID].proposedStatute;\n    }\n\n    function getProposalAllowance(bytes32 _proposalID) external view returns (uint256) {\n        return proposalAdditionalsList[_proposalID].targetAmount;\n    }\n\n    function getProposalProposedWalletAddress(bytes32 _proposalID) external view returns (address, address) {\n        return (gaProposalAdditionalsList[_proposalID].internalWallet,gaProposalAdditionalsList[_proposalID].externalWallet);\n    }\n\n    function getProposalProposedDate(bytes32 _proposalID) external view returns (uint256) {\n        return (gaProposalAdditionalsList[_proposalID].proposedGADate);\n    }\n\n    function getProposalProposedAdr(bytes32 _proposalID) external view returns (address) {\n        return (gaProposalAdditionalsList[_proposalID].candidate);\n    }\n\n    function checkActionIsUpdateWallet(bytes32 _proposalID) public view returns (bool) {\n        if (gaProposalAdditionalsList[_proposalID].actionType == ActionType.proposeUpdateWallet) {\n            return true;\n        } else {\n            return false;\n        }\n    }\n\n    function checkActionIsDissolution(bytes32 _proposalID) public view returns (bool) {\n        if (gaProposalAdditionalsList[_proposalID].actionType == ActionType.proposeDissolution) {\n            return true;\n        } else {\n            return false;\n        }\n    }\n\n    function checkActionIsStatute(bytes32 _proposalID) public view returns (bool) {\n        if (gaProposalAdditionalsList[_proposalID].actionType == ActionType.proposeUpdateStatute) {\n            return true;\n        } else {\n            return false;\n        }\n    }\n\n    function checkActionIsSuccessfulGA(bytes32 _proposalID) public view returns (bool) {\n        if (gaProposalAdditionalsList[_proposalID].actionType == ActionType.proposeGADate) {\n            return true;\n        } else {\n            return false;\n        }\n    }\n    \n    function checkActionIsExpel(bytes32 _proposalID) public view returns (bool) {\n        if (gaProposalAdditionalsList[_proposalID].actionType == ActionType.proposeExpelMember) {\n            return true;\n        } else {\n            return false;\n        }\n    }\n\n    // function clearGAProposalsAfterGA() public returns (bool) {\n    //     require(msg.sender == address (gaManager));\n    //     // set all the GAproposal's ending time to now.\n    //     for (uint256 i = 0; i < proposalsForNextGA.length; i++) {\n    //         proposalList[proposalsForNextGA[i]].endingTime = now - 10;\n    //     }\n    //     // delete the queue\n    //     delete(proposalsForNextGA);\n    // }\n    \n    // /**\n    //  *@title Destruct the proposal, if the proposal is already concluded and (executed or invalid), \n    //  *@notice This function shall be called by anyone, even non-members.\n    //  */\n    //  //@TODO Whether this function is allowed to be called while the proposal is still open ? \n    //  //      Nope... Otherwise, the proposal initiator may destroy the proposal when he realised it is not favorable for him.\n    // function destructProposal() public returns (bool) {\n    //     // require(proposal.isConcluded);\n    //     //@TODO check whether this proposal is already concluded.\n    // }\n\n    // /**\n    //  *@title Create a GA specific proposal\n    //  *@dev   The function needs to re-direct to action functional code that is hard-coded inside. \n    //  */\n    // function createGAProposal(\n    //     bytes32 _proposalID,\n    //     bytes32 _shortDescription,\n    //     uint256 _startingTime,\n    //     uint256 _duration,\n    //     ActionType _proposedActionType,\n    //     bytes32 _proposedStatute,\n    // ) public memberOnly shouldVoteInTime(_duration) returns (bool) {\n    //     require(_duration.isInside(0, limitedVotingTime[uint256(_proposedActionType)]));\n    //     if (_proposedActionType == ActionType.proposeDelegateCandidancy) {\n    //         // No matter what value one puts here, the startingTime is set to be right now. In reality, when some one wants to vote for such proposal, they should \n    //         uint256 _symbolicStartingTime = now;\n    //         uint256 _symbolicEndingTime = now;\n    //         BasicProposal memory tempBasic = BasicProposal(_proposalID, _shortDescription, _symbolicstartingTime, _symbolicEndingTime, false, false, false);\n    //         GAProposalAdditionals memory tempAdditional = GAProposalAdditionals(msg.sender, ActionType.proposeDelegateCandidancy, 0, \"\");\n\n    //         proposalsForNextGA.push(_proposalID);\n    //     } else if (_proposedActionType == ActionType.proposeGADate) {\n    //         // require(_duration.isInside(0, limitedVotingTime[uint256(ActionType.proposeGADate)]));\n    //         // GA date is stored in the _startingTime parameter.\n    //         require(_startingTime > now);\n    //         // check if the protential GA date respects the time gap with scheduled GAs.\n    //         require(gaManager.canSetGA(_startingTime));\n\n    //         uint256 _symbolicStartingTime = now;\n    //         uint256 _symbolicEndingTime = _duration;\n    //         BasicProposal memory tempBasic = BasicProposal(_proposalID, _shortDescription, _symbolicstartingTime, _symbolicEndingTime, false, false, false);\n    //         GAProposalAdditionals memory tempAdditional = GAProposalAdditionals(0x0, ActionType.proposeGADate, _startingTime, \"\");\n\n    //     } else if (_proposedActionType == ActionType.proposeDissolution) {\n    //         // require(_duration.isInside(0, limitedVotingTime[uint256(ActionType.proposeDissolution)]));\n    //         // _startingTime is the time delay, upon the GA's approval of dissolution\n    //         require(_startingTime > now);\n\n    //         uint256 _symbolicStartingTime = now;\n    //         uint256 _symbolicEndingTime = now;\n    //         BasicProposal memory tempBasic = BasicProposal(_proposalID, _shortDescription, _symbolicstartingTime, _symbolicEndingTime, false, false, false);\n    //         GAProposalAdditionals memory tempAdditional = GAProposalAdditionals(0x0, ActionType.proposeDissolution, _startingTime, \"\");\n   \n    //         proposalsForNextGA.push(_proposalID);\n    //     } else if (_proposedActionType == ActionType.proposeUpdateStatute) {\n    //     } else if (_proposedActionType == ActionType.proposeUpdateWallet) {\n    //     } else if (_proposedActionType == ActionType.proposeExpelMember) {\n    //     } else {\n    //         revert();\n    //     }\n\n    //     proposalList[_proposalID] = tempBasic;\n    //     gaProposalAdditionalsList[_proposalID] = GAProposalAdditionals;\n    //     emit CreateGAProposal(_proposalID, _shortDescription, _proposedActionType, _startingTime, _proposedStatute);\n    // }\n}",
  "sourcePath": "C:\\Users\\vasil\\OneDrive\\Documents\\02_e-swissolar\\02_prj\\Truffle-React-ReFiDAO-Sandbox\\backend\\contracts\\ProposalManager.sol",
  "compiler": {
    "name": "solc",
    "version": "0.4.26+commit.4563c3fc.Emscripten.clang"
  },
  "schemaVersion": "3.4.4",
  "updatedAt": "2022-08-09T20:27:20.057Z",
  "networkType": "ethereum",
  "devdoc": {
    "methods": {
      "renounceOwnership()": {
        "details": "Allows the current owner to relinquish control of the contract."
      },
      "transferOwnership(address)": {
        "details": "Allows the current owner to transfer control of the contract to a newOwner.",
        "params": {
          "_newOwner": "The address to transfer ownership to."
        }
      }
    }
  },
  "userdoc": {
    "methods": {
      "concludeProposal(bytes32)": {
        "notice": "title Conclude the current concludable proposal dev Conclude delegate candidacy is implemented in a separate function. notice This function shall be called by anyone, even non-members."
      },
      "createDelegateCandidancyProposal(bytes32,bytes32)": {
        "notice": "title Propose their own candidacy for the next (replacing) delegate notice People can propose outside GA but only during GA can one vote."
      },
      "createDissolutionProposal(bytes32,bytes32)": {
        "notice": "title Propose dissolve DAAS. dev   The precise starting date/time is subject to the next GA date/time"
      },
      "createExpelMemberProposal(bytes32,bytes32,address,uint256)": {
        "notice": "notice We cannot directly expel a delegate. If the member happens to be a whitelister, there must be at least more than two, to be able to delete one. dev    Now we check whether this member is a whitelister. Later, when the proposal concludes, another check is needed."
      },
      "createGADateProposal(bytes32,bytes32,uint256,uint256)": {
        "notice": "title To propose a new GA. This proposal is generated by members. "
      },
      "createProposal(bytes32,bytes32,address,uint256,uint256,uint256,bool)": {
        "notice": "title Create a normal proposal dev   The infomation is stored in two mapping, one is inside the minimal proposal, the additionals are stored in the additionals mappings for the normal proposal."
      },
      "createUpdateStatuteProposal(bytes32,bytes32,bytes32)": {
        "notice": "title Update the constitute hash."
      },
      "createUpdateWalletProposal(bytes32,bytes32,address,address)": {
        "notice": "title Create a proposal (can only be voted during GA). To update the wallet address."
      },
      "getProposalType(bytes32)": {
        "notice": "dev Return the type of proposal: If it is a normal proposal then return false; If it's a GA proposal, return true;"
      },
      "renounceOwnership()": {
        "notice": "Renouncing to ownership will leave the contract without an owner. It will not be possible to call the functions with the `onlyOwner` modifier anymore."
      },
      "setProposalToGA(bytes32,uint256)": {
        "notice": "title New method of allocating a GA proposal (except for the delegate election) to a scheduled GA dev   Need to make sure that the current GA proposal has not yet be assigned. notice Delegate candidacy related proposals cannot be set via such function but another one.  param _proposalID The reference ID of proposals. param _gaIndex The index of the addressed GA."
      },
      "voteForDelegate(bytes32,uint8)": {
        "notice": "title Vote for new delegate proposal. notice There is/are (multiple) proposal(s) for the delegate position. One has only one vote for such proposal that happens at the same time."
      },
      "voteForProposal(bytes32,uint256)": {
        "notice": "notice All the proposals except the vote for delegate can use this function."
      }
    }
  }
}