{
  "contractName": "Treasury",
  "abi": [
    {
      "constant": true,
      "inputs": [],
      "name": "proposalGate",
      "outputs": [
        {
          "name": "",
          "type": "address"
        }
      ],
      "payable": false,
      "stateMutability": "view",
      "type": "function"
    },
    {
      "constant": true,
      "inputs": [],
      "name": "accessibleGate",
      "outputs": [
        {
          "name": "",
          "type": "address"
        }
      ],
      "payable": false,
      "stateMutability": "view",
      "type": "function"
    },
    {
      "constant": true,
      "inputs": [],
      "name": "daoWallet",
      "outputs": [
        {
          "name": "",
          "type": "address"
        }
      ],
      "payable": false,
      "stateMutability": "view",
      "type": "function"
    },
    {
      "constant": false,
      "inputs": [],
      "name": "renounceOwnership",
      "outputs": [],
      "payable": false,
      "stateMutability": "nonpayable",
      "type": "function"
    },
    {
      "constant": true,
      "inputs": [],
      "name": "daoExternalWallet",
      "outputs": [
        {
          "name": "",
          "type": "address"
        }
      ],
      "payable": false,
      "stateMutability": "view",
      "type": "function"
    },
    {
      "constant": true,
      "inputs": [],
      "name": "owner",
      "outputs": [
        {
          "name": "",
          "type": "address"
        }
      ],
      "payable": false,
      "stateMutability": "view",
      "type": "function"
    },
    {
      "constant": true,
      "inputs": [],
      "name": "daa",
      "outputs": [
        {
          "name": "",
          "type": "address"
        }
      ],
      "payable": false,
      "stateMutability": "view",
      "type": "function"
    },
    {
      "constant": true,
      "inputs": [
        {
          "name": "",
          "type": "bytes32"
        }
      ],
      "name": "cleared",
      "outputs": [
        {
          "name": "",
          "type": "bool"
        }
      ],
      "payable": false,
      "stateMutability": "view",
      "type": "function"
    },
    {
      "constant": false,
      "inputs": [
        {
          "name": "_newOwner",
          "type": "address"
        }
      ],
      "name": "transferOwnership",
      "outputs": [],
      "payable": false,
      "stateMutability": "nonpayable",
      "type": "function"
    },
    {
      "inputs": [
        {
          "name": "_walletAdr",
          "type": "address"
        },
        {
          "name": "_extWalletAdr",
          "type": "address"
        },
        {
          "name": "_membershipAdr",
          "type": "address"
        },
        {
          "name": "_proposalInterfaceAdr",
          "type": "address"
        }
      ],
      "payable": false,
      "stateMutability": "nonpayable",
      "type": "constructor"
    },
    {
      "anonymous": false,
      "inputs": [
        {
          "indexed": true,
          "name": "previousOwner",
          "type": "address"
        }
      ],
      "name": "OwnershipRenounced",
      "type": "event"
    },
    {
      "anonymous": false,
      "inputs": [
        {
          "indexed": true,
          "name": "previousOwner",
          "type": "address"
        },
        {
          "indexed": true,
          "name": "newOwner",
          "type": "address"
        }
      ],
      "name": "OwnershipTransferred",
      "type": "event"
    },
    {
      "constant": false,
      "inputs": [
        {
          "name": "_newAccessible",
          "type": "address"
        }
      ],
      "name": "updateMembershipContractAddress",
      "outputs": [],
      "payable": false,
      "stateMutability": "nonpayable",
      "type": "function"
    },
    {
      "constant": false,
      "inputs": [
        {
          "name": "_newProposal",
          "type": "address"
        }
      ],
      "name": "updateProposalContractAddress",
      "outputs": [],
      "payable": false,
      "stateMutability": "nonpayable",
      "type": "function"
    },
    {
      "constant": false,
      "inputs": [
        {
          "name": "_proposalID",
          "type": "bytes32"
        }
      ],
      "name": "startClearing",
      "outputs": [
        {
          "name": "",
          "type": "bool"
        }
      ],
      "payable": false,
      "stateMutability": "nonpayable",
      "type": "function"
    },
    {
      "constant": false,
      "inputs": [],
      "name": "payContribution",
      "outputs": [
        {
          "name": "",
          "type": "bool"
        }
      ],
      "payable": true,
      "stateMutability": "payable",
      "type": "function"
    },
    {
      "constant": false,
      "inputs": [],
      "name": "payNewMembershipFee",
      "outputs": [
        {
          "name": "",
          "type": "bool"
        }
      ],
      "payable": true,
      "stateMutability": "payable",
      "type": "function"
    },
    {
      "constant": false,
      "inputs": [],
      "name": "withdrawMoneyFromInternalWallet",
      "outputs": [
        {
          "name": "",
          "type": "bool"
        }
      ],
      "payable": false,
      "stateMutability": "nonpayable",
      "type": "function"
    },
    {
      "constant": false,
      "inputs": [
        {
          "name": "_proposalID",
          "type": "bytes32"
        }
      ],
      "name": "withdrawMoneyFromExternalWallet",
      "outputs": [
        {
          "name": "",
          "type": "bool"
        }
      ],
      "payable": false,
      "stateMutability": "nonpayable",
      "type": "function"
    },
    {
      "constant": false,
      "inputs": [
        {
          "name": "_proposalID",
          "type": "bytes32"
        }
      ],
      "name": "changeWalletAddress",
      "outputs": [
        {
          "name": "",
          "type": "bool"
        }
      ],
      "payable": false,
      "stateMutability": "nonpayable",
      "type": "function"
    },
    {
      "constant": true,
      "inputs": [
        {
          "name": "_adr",
          "type": "address"
        }
      ],
      "name": "getIndividualContribution",
      "outputs": [
        {
          "name": "",
          "type": "uint256"
        }
      ],
      "payable": false,
      "stateMutability": "view",
      "type": "function"
    },
    {
      "constant": true,
      "inputs": [
        {
          "name": "_proposalID",
          "type": "bytes32"
        }
      ],
      "name": "getProjectExternalFund",
      "outputs": [
        {
          "name": "",
          "type": "uint256"
        }
      ],
      "payable": false,
      "stateMutability": "view",
      "type": "function"
    }
  ],
  "bytecode": "0x608060405234801561001057600080fd5b506040516080806123a783398101806040528101908080519060200190929190805190602001909291908051906020019092919080519060200190929190505050336000806101000a81548173ffffffffffffffffffffffffffffffffffffffff021916908373ffffffffffffffffffffffffffffffffffffffff16021790555083600160006101000a81548173ffffffffffffffffffffffffffffffffffffffff021916908373ffffffffffffffffffffffffffffffffffffffff16021790555082600260006101000a81548173ffffffffffffffffffffffffffffffffffffffff021916908373ffffffffffffffffffffffffffffffffffffffff16021790555081600360006101000a81548173ffffffffffffffffffffffffffffffffffffffff021916908373ffffffffffffffffffffffffffffffffffffffff16021790555080600460006101000a81548173ffffffffffffffffffffffffffffffffffffffff021916908373ffffffffffffffffffffffffffffffffffffffff160217905550505050506121ff806101a86000396000f300608060405260043610610107576000357c0100000000000000000000000000000000000000000000000000000000900463ffffffff16806311bb81471461010c578063240d119514610163578063351839c1146101a8578063698a5897146101ff5780636a07951f14610256578063715018a61461029957806382dc66ea146102b05780638d7f1e15146102f95780638da5cb5b14610350578063945dbfd0146103a75780639d736b1f146103ea578063aac0cbc014610441578063b75db9ee1461048a578063c06b10ea146104d3578063ca57b4a11461052a578063d467f49e14610559578063eeb1249c146105a2578063f2fde38b146105c4578063f89ebc6814610607575b600080fd5b34801561011857600080fd5b50610121610629565b604051808273ffffffffffffffffffffffffffffffffffffffff1673ffffffffffffffffffffffffffffffffffffffff16815260200191505060405180910390f35b34801561016f57600080fd5b50610192600480360381019080803560001916906020019092919050505061064f565b6040518082815260200191505060405180910390f35b3480156101b457600080fd5b506101bd61072c565b604051808273ffffffffffffffffffffffffffffffffffffffff1673ffffffffffffffffffffffffffffffffffffffff16815260200191505060405180910390f35b34801561020b57600080fd5b50610214610752565b604051808273ffffffffffffffffffffffffffffffffffffffff1673ffffffffffffffffffffffffffffffffffffffff16815260200191505060405180910390f35b34801561026257600080fd5b50610297600480360381019080803573ffffffffffffffffffffffffffffffffffffffff169060200190929190505050610778565b005b3480156102a557600080fd5b506102ae61083f565b005b3480156102bc57600080fd5b506102df6004803603810190808035600019169060200190929190505050610941565b604051808215151515815260200191505060405180910390f35b34801561030557600080fd5b5061030e61109e565b604051808273ffffffffffffffffffffffffffffffffffffffff1673ffffffffffffffffffffffffffffffffffffffff16815260200191505060405180910390f35b34801561035c57600080fd5b506103656110c4565b604051808273ffffffffffffffffffffffffffffffffffffffff1673ffffffffffffffffffffffffffffffffffffffff16815260200191505060405180910390f35b3480156103b357600080fd5b506103e8600480360381019080803573ffffffffffffffffffffffffffffffffffffffff1690602001909291905050506110e9565b005b3480156103f657600080fd5b506103ff6111b0565b604051808273ffffffffffffffffffffffffffffffffffffffff1673ffffffffffffffffffffffffffffffffffffffff16815260200191505060405180910390f35b34801561044d57600080fd5b5061047060048036038101908080356000191690602001909291905050506111d6565b604051808215151515815260200191505060405180910390f35b34801561049657600080fd5b506104b960048036038101908080356000191690602001909291905050506112e7565b604051808215151515815260200191505060405180910390f35b3480156104df57600080fd5b50610514600480360381019080803573ffffffffffffffffffffffffffffffffffffffff1690602001909291905050506117b1565b6040518082815260200191505060405180910390f35b34801561053657600080fd5b5061053f6118b2565b604051808215151515815260200191505060405180910390f35b34801561056557600080fd5b506105886004803603810190808035600019169060200190929190505050611a7d565b604051808215151515815260200191505060405180910390f35b6105aa611a9d565b604051808215151515815260200191505060405180910390f35b3480156105d057600080fd5b50610605600480360381019080803573ffffffffffffffffffffffffffffffffffffffff169060200190929190505050611e6f565b005b61060f611ed6565b604051808215151515815260200191505060405180910390f35b600460009054906101000a900473ffffffffffffffffffffffffffffffffffffffff1681565b6000600260009054906101000a900473ffffffffffffffffffffffffffffffffffffffff1673ffffffffffffffffffffffffffffffffffffffff1663240d1195836040518263ffffffff167c0100000000000000000000000000000000000000000000000000000000028152600401808260001916600019168152602001915050602060405180830381600087803b1580156106ea57600080fd5b505af11580156106fe573d6000803e3d6000fd5b505050506040513d602081101561071457600080fd5b81019080805190602001909291905050509050919050565b600360009054906101000a900473ffffffffffffffffffffffffffffffffffffffff1681565b600160009054906101000a900473ffffffffffffffffffffffffffffffffffffffff1681565b6000809054906101000a900473ffffffffffffffffffffffffffffffffffffffff1673ffffffffffffffffffffffffffffffffffffffff163373ffffffffffffffffffffffffffffffffffffffff161415156107d357600080fd5b8060008173ffffffffffffffffffffffffffffffffffffffff16141515156107fa57600080fd5b81600460006101000a81548173ffffffffffffffffffffffffffffffffffffffff021916908373ffffffffffffffffffffffffffffffffffffffff1602179055505050565b6000809054906101000a900473ffffffffffffffffffffffffffffffffffffffff1673ffffffffffffffffffffffffffffffffffffffff163373ffffffffffffffffffffffffffffffffffffffff1614151561089a57600080fd5b6000809054906101000a900473ffffffffffffffffffffffffffffffffffffffff1673ffffffffffffffffffffffffffffffffffffffff167ff8df31144d9c2f0f6b59d69b8b98abd5459d07f2742c4df920b25aae33c6482060405160405180910390a260008060006101000a81548173ffffffffffffffffffffffffffffffffffffffff021916908373ffffffffffffffffffffffffffffffffffffffff160217905550565b600080600083600460009054906101000a900473ffffffffffffffffffffffffffffffffffffffff1673ffffffffffffffffffffffffffffffffffffffff1663f4586647826040518263ffffffff167c0100000000000000000000000000000000000000000000000000000000028152600401808260001916600019168152602001915050602060405180830381600087803b1580156109e057600080fd5b505af11580156109f4573d6000803e3d6000fd5b505050506040513d6020811015610a0a57600080fd5b81019080805190602001909291905050501515610a2657600080fd5b600460009054906101000a900473ffffffffffffffffffffffffffffffffffffffff1673ffffffffffffffffffffffffffffffffffffffff166317ff4b31866040518263ffffffff167c0100000000000000000000000000000000000000000000000000000000028152600401808260001916600019168152602001915050602060405180830381600087803b158015610abf57600080fd5b505af1158015610ad3573d6000803e3d6000fd5b505050506040513d6020811015610ae957600080fd5b81019080805190602001909291905050501515610b0557600080fd5b600460009054906101000a900473ffffffffffffffffffffffffffffffffffffffff1673ffffffffffffffffffffffffffffffffffffffff1663cfca7b37866040518263ffffffff167c01000000000000000000000000000000000000000000000000000000000281526004018082600019166000191681526020019150506040805180830381600087803b158015610b9d57600080fd5b505af1158015610bb1573d6000803e3d6000fd5b505050506040513d6040811015610bc757600080fd5b810190808051906020019092919080519060200190929190505050809350819450505060008373ffffffffffffffffffffffffffffffffffffffff16141580610c27575060008273ffffffffffffffffffffffffffffffffffffffff1614155b1515610c3257600080fd5b60008373ffffffffffffffffffffffffffffffffffffffff16141515610e625782600160006101000a81548173ffffffffffffffffffffffffffffffffffffffff021916908373ffffffffffffffffffffffffffffffffffffffff160217905550600160009054906101000a900473ffffffffffffffffffffffffffffffffffffffff1673ffffffffffffffffffffffffffffffffffffffff1663ec8edf7a846040518263ffffffff167c0100000000000000000000000000000000000000000000000000000000028152600401808273ffffffffffffffffffffffffffffffffffffffff1673ffffffffffffffffffffffffffffffffffffffff168152602001915050602060405180830381600087803b158015610d5057600080fd5b505af1158015610d64573d6000803e3d6000fd5b505050506040513d6020811015610d7a57600080fd5b810190808051906020019092919050505050600560009054906101000a900473ffffffffffffffffffffffffffffffffffffffff1673ffffffffffffffffffffffffffffffffffffffff166361bd9abb846040518263ffffffff167c0100000000000000000000000000000000000000000000000000000000028152600401808273ffffffffffffffffffffffffffffffffffffffff1673ffffffffffffffffffffffffffffffffffffffff168152602001915050600060405180830381600087803b158015610e4957600080fd5b505af1158015610e5d573d6000803e3d6000fd5b505050505b60008273ffffffffffffffffffffffffffffffffffffffff161415156110925781600260006101000a81548173ffffffffffffffffffffffffffffffffffffffff021916908373ffffffffffffffffffffffffffffffffffffffff160217905550600260009054906101000a900473ffffffffffffffffffffffffffffffffffffffff1673ffffffffffffffffffffffffffffffffffffffff1663ec8edf7a836040518263ffffffff167c0100000000000000000000000000000000000000000000000000000000028152600401808273ffffffffffffffffffffffffffffffffffffffff1673ffffffffffffffffffffffffffffffffffffffff168152602001915050602060405180830381600087803b158015610f8057600080fd5b505af1158015610f94573d6000803e3d6000fd5b505050506040513d6020811015610faa57600080fd5b810190808051906020019092919050505050600560009054906101000a900473ffffffffffffffffffffffffffffffffffffffff1673ffffffffffffffffffffffffffffffffffffffff1663dc6c2c52836040518263ffffffff167c0100000000000000000000000000000000000000000000000000000000028152600401808273ffffffffffffffffffffffffffffffffffffffff1673ffffffffffffffffffffffffffffffffffffffff168152602001915050600060405180830381600087803b15801561107957600080fd5b505af115801561108d573d6000803e3d6000fd5b505050505b60019350505050919050565b600260009054906101000a900473ffffffffffffffffffffffffffffffffffffffff1681565b6000809054906101000a900473ffffffffffffffffffffffffffffffffffffffff1681565b6000809054906101000a900473ffffffffffffffffffffffffffffffffffffffff1673ffffffffffffffffffffffffffffffffffffffff163373ffffffffffffffffffffffffffffffffffffffff1614151561114457600080fd5b8060008173ffffffffffffffffffffffffffffffffffffffff161415151561116b57600080fd5b81600360006101000a81548173ffffffffffffffffffffffffffffffffffffffff021916908373ffffffffffffffffffffffffffffffffffffffff1602179055505050565b600560009054906101000a900473ffffffffffffffffffffffffffffffffffffffff1681565b6000600260009054906101000a900473ffffffffffffffffffffffffffffffffffffffff1673ffffffffffffffffffffffffffffffffffffffff1663f55ba1c983336040518363ffffffff167c01000000000000000000000000000000000000000000000000000000000281526004018083600019166000191681526020018273ffffffffffffffffffffffffffffffffffffffff1673ffffffffffffffffffffffffffffffffffffffff16815260200192505050602060405180830381600087803b1580156112a557600080fd5b505af11580156112b9573d6000803e3d6000fd5b505050506040513d60208110156112cf57600080fd5b81019080805190602001909291905050509050919050565b600080600083600460009054906101000a900473ffffffffffffffffffffffffffffffffffffffff1673ffffffffffffffffffffffffffffffffffffffff1663f4586647826040518263ffffffff167c0100000000000000000000000000000000000000000000000000000000028152600401808260001916600019168152602001915050602060405180830381600087803b15801561138657600080fd5b505af115801561139a573d6000803e3d6000fd5b505050506040513d60208110156113b057600080fd5b810190808051906020019092919050505015156113cc57600080fd5b846000801515600460009054906101000a900473ffffffffffffffffffffffffffffffffffffffff1673ffffffffffffffffffffffffffffffffffffffff16630e2f26cf846040518263ffffffff167c0100000000000000000000000000000000000000000000000000000000028152600401808260001916600019168152602001915050602060405180830381600087803b15801561146b57600080fd5b505af115801561147f573d6000803e3d6000fd5b505050506040513d602081101561149557600080fd5b810190808051906020019092919050505015151415156114b457600080fd5b600460009054906101000a900473ffffffffffffffffffffffffffffffffffffffff1673ffffffffffffffffffffffffffffffffffffffff166381423e75886040518263ffffffff167c0100000000000000000000000000000000000000000000000000000000028152600401808260001916600019168152602001915050602060405180830381600087803b15801561154d57600080fd5b505af1158015611561573d6000803e3d6000fd5b505050506040513d602081101561157757600080fd5b81019080805190602001909291905050509450600460009054906101000a900473ffffffffffffffffffffffffffffffffffffffff1673ffffffffffffffffffffffffffffffffffffffff166372851767886040518263ffffffff167c0100000000000000000000000000000000000000000000000000000000028152600401808260001916600019168152602001915050602060405180830381600087803b15801561162357600080fd5b505af1158015611637573d6000803e3d6000fd5b505050506040513d602081101561164d57600080fd5b81019080805190602001909291905050509350600160009054906101000a900473ffffffffffffffffffffffffffffffffffffffff1673ffffffffffffffffffffffffffffffffffffffff16633950935186866040518363ffffffff167c0100000000000000000000000000000000000000000000000000000000028152600401808373ffffffffffffffffffffffffffffffffffffffff1673ffffffffffffffffffffffffffffffffffffffff16815260200182815260200192505050602060405180830381600087803b15801561172557600080fd5b505af1158015611739573d6000803e3d6000fd5b505050506040513d602081101561174f57600080fd5b8101908080519060200190929190505050156117a257600160066000896000191660001916815260200190815260200160002060006101000a81548160ff021916908315150217905550600195506117a7565b600095505b5050505050919050565b6000600160009054906101000a900473ffffffffffffffffffffffffffffffffffffffff1673ffffffffffffffffffffffffffffffffffffffff1663c06b10ea836040518263ffffffff167c0100000000000000000000000000000000000000000000000000000000028152600401808273ffffffffffffffffffffffffffffffffffffffff1673ffffffffffffffffffffffffffffffffffffffff168152602001915050602060405180830381600087803b15801561187057600080fd5b505af1158015611884573d6000803e3d6000fd5b505050506040513d602081101561189a57600080fd5b81019080805190602001909291905050509050919050565b6000600360009054906101000a900473ffffffffffffffffffffffffffffffffffffffff1673ffffffffffffffffffffffffffffffffffffffff1663e257e67b6040518163ffffffff167c0100000000000000000000000000000000000000000000000000000000028152600401602060405180830381600087803b15801561193a57600080fd5b505af115801561194e573d6000803e3d6000fd5b505050506040513d602081101561196457600080fd5b8101908080519060200190929190505050151561198057600080fd5b600160009054906101000a900473ffffffffffffffffffffffffffffffffffffffff1673ffffffffffffffffffffffffffffffffffffffff16632f971029336040518263ffffffff167c0100000000000000000000000000000000000000000000000000000000028152600401808273ffffffffffffffffffffffffffffffffffffffff1673ffffffffffffffffffffffffffffffffffffffff168152602001915050602060405180830381600087803b158015611a3d57600080fd5b505af1158015611a51573d6000803e3d6000fd5b505050506040513d6020811015611a6757600080fd5b8101908080519060200190929190505050905090565b60066020528060005260406000206000915054906101000a900460ff1681565b6000600360009054906101000a900473ffffffffffffffffffffffffffffffffffffffff1673ffffffffffffffffffffffffffffffffffffffff1663e9034b75336040518263ffffffff167c0100000000000000000000000000000000000000000000000000000000028152600401808273ffffffffffffffffffffffffffffffffffffffff1673ffffffffffffffffffffffffffffffffffffffff168152602001915050602060405180830381600087803b158015611b5c57600080fd5b505af1158015611b70573d6000803e3d6000fd5b505050506040513d6020811015611b8657600080fd5b81019080805190602001909291905050501515611ba257600080fd5b600360009054906101000a900473ffffffffffffffffffffffffffffffffffffffff1673ffffffffffffffffffffffffffffffffffffffff16630d932103346040518263ffffffff167c010000000000000000000000000000000000000000000000000000000002815260040180828152602001915050602060405180830381600087803b158015611c3357600080fd5b505af1158015611c47573d6000803e3d6000fd5b505050506040513d6020811015611c5d57600080fd5b81019080805190602001909291905050501515611c7957600080fd5b600360009054906101000a900473ffffffffffffffffffffffffffffffffffffffff1673ffffffffffffffffffffffffffffffffffffffff166398eb8d93336040518263ffffffff167c0100000000000000000000000000000000000000000000000000000000028152600401808273ffffffffffffffffffffffffffffffffffffffff1673ffffffffffffffffffffffffffffffffffffffff168152602001915050602060405180830381600087803b158015611d3657600080fd5b505af1158015611d4a573d6000803e3d6000fd5b505050506040513d6020811015611d6057600080fd5b810190808051906020019092919050505050600160009054906101000a900473ffffffffffffffffffffffffffffffffffffffff1673ffffffffffffffffffffffffffffffffffffffff1663710d5b1434336040518363ffffffff167c0100000000000000000000000000000000000000000000000000000000028152600401808273ffffffffffffffffffffffffffffffffffffffff1673ffffffffffffffffffffffffffffffffffffffff1681526020019150506020604051808303818588803b158015611e2f57600080fd5b505af1158015611e43573d6000803e3d6000fd5b50505050506040513d6020811015611e5a57600080fd5b81019080805190602001909291905050505090565b6000809054906101000a900473ffffffffffffffffffffffffffffffffffffffff1673ffffffffffffffffffffffffffffffffffffffff163373ffffffffffffffffffffffffffffffffffffffff16141515611eca57600080fd5b611ed3816120d9565b50565b6000600360009054906101000a900473ffffffffffffffffffffffffffffffffffffffff1673ffffffffffffffffffffffffffffffffffffffff166321d2a573336040518263ffffffff167c0100000000000000000000000000000000000000000000000000000000028152600401808273ffffffffffffffffffffffffffffffffffffffff1673ffffffffffffffffffffffffffffffffffffffff168152602001915050602060405180830381600087803b158015611f9557600080fd5b505af1158015611fa9573d6000803e3d6000fd5b505050506040513d6020811015611fbf57600080fd5b81019080805190602001909291905050501515611fdb57600080fd5b600160009054906101000a900473ffffffffffffffffffffffffffffffffffffffff1673ffffffffffffffffffffffffffffffffffffffff1663710d5b1434336040518363ffffffff167c0100000000000000000000000000000000000000000000000000000000028152600401808273ffffffffffffffffffffffffffffffffffffffff1673ffffffffffffffffffffffffffffffffffffffff1681526020019150506020604051808303818588803b15801561209857600080fd5b505af11580156120ac573d6000803e3d6000fd5b50505050506040513d60208110156120c357600080fd5b8101908080519060200190929190505050905090565b600073ffffffffffffffffffffffffffffffffffffffff168173ffffffffffffffffffffffffffffffffffffffff161415151561211557600080fd5b8073ffffffffffffffffffffffffffffffffffffffff166000809054906101000a900473ffffffffffffffffffffffffffffffffffffffff1673ffffffffffffffffffffffffffffffffffffffff167f8be0079c531659141344cd1fd0a4f28419497f9722a3daafe3b4186f6b6457e060405160405180910390a3806000806101000a81548173ffffffffffffffffffffffffffffffffffffffff021916908373ffffffffffffffffffffffffffffffffffffffff160217905550505600a165627a7a72305820bc016ae102de7c0afa65ce77770f1a5ca1a68843090ca503060647c6e2b95f980029",
  "source": "/**\n * @title The contract that incorporates the logic of the wallet (for internal usage)\n * @notice This contract is used when proposals are stored as structs but not created as individual contract by the factory.\n */\npragma solidity ^0.4.21;\n\nimport \"./Wallet.sol\";\nimport \"./ExternalWallet.sol\";\nimport \"./Accessible.sol\";\nimport \"./ProposalInterface.sol\";\nimport \"./DAA.sol\";\n\nimport \"../node_modules/openzeppelin-solidity/contracts/math/SafeMath.sol\"; \nimport \"../node_modules/openzeppelin-solidity/contracts/ownership/Ownable.sol\"; \n\ncontract Treasury is Ownable{\n\n    Wallet public daoWallet;\n    ExternalWallet public daoExternalWallet; \n    Accessible public accessibleGate;\n    ProposalInterface public proposalGate;\n    DAA public daa;\n    mapping(bytes32=>bool) public cleared;\n\n    // /**\n    //  *@param WalletType True when the wallet is internal; False when external\n    //  *@param PayorDraw True when the account pays to the wallet; Otherwise, false\n    //  */\n    // event WalletActivity(address indexed Account, bool indexed WalletType, bool indexed PayOrDraw, uint256 Amount, uint256 timeStamp);\n    \n    modifier uponProposalSuccess(bytes32 _proposalID) {\n        require(proposalGate.getProposalFinalResult(_proposalID));\n        _;\n    }\n\n    modifier expectProposalType(bytes32 _proposalID, bool _isGAProposal) {\n        require(proposalGate.getProposalType(_proposalID) == _isGAProposal);\n        _;\n    }\n\n    modifier memberOnly {\n        require(accessibleGate.checkIsMember(msg.sender));\n        _;\n    }\n\n    /**\n     *@dev When the delegate stepped down, no one can drain money from the internal wallet. \n     *     GA proposals can be concluded. Deposit in the external wallet can be reclaimed and withdrawed.\n     *     Normal proposals can be conlcluded, but no money can be withdrawed at the moment until the new delegate is in place.\n     */\n    modifier allowPayout {\n        require(accessibleGate.hasDelegate());\n        _;\n    }\n\n    /**\n     *@dev Check if an adress is not empty.\n     */\n    modifier notEmpty(address _adr) {\n        require(_adr != 0x0);\n        _;\n    }\n\n    /**\n     *@title contructor of the treasury\n     *@dev The treasury operates the two wallets, therefore their addresses are needed.\n     *     Treasury also needs to double check with the status of each member.\n     *     Treasury needs to check the status of proposals with the proposal manager.\n     *@param _walletAdr The address of the DAO wallet\n     *@param _extWalletAdr The address of the wallet where external organisations can deposit money\n     *@param _membershipAdr The address of the Membership contract\n     *@param _proposalInterfaceAdr The address of the proposal Manager (interface)\n     */\n    constructor(address _walletAdr, address _extWalletAdr, address _membershipAdr, address _proposalInterfaceAdr) public {\n        daoWallet = Wallet(_walletAdr);\n        daoExternalWallet = ExternalWallet(_extWalletAdr);\n        accessibleGate = Accessible(_membershipAdr);\n        proposalGate = ProposalInterface(_proposalInterfaceAdr);\n    }\n\n    /**\n     *@title Update the address of the membership contract\n     *@dev This function can only be called by the DAA, eventually trigged by a successful proposal\n     *@param _newAccessible The address of the new membership contract.\n     */\n    function updateMembershipContractAddress(address _newAccessible) public onlyOwner notEmpty(_newAccessible) {\n        // require(_newAccessible != 0x0);\n        accessibleGate = Accessible(_newAccessible);\n    }\n\n    /**\n     *@title Update address of the proposal manager contract\n     *@dev This function can only be called by the DAA, eventually trigged by a successful proposal\n     *@param _newProposal The address of the new proposal manager contract.\n     */\n    function updateProposalContractAddress(address _newProposal) public onlyOwner notEmpty(_newProposal) {\n        // require(_newProposal != 0x0);\n        proposalGate = ProposalInterface(_newProposal);\n    }\n\n    /**\n     *@title After a normal proposal is concluded, the beneficiary can trigger this function and\n     *       let the treasury to prepare for the allowance accordingly.\n     *@dev Anyone can call this function to let the tresury increase allowance of \n     *       the beneficiary after the conclusion of proposals.\n     *@param _proposalID the reference ID of proposals.\n     */\n    function startClearing(bytes32 _proposalID) uponProposalSuccess(_proposalID) expectProposalType(_proposalID, false) public returns (bool) {\n        address _destination = proposalGate.getProposaldestinationAddress(_proposalID);\n        uint256 _amount = proposalGate.getProposalAllowance(_proposalID);\n        if (daoWallet.increaseAllowance(_destination, _amount)) {\n            cleared[_proposalID] = true;\n            return true;\n        } else {\n            return false;\n        }\n    }\n\n    /**\n     *@title Member pay annual membership fee with this function\n     *@dev Transfer the money to the wallet.\n     */\n    function payContribution() public payable memberOnly returns(bool) {\n        return daoWallet.payContribution.value(msg.value)(msg.sender);\n    }\n    \n    /**\n     *@title Pay the fee when the membership is granted (whitelisted by two)\n     *@dev Transfer the money to the wallet only when the value is higher than needed.\n     */\n    function payNewMembershipFee() public payable returns (bool) {\n        require(accessibleGate.checkIsWhitelistedByTwo(msg.sender));\n        require(accessibleGate.reachDesiredValue(msg.value));\n\n        accessibleGate.addNewMember(msg.sender);\n        daoWallet.payContribution.value(msg.value)(msg.sender);\n\n        // emit WalletActivity(msg.sender, true, true, msg.value, block.timestamp);\n    }\n    \n    /**\n     *@title The beneficiary can request payment when proposal is successful and properly concluded.\n     *@dev This action can only be taken when there's a delegate of the DAAS.\n     */\n    function withdrawMoneyFromInternalWallet() public allowPayout returns(bool) {\n        return daoWallet.withdrawMoney(msg.sender);\n    }\n\n    /**\n     *@title The beneficiary can also withdraw money from the external wallet if possible\n     *@dev This action can take place even the delegate is not in charge (no modifier of \"allowPayout\")\n     *@param _proposalID the reference ID of proposals.\n     */\n    function withdrawMoneyFromExternalWallet(bytes32 _proposalID) public returns (bool) {\n        return daoExternalWallet.withdrawMoney(_proposalID, msg.sender);\n    }\n\n    /**\n     *@title Change the address of wallets, upon success of proposal\n     *@dev When the proposal is successful, anyone can trigger this action.\n     *@notice Anyone can call this function.\n     *@param _proposalID the reference ID of proposals.\n     */\n    function changeWalletAddress(\n        bytes32 _proposalID\n    ) public uponProposalSuccess(_proposalID) returns (bool) {\n        require(proposalGate.checkActionIsUpdateWallet(_proposalID));\n        address _newInternalWalletAdr;\n        address _newExternalWalletAdr;\n        (_newInternalWalletAdr, _newExternalWalletAdr) = proposalGate.getProposalProposedWalletAddress(_proposalID);\n        // require(msg.sender == address(proposalGate));\n        require(_newInternalWalletAdr != 0x0 || _newExternalWalletAdr != 0x0);\n        // This function can only be called by the proposalManager (upon )\n        // only upon success of GA proposal. If one address is 0x0 then that wallet doesn't change.\n        if (_newInternalWalletAdr != 0x0) {\n            daoWallet = Wallet(_newInternalWalletAdr);\n            daoWallet.changeWalletAddress(_newInternalWalletAdr);\n            daa.updateInternalWallet(_newInternalWalletAdr);\n        }\n        if (_newExternalWalletAdr != 0x0) {\n            daoExternalWallet = ExternalWallet(_newExternalWalletAdr);\n            daoExternalWallet.changeWalletAddress(_newExternalWalletAdr);\n            daa.updateExternalWallet(_newExternalWalletAdr);\n        }\n        return true;\n    }\n    \n    /**\n     *@title Getter of member's contribution (membership fee/donation)\n     *@param _adr the address of account\n     */\n    function getIndividualContribution(address _adr) public view returns (uint256) {\n        return daoWallet.getIndividualContribution(_adr);\n    }\n\n    /**\n     *@title Getter of external funding of each external funds\n     *@param _proposalID the reference ID of proposals.\n     */\n    function getProjectExternalFund(bytes32 _proposalID) public view returns (uint256) {\n        return daoExternalWallet.getProjectExternalFund(_proposalID);\n    }\n}",
  "sourcePath": "C:\\Users\\vasil\\OneDrive\\Documents\\02_e-swissolar\\02_prj\\Truffle-React-ReFiDAO-Sandbox\\backend\\contracts\\Treasury.sol",
  "compiler": {
    "name": "solc",
    "version": "0.4.26+commit.4563c3fc.Emscripten.clang"
  },
  "schemaVersion": "3.4.4",
  "updatedAt": "2022-08-09T20:27:20.170Z",
  "networkType": "ethereum",
  "devdoc": {
    "methods": {
      "renounceOwnership()": {
        "details": "Allows the current owner to relinquish control of the contract."
      },
      "transferOwnership(address)": {
        "details": "Allows the current owner to transfer control of the contract to a newOwner.",
        "params": {
          "_newOwner": "The address to transfer ownership to."
        }
      }
    }
  },
  "userdoc": {
    "methods": {
      "changeWalletAddress(bytes32)": {
        "notice": "title Change the address of wallets, upon success of proposal dev When the proposal is successful, anyone can trigger this action. notice Anyone can call this function. param _proposalID the reference ID of proposals."
      },
      "getIndividualContribution(address)": {
        "notice": "title Getter of member's contribution (membership fee/donation) param _adr the address of account"
      },
      "getProjectExternalFund(bytes32)": {
        "notice": "title Getter of external funding of each external funds param _proposalID the reference ID of proposals."
      },
      "payContribution()": {
        "notice": "title Member pay annual membership fee with this function dev Transfer the money to the wallet."
      },
      "payNewMembershipFee()": {
        "notice": "title Pay the fee when the membership is granted (whitelisted by two) dev Transfer the money to the wallet only when the value is higher than needed."
      },
      "renounceOwnership()": {
        "notice": "Renouncing to ownership will leave the contract without an owner. It will not be possible to call the functions with the `onlyOwner` modifier anymore."
      },
      "startClearing(bytes32)": {
        "notice": "title After a normal proposal is concluded, the beneficiary can trigger this function and      let the treasury to prepare for the allowance accordingly. dev Anyone can call this function to let the tresury increase allowance of       the beneficiary after the conclusion of proposals. param _proposalID the reference ID of proposals."
      },
      "updateMembershipContractAddress(address)": {
        "notice": "title Update the address of the membership contract dev This function can only be called by the DAA, eventually trigged by a successful proposal param _newAccessible The address of the new membership contract."
      },
      "updateProposalContractAddress(address)": {
        "notice": "title Update address of the proposal manager contract dev This function can only be called by the DAA, eventually trigged by a successful proposal param _newProposal The address of the new proposal manager contract."
      },
      "withdrawMoneyFromExternalWallet(bytes32)": {
        "notice": "title The beneficiary can also withdraw money from the external wallet if possible dev This action can take place even the delegate is not in charge (no modifier of \"allowPayout\") param _proposalID the reference ID of proposals."
      },
      "withdrawMoneyFromInternalWallet()": {
        "notice": "title The beneficiary can request payment when proposal is successful and properly concluded. dev This action can only be taken when there's a delegate of the DAAS."
      }
    }
  }
}