{
  "contractName": "Wallet",
  "abi": [
    {
      "constant": true,
      "inputs": [],
      "name": "totalAllowance",
      "outputs": [
        {
          "name": "",
          "type": "uint256"
        }
      ],
      "payable": false,
      "stateMutability": "view",
      "type": "function"
    },
    {
      "constant": true,
      "inputs": [
        {
          "name": "",
          "type": "address"
        }
      ],
      "name": "withdrawingAllowance",
      "outputs": [
        {
          "name": "",
          "type": "uint256"
        }
      ],
      "payable": false,
      "stateMutability": "view",
      "type": "function"
    },
    {
      "constant": true,
      "inputs": [
        {
          "name": "",
          "type": "address"
        }
      ],
      "name": "individualContribution",
      "outputs": [
        {
          "name": "",
          "type": "uint256"
        }
      ],
      "payable": false,
      "stateMutability": "view",
      "type": "function"
    },
    {
      "constant": true,
      "inputs": [
        {
          "name": "",
          "type": "address"
        }
      ],
      "name": "allowance",
      "outputs": [
        {
          "name": "",
          "type": "uint256"
        }
      ],
      "payable": false,
      "stateMutability": "view",
      "type": "function"
    },
    {
      "constant": false,
      "inputs": [],
      "name": "renounceOwnership",
      "outputs": [],
      "payable": false,
      "stateMutability": "nonpayable",
      "type": "function"
    },
    {
      "constant": true,
      "inputs": [],
      "name": "owner",
      "outputs": [
        {
          "name": "",
          "type": "address"
        }
      ],
      "payable": false,
      "stateMutability": "view",
      "type": "function"
    },
    {
      "constant": true,
      "inputs": [],
      "name": "totalBalance",
      "outputs": [
        {
          "name": "",
          "type": "uint256"
        }
      ],
      "payable": false,
      "stateMutability": "view",
      "type": "function"
    },
    {
      "constant": false,
      "inputs": [
        {
          "name": "_newOwner",
          "type": "address"
        }
      ],
      "name": "transferOwnership",
      "outputs": [],
      "payable": false,
      "stateMutability": "nonpayable",
      "type": "function"
    },
    {
      "inputs": [],
      "payable": false,
      "stateMutability": "nonpayable",
      "type": "constructor"
    },
    {
      "payable": true,
      "stateMutability": "payable",
      "type": "fallback"
    },
    {
      "anonymous": false,
      "inputs": [
        {
          "indexed": true,
          "name": "Account",
          "type": "address"
        },
        {
          "indexed": false,
          "name": "Amount",
          "type": "uint256"
        },
        {
          "indexed": false,
          "name": "Timestamp",
          "type": "uint256"
        }
      ],
      "name": "IncreaseAllowance",
      "type": "event"
    },
    {
      "anonymous": false,
      "inputs": [
        {
          "indexed": true,
          "name": "Account",
          "type": "address"
        },
        {
          "indexed": false,
          "name": "Amount",
          "type": "uint256"
        },
        {
          "indexed": false,
          "name": "Timestamp",
          "type": "uint256"
        }
      ],
      "name": "AcceptPayment",
      "type": "event"
    },
    {
      "anonymous": false,
      "inputs": [
        {
          "indexed": true,
          "name": "Account",
          "type": "address"
        },
        {
          "indexed": false,
          "name": "Amount",
          "type": "uint256"
        },
        {
          "indexed": false,
          "name": "Timestamp",
          "type": "uint256"
        }
      ],
      "name": "WithdrawMoney",
      "type": "event"
    },
    {
      "anonymous": false,
      "inputs": [
        {
          "indexed": true,
          "name": "previousOwner",
          "type": "address"
        }
      ],
      "name": "OwnershipRenounced",
      "type": "event"
    },
    {
      "anonymous": false,
      "inputs": [
        {
          "indexed": true,
          "name": "previousOwner",
          "type": "address"
        },
        {
          "indexed": true,
          "name": "newOwner",
          "type": "address"
        }
      ],
      "name": "OwnershipTransferred",
      "type": "event"
    },
    {
      "constant": false,
      "inputs": [
        {
          "name": "_adr",
          "type": "address"
        },
        {
          "name": "_amount",
          "type": "uint256"
        }
      ],
      "name": "increaseAllowance",
      "outputs": [
        {
          "name": "",
          "type": "bool"
        }
      ],
      "payable": false,
      "stateMutability": "nonpayable",
      "type": "function"
    },
    {
      "constant": false,
      "inputs": [
        {
          "name": "_adr",
          "type": "address"
        }
      ],
      "name": "payContribution",
      "outputs": [
        {
          "name": "",
          "type": "bool"
        }
      ],
      "payable": true,
      "stateMutability": "payable",
      "type": "function"
    },
    {
      "constant": false,
      "inputs": [
        {
          "name": "_adr",
          "type": "address"
        }
      ],
      "name": "withdrawMoney",
      "outputs": [
        {
          "name": "",
          "type": "bool"
        }
      ],
      "payable": false,
      "stateMutability": "nonpayable",
      "type": "function"
    },
    {
      "constant": false,
      "inputs": [
        {
          "name": "_newAdr",
          "type": "address"
        }
      ],
      "name": "changeWalletAddress",
      "outputs": [
        {
          "name": "",
          "type": "bool"
        }
      ],
      "payable": false,
      "stateMutability": "nonpayable",
      "type": "function"
    },
    {
      "constant": true,
      "inputs": [
        {
          "name": "_adr",
          "type": "address"
        }
      ],
      "name": "getIndividualContribution",
      "outputs": [
        {
          "name": "",
          "type": "uint256"
        }
      ],
      "payable": false,
      "stateMutability": "view",
      "type": "function"
    },
    {
      "constant": true,
      "inputs": [],
      "name": "getTotalBalance",
      "outputs": [
        {
          "name": "",
          "type": "uint256"
        },
        {
          "name": "",
          "type": "uint256"
        }
      ],
      "payable": false,
      "stateMutability": "view",
      "type": "function"
    }
  ],
  "bytecode": "0x608060405234801561001057600080fd5b50336000806101000a81548173ffffffffffffffffffffffffffffffffffffffff021916908373ffffffffffffffffffffffffffffffffffffffff1602179055506111c5806100606000396000f3006080604052600436106100d0576000357c0100000000000000000000000000000000000000000000000000000000900463ffffffff16806312b583491461018257806326e3208d146101b45780632e120f1a146101df5780632f97102914610236578063355579bb1461029157806339509351146102e85780633e5beab91461034d578063710d5b14146103a4578063715018a6146103f25780638da5cb5b14610409578063ad7a672f14610460578063c06b10ea1461048b578063ec8edf7a146104e2578063f2fde38b1461053d575b6100e53460015461058090919063ffffffff16565b60018190555061013d34600360003373ffffffffffffffffffffffffffffffffffffffff1673ffffffffffffffffffffffffffffffffffffffff1681526020019081526020016000205461058090919063ffffffff16565b600360003373ffffffffffffffffffffffffffffffffffffffff1673ffffffffffffffffffffffffffffffffffffffff16815260200190815260200160002081905550005b34801561018e57600080fd5b5061019761059c565b604051808381526020018281526020019250505060405180910390f35b3480156101c057600080fd5b506101c96105c2565b6040518082815260200191505060405180910390f35b3480156101eb57600080fd5b50610220600480360381019080803573ffffffffffffffffffffffffffffffffffffffff1690602001909291905050506105c8565b6040518082815260200191505060405180910390f35b34801561024257600080fd5b50610277600480360381019080803573ffffffffffffffffffffffffffffffffffffffff1690602001909291905050506105e0565b604051808215151515815260200191505060405180910390f35b34801561029d57600080fd5b506102d2600480360381019080803573ffffffffffffffffffffffffffffffffffffffff169060200190929190505050610aa5565b6040518082815260200191505060405180910390f35b3480156102f457600080fd5b50610333600480360381019080803573ffffffffffffffffffffffffffffffffffffffff16906020019092919080359060200190929190505050610abd565b604051808215151515815260200191505060405180910390f35b34801561035957600080fd5b5061038e600480360381019080803573ffffffffffffffffffffffffffffffffffffffff169060200190929190505050610c4f565b6040518082815260200191505060405180910390f35b6103d8600480360381019080803573ffffffffffffffffffffffffffffffffffffffff169060200190929190505050610c67565b604051808215151515815260200191505060405180910390f35b3480156103fe57600080fd5b50610407610dd8565b005b34801561041557600080fd5b5061041e610eda565b604051808273ffffffffffffffffffffffffffffffffffffffff1673ffffffffffffffffffffffffffffffffffffffff16815260200191505060405180910390f35b34801561046c57600080fd5b50610475610eff565b6040518082815260200191505060405180910390f35b34801561049757600080fd5b506104cc600480360381019080803573ffffffffffffffffffffffffffffffffffffffff169060200190929190505050610f05565b6040518082815260200191505060405180910390f35b3480156104ee57600080fd5b50610523600480360381019080803573ffffffffffffffffffffffffffffffffffffffff169060200190929190505050610fa9565b604051808215151515815260200191505060405180910390f35b34801561054957600080fd5b5061057e600480360381019080803573ffffffffffffffffffffffffffffffffffffffff16906020019092919050505061101f565b005b6000818301905082811015151561059357fe5b80905092915050565b6000806001543073ffffffffffffffffffffffffffffffffffffffff1631915091509091565b60025481565b60056020528060005260406000206000915090505481565b6000806000809054906101000a900473ffffffffffffffffffffffffffffffffffffffff1673ffffffffffffffffffffffffffffffffffffffff163373ffffffffffffffffffffffffffffffffffffffff1614151561063e57600080fd5b6000600460008573ffffffffffffffffffffffffffffffffffffffff1673ffffffffffffffffffffffffffffffffffffffff1681526020019081526020016000205411151561068c57600080fd5b600460008473ffffffffffffffffffffffffffffffffffffffff1673ffffffffffffffffffffffffffffffffffffffff16815260200190815260200160002054905080600560008573ffffffffffffffffffffffffffffffffffffffff1673ffffffffffffffffffffffffffffffffffffffff1681526020019081526020016000208190555061076481600460008673ffffffffffffffffffffffffffffffffffffffff1673ffffffffffffffffffffffffffffffffffffffff1681526020019081526020016000205461108690919063ffffffff16565b600460008573ffffffffffffffffffffffffffffffffffffffff1673ffffffffffffffffffffffffffffffffffffffff16815260200190815260200160002081905550600115158373ffffffffffffffffffffffffffffffffffffffff166108fc600560008773ffffffffffffffffffffffffffffffffffffffff1673ffffffffffffffffffffffffffffffffffffffff168152602001908152602001600020549081150290604051600060405180830381858888f19350505050151514156109815761087b600560008573ffffffffffffffffffffffffffffffffffffffff1673ffffffffffffffffffffffffffffffffffffffff1681526020019081526020016000205460025461108690919063ffffffff16565b6002819055506108d5600560008573ffffffffffffffffffffffffffffffffffffffff1673ffffffffffffffffffffffffffffffffffffffff1681526020019081526020016000205460015461108690919063ffffffff16565b6001819055506000600560008573ffffffffffffffffffffffffffffffffffffffff1673ffffffffffffffffffffffffffffffffffffffff168152602001908152602001600020819055508273ffffffffffffffffffffffffffffffffffffffff167fffdf9949b883482fd232d2225f68c9ce832fc3b7c52870a394d723636a451e0860025442604051808381526020018281526020019250505060405180910390a260019150610a9f565b610a12600560008573ffffffffffffffffffffffffffffffffffffffff1673ffffffffffffffffffffffffffffffffffffffff16815260200190815260200160002054600460008673ffffffffffffffffffffffffffffffffffffffff1673ffffffffffffffffffffffffffffffffffffffff1681526020019081526020016000205461058090919063ffffffff16565b600460008573ffffffffffffffffffffffffffffffffffffffff1673ffffffffffffffffffffffffffffffffffffffff168152602001908152602001600020819055506000600560008573ffffffffffffffffffffffffffffffffffffffff1673ffffffffffffffffffffffffffffffffffffffff16815260200190815260200160002081905550600091505b50919050565b60036020528060005260406000206000915090505481565b60008060009054906101000a900473ffffffffffffffffffffffffffffffffffffffff1673ffffffffffffffffffffffffffffffffffffffff163373ffffffffffffffffffffffffffffffffffffffff16141515610b1a57600080fd5b600154610b328360025461058090919063ffffffff16565b11151515610b3f57600080fd5b610b9182600460008673ffffffffffffffffffffffffffffffffffffffff1673ffffffffffffffffffffffffffffffffffffffff1681526020019081526020016000205461058090919063ffffffff16565b600460008573ffffffffffffffffffffffffffffffffffffffff1673ffffffffffffffffffffffffffffffffffffffff16815260200190815260200160002081905550610be98260025461058090919063ffffffff16565b6002819055508273ffffffffffffffffffffffffffffffffffffffff167f5faae468e3fa9bdfc284e6f2d41d01ae91b0203de601b28fc438b8b87ecd306b8342604051808381526020018281526020019250505060405180910390a26001905092915050565b60046020528060005260406000206000915090505481565b6000806000809054906101000a900473ffffffffffffffffffffffffffffffffffffffff1673ffffffffffffffffffffffffffffffffffffffff163373ffffffffffffffffffffffffffffffffffffffff16141515610cc557600080fd5b349050610cdd8160015461058090919063ffffffff16565b600181905550610d3581600360008673ffffffffffffffffffffffffffffffffffffffff1673ffffffffffffffffffffffffffffffffffffffff1681526020019081526020016000205461058090919063ffffffff16565b600360008573ffffffffffffffffffffffffffffffffffffffff1673ffffffffffffffffffffffffffffffffffffffff168152602001908152602001600020819055508273ffffffffffffffffffffffffffffffffffffffff167f2d2dd38fdc18fb0446905672f93ffb9a125aee241ffec7912bfb054ddeaaf3298242604051808381526020018281526020019250505060405180910390a26001915050919050565b6000809054906101000a900473ffffffffffffffffffffffffffffffffffffffff1673ffffffffffffffffffffffffffffffffffffffff163373ffffffffffffffffffffffffffffffffffffffff16141515610e3357600080fd5b6000809054906101000a900473ffffffffffffffffffffffffffffffffffffffff1673ffffffffffffffffffffffffffffffffffffffff167ff8df31144d9c2f0f6b59d69b8b98abd5459d07f2742c4df920b25aae33c6482060405160405180910390a260008060006101000a81548173ffffffffffffffffffffffffffffffffffffffff021916908373ffffffffffffffffffffffffffffffffffffffff160217905550565b6000809054906101000a900473ffffffffffffffffffffffffffffffffffffffff1681565b60015481565b60008060009054906101000a900473ffffffffffffffffffffffffffffffffffffffff1673ffffffffffffffffffffffffffffffffffffffff163373ffffffffffffffffffffffffffffffffffffffff16141515610f6257600080fd5b600360008373ffffffffffffffffffffffffffffffffffffffff1673ffffffffffffffffffffffffffffffffffffffff168152602001908152602001600020549050919050565b60008060009054906101000a900473ffffffffffffffffffffffffffffffffffffffff1673ffffffffffffffffffffffffffffffffffffffff163373ffffffffffffffffffffffffffffffffffffffff1614151561100657600080fd5b8173ffffffffffffffffffffffffffffffffffffffff16ff5b6000809054906101000a900473ffffffffffffffffffffffffffffffffffffffff1673ffffffffffffffffffffffffffffffffffffffff163373ffffffffffffffffffffffffffffffffffffffff1614151561107a57600080fd5b6110838161109f565b50565b600082821115151561109457fe5b818303905092915050565b600073ffffffffffffffffffffffffffffffffffffffff168173ffffffffffffffffffffffffffffffffffffffff16141515156110db57600080fd5b8073ffffffffffffffffffffffffffffffffffffffff166000809054906101000a900473ffffffffffffffffffffffffffffffffffffffff1673ffffffffffffffffffffffffffffffffffffffff167f8be0079c531659141344cd1fd0a4f28419497f9722a3daafe3b4186f6b6457e060405160405180910390a3806000806101000a81548173ffffffffffffffffffffffffffffffffffffffff021916908373ffffffffffffffffffffffffffffffffffffffff160217905550505600a165627a7a72305820a2d543d21dace5b883d4fa5f337a61b5038460a4addd8ac0ea7269a6b495d1610029",
  "source": "/**\n * @title The contract that incorporates the logic of the wallet (for internal usage)\n * @notice This contract is used when proposals are stored as structs but not created as individual contract by the factory.\n */\npragma solidity ^0.4.21;\n\nimport \"../node_modules/openzeppelin-solidity/contracts/math/SafeMath.sol\"; \nimport \"../node_modules/openzeppelin-solidity/contracts/ownership/Ownable.sol\";\n\ncontract Wallet is Ownable {\n\n    using SafeMath for uint256;\n\n    uint256 public totalBalance;\n    uint256 public totalAllowance;\n    // mapping(address=>uint256) public lastPaidYear;\n    mapping(address=>uint256) public individualContribution;     // This mapping can be made from a hashed address to the amount (in order to hide sensitive information)\n    mapping(address=>uint256) public allowance;\n    mapping(address=>uint256) public withdrawingAllowance;\n\n\n    event IncreaseAllowance(address indexed Account, uint256 Amount, uint256 Timestamp);\n    event AcceptPayment(address indexed Account, uint256 Amount, uint256 Timestamp);\n    event WithdrawMoney(address indexed Account, uint256 Amount, uint256 Timestamp);\n\n    constructor() public {}\n\n    /**\n     *@title fallback when receving money for unknown reason\n     *@dev If some extra money received. Well, thank you.\n     */\n    function() public payable {\n        totalBalance = totalBalance.add(msg.value);\n        individualContribution[msg.sender] = individualContribution[msg.sender].add(msg.value);\n    }\n    /**\n     *@title Increase the allowance of the account to withdraw\n     *@dev This function is called when the proposal is successful, therefore it allows certain account to withdraw money from this wallet (via treasury account)\n     */\n    function increaseAllowance(address _adr, uint256 _amount) public onlyOwner returns (bool) {\n        require(totalAllowance.add(_amount) <= totalBalance);\n        allowance[_adr] = allowance[_adr].add(_amount);\n        totalAllowance = totalAllowance.add(_amount);\n        emit IncreaseAllowance(_adr, _amount, block.timestamp);\n        return true;\n    }\n\n    //@dev This function actually accepts users to pay for another one. Therefore, we use an explicit destination address, instead of tx.origin\n    /**\n     *@title Accept the member to pay their membership fee, via Treasury\n     *@dev\n     */\n    function payContribution(address _adr) public payable onlyOwner returns(bool) {\n        uint256 _amount = msg.value;\n        totalBalance = totalBalance.add(_amount);\n        individualContribution[_adr] = individualContribution[_adr].add(_amount);\n        emit AcceptPayment(_adr, _amount, block.timestamp);\n        return true;\n    }\n\n    /**\n     *@title Let beneficiary withdraw money, if the proposal is successful\n     *@dev When the account asks for money, the wallet gives all that is allowed.\n     *@notice We create a sandbox where stores a snapshot of ready-to-withdraw money. \n        The amount can be reverted back to main balance sheet if needed.\n     */\n    function withdrawMoney(address _adr) public onlyOwner returns(bool) {\n        require(allowance[_adr] > 0);\n\n        uint256 operatingAmount = allowance[_adr];\n        withdrawingAllowance[_adr] = operatingAmount;\n        allowance[_adr] = allowance[_adr].sub(operatingAmount);\n\n        if (_adr.send(withdrawingAllowance[_adr]) == true) {\n            totalAllowance = totalAllowance.sub(withdrawingAllowance[_adr]);\n            totalBalance = totalBalance.sub(withdrawingAllowance[_adr]);\n            withdrawingAllowance[_adr] = 0;\n            emit WithdrawMoney(_adr, totalAllowance, block.timestamp);\n            return true;\n        } else {\n            allowance[_adr] = allowance[_adr].add(withdrawingAllowance[_adr]);\n            withdrawingAllowance[_adr] = 0;\n            return false;\n        }\n    }\n\n    /**\n     *@title When smth happened, change the external wallet addres to the new one. \n     *@dev This is owner-only, which is DAA only\n     *@notice By calling this function, all the ledger and logic in the contract are lost. \n     Only money is transferred to another address.\n     */\n    function changeWalletAddress(address _newAdr) public onlyOwner returns (bool) {\n        selfdestruct(_newAdr);\n        return true;\n    }\n\n    /**\n     *@title Getter for the individual contribution.\n     *@param _proposalID the reference ID of proposals\n     */\n    function getIndividualContribution(address _adr) public view onlyOwner returns (uint256) {\n        return individualContribution[_adr];\n    }\n\n    /**\n     *@title Getter for current balance\n     */\n    function getTotalBalance() public view returns (uint256, uint256) {\n        return (totalBalance, address(this).balance);\n    }\n}",
  "sourcePath": "C:\\Users\\vasil\\OneDrive\\Documents\\02_e-swissolar\\02_prj\\Truffle-React-ReFiDAO-Sandbox\\backend\\contracts\\Wallet.sol",
  "compiler": {
    "name": "solc",
    "version": "0.4.26+commit.4563c3fc.Emscripten.clang"
  },
  "schemaVersion": "3.4.4",
  "updatedAt": "2022-08-09T20:27:20.141Z",
  "networkType": "ethereum",
  "devdoc": {
    "methods": {
      "renounceOwnership()": {
        "details": "Allows the current owner to relinquish control of the contract."
      },
      "transferOwnership(address)": {
        "details": "Allows the current owner to transfer control of the contract to a newOwner.",
        "params": {
          "_newOwner": "The address to transfer ownership to."
        }
      }
    }
  },
  "userdoc": {
    "methods": {
      "changeWalletAddress(address)": {
        "notice": "title When smth happened, change the external wallet addres to the new one.  dev This is owner-only, which is DAA only notice By calling this function, all the ledger and logic in the contract are lost.  Only money is transferred to another address."
      },
      "getIndividualContribution(address)": {
        "notice": "title Getter for the individual contribution. param _proposalID the reference ID of proposals"
      },
      "getTotalBalance()": {
        "notice": "title Getter for current balance"
      },
      "increaseAllowance(address,uint256)": {
        "notice": "title Increase the allowance of the account to withdraw dev This function is called when the proposal is successful, therefore it allows certain account to withdraw money from this wallet (via treasury account)"
      },
      "payContribution(address)": {
        "notice": "title Accept the member to pay their membership fee, via Treasury dev"
      },
      "renounceOwnership()": {
        "notice": "Renouncing to ownership will leave the contract without an owner. It will not be possible to call the functions with the `onlyOwner` modifier anymore."
      },
      "withdrawMoney(address)": {
        "notice": "title Let beneficiary withdraw money, if the proposal is successful dev When the account asks for money, the wallet gives all that is allowed. notice We create a sandbox where stores a snapshot of ready-to-withdraw money.  The amount can be reverted back to main balance sheet if needed."
      }
    }
  }
}