{
  "contractName": "DAA",
  "abi": [
    {
      "constant": true,
      "inputs": [],
      "name": "active",
      "outputs": [
        {
          "name": "",
          "type": "bool"
        }
      ],
      "payable": false,
      "stateMutability": "view",
      "type": "function"
    },
    {
      "constant": true,
      "inputs": [],
      "name": "treasuryContract",
      "outputs": [
        {
          "name": "",
          "type": "address"
        }
      ],
      "payable": false,
      "stateMutability": "view",
      "type": "function"
    },
    {
      "constant": true,
      "inputs": [],
      "name": "externalWalletAddress",
      "outputs": [
        {
          "name": "",
          "type": "address"
        }
      ],
      "payable": false,
      "stateMutability": "view",
      "type": "function"
    },
    {
      "constant": true,
      "inputs": [],
      "name": "proposalManagerContract",
      "outputs": [
        {
          "name": "",
          "type": "address"
        }
      ],
      "payable": false,
      "stateMutability": "view",
      "type": "function"
    },
    {
      "constant": true,
      "inputs": [],
      "name": "membershipContract",
      "outputs": [
        {
          "name": "",
          "type": "address"
        }
      ],
      "payable": false,
      "stateMutability": "view",
      "type": "function"
    },
    {
      "constant": true,
      "inputs": [],
      "name": "walletAddress",
      "outputs": [
        {
          "name": "",
          "type": "address"
        }
      ],
      "payable": false,
      "stateMutability": "view",
      "type": "function"
    },
    {
      "constant": true,
      "inputs": [],
      "name": "gaManagerContract",
      "outputs": [
        {
          "name": "",
          "type": "address"
        }
      ],
      "payable": false,
      "stateMutability": "view",
      "type": "function"
    },
    {
      "constant": true,
      "inputs": [],
      "name": "alreadyBeCalledOnce",
      "outputs": [
        {
          "name": "",
          "type": "bool"
        }
      ],
      "payable": false,
      "stateMutability": "view",
      "type": "function"
    },
    {
      "inputs": [
        {
          "name": "_membership",
          "type": "address"
        },
        {
          "name": "_proposalManager",
          "type": "address"
        },
        {
          "name": "_GA",
          "type": "address"
        },
        {
          "name": "_treasury",
          "type": "address"
        },
        {
          "name": "_wallet",
          "type": "address"
        },
        {
          "name": "_externalWallet",
          "type": "address"
        }
      ],
      "payable": false,
      "stateMutability": "nonpayable",
      "type": "constructor"
    },
    {
      "constant": false,
      "inputs": [
        {
          "name": "_newAdr",
          "type": "address"
        }
      ],
      "name": "updateMembershipAddress",
      "outputs": [],
      "payable": false,
      "stateMutability": "nonpayable",
      "type": "function"
    },
    {
      "constant": false,
      "inputs": [
        {
          "name": "_newAdr",
          "type": "address"
        }
      ],
      "name": "updateProposalAddress",
      "outputs": [],
      "payable": false,
      "stateMutability": "nonpayable",
      "type": "function"
    },
    {
      "constant": false,
      "inputs": [
        {
          "name": "_newAdr",
          "type": "address"
        }
      ],
      "name": "updateTreasuryAddreess",
      "outputs": [],
      "payable": false,
      "stateMutability": "nonpayable",
      "type": "function"
    },
    {
      "constant": false,
      "inputs": [
        {
          "name": "_newAdr",
          "type": "address"
        }
      ],
      "name": "updateGAAddress",
      "outputs": [],
      "payable": false,
      "stateMutability": "nonpayable",
      "type": "function"
    },
    {
      "constant": false,
      "inputs": [
        {
          "name": "_newAdr",
          "type": "address"
        }
      ],
      "name": "updateInternalWallet",
      "outputs": [],
      "payable": false,
      "stateMutability": "nonpayable",
      "type": "function"
    },
    {
      "constant": false,
      "inputs": [
        {
          "name": "_newAdr",
          "type": "address"
        }
      ],
      "name": "updateExternalWallet",
      "outputs": [],
      "payable": false,
      "stateMutability": "nonpayable",
      "type": "function"
    },
    {
      "constant": false,
      "inputs": [],
      "name": "finishDeployment",
      "outputs": [],
      "payable": false,
      "stateMutability": "nonpayable",
      "type": "function"
    },
    {
      "constant": false,
      "inputs": [
        {
          "name": "_proposalID",
          "type": "bytes32"
        }
      ],
      "name": "dissolveDAA",
      "outputs": [],
      "payable": false,
      "stateMutability": "nonpayable",
      "type": "function"
    }
  ],
  "bytecode": "0x608060405234801561001057600080fd5b5060405160c0806118a6833981018060405281019080805190602001909291908051906020019092919080519060200190929190805190602001909291908051906020019092919080519060200190929190505050856000806101000a81548173ffffffffffffffffffffffffffffffffffffffff021916908373ffffffffffffffffffffffffffffffffffffffff16021790555084600160006101000a81548173ffffffffffffffffffffffffffffffffffffffff021916908373ffffffffffffffffffffffffffffffffffffffff16021790555083600260006101000a81548173ffffffffffffffffffffffffffffffffffffffff021916908373ffffffffffffffffffffffffffffffffffffffff16021790555082600360006101000a81548173ffffffffffffffffffffffffffffffffffffffff021916908373ffffffffffffffffffffffffffffffffffffffff16021790555081600460006101000a81548173ffffffffffffffffffffffffffffffffffffffff021916908373ffffffffffffffffffffffffffffffffffffffff16021790555080600560006101000a81548173ffffffffffffffffffffffffffffffffffffffff021916908373ffffffffffffffffffffffffffffffffffffffff1602179055506001600560156101000a81548160ff02191690831515021790555050505050505061168c8061021a6000396000f3006080604052600436106100e6576000357c0100000000000000000000000000000000000000000000000000000000900463ffffffff168063027221be146100eb57806302fb0c5e1461012e57806318da00111461015d57806320ac5ca7146101b457806347aaa9f5146101f75780634fe162cc1461024e57806351ec8d1e146102a557806361bd9abb146102fc5780636ad5b3ea1461033f578063a2f3a5ad14610396578063b57f802e146103ed578063ba2312241461041c578063dc6c2c521461044d578063e997fffd14610490578063fe578bf8146104a7578063ff82bb0a146104ea575b600080fd5b3480156100f757600080fd5b5061012c600480360381019080803573ffffffffffffffffffffffffffffffffffffffff16906020019092919050505061052d565b005b34801561013a57600080fd5b5061014361084b565b604051808215151515815260200191505060405180910390f35b34801561016957600080fd5b5061017261085e565b604051808273ffffffffffffffffffffffffffffffffffffffff1673ffffffffffffffffffffffffffffffffffffffff16815260200191505060405180910390f35b3480156101c057600080fd5b506101f5600480360381019080803573ffffffffffffffffffffffffffffffffffffffff169060200190929190505050610884565b005b34801561020357600080fd5b5061020c610acd565b604051808273ffffffffffffffffffffffffffffffffffffffff1673ffffffffffffffffffffffffffffffffffffffff16815260200191505060405180910390f35b34801561025a57600080fd5b50610263610af3565b604051808273ffffffffffffffffffffffffffffffffffffffff1673ffffffffffffffffffffffffffffffffffffffff16815260200191505060405180910390f35b3480156102b157600080fd5b506102ba610b19565b604051808273ffffffffffffffffffffffffffffffffffffffff1673ffffffffffffffffffffffffffffffffffffffff16815260200191505060405180910390f35b34801561030857600080fd5b5061033d600480360381019080803573ffffffffffffffffffffffffffffffffffffffff169060200190929190505050610b3e565b005b34801561034b57600080fd5b50610354610bde565b604051808273ffffffffffffffffffffffffffffffffffffffff1673ffffffffffffffffffffffffffffffffffffffff16815260200191505060405180910390f35b3480156103a257600080fd5b506103ab610c04565b604051808273ffffffffffffffffffffffffffffffffffffffff1673ffffffffffffffffffffffffffffffffffffffff16815260200191505060405180910390f35b3480156103f957600080fd5b50610402610c2a565b604051808215151515815260200191505060405180910390f35b34801561042857600080fd5b5061044b6004803603810190808035600019169060200190929190505050610c3d565b005b34801561045957600080fd5b5061048e600480360381019080803573ffffffffffffffffffffffffffffffffffffffff169060200190929190505050610e19565b005b34801561049c57600080fd5b506104a5610eb9565b005b3480156104b357600080fd5b506104e8600480360381019080803573ffffffffffffffffffffffffffffffffffffffff16906020019092919050505061120f565b005b3480156104f657600080fd5b5061052b600480360381019080803573ffffffffffffffffffffffffffffffffffffffff169060200190929190505050611342565b005b600160009054906101000a900473ffffffffffffffffffffffffffffffffffffffff1673ffffffffffffffffffffffffffffffffffffffff163373ffffffffffffffffffffffffffffffffffffffff1614151561058957600080fd5b806000806101000a81548173ffffffffffffffffffffffffffffffffffffffff021916908373ffffffffffffffffffffffffffffffffffffffff160217905550600260009054906101000a900473ffffffffffffffffffffffffffffffffffffffff1673ffffffffffffffffffffffffffffffffffffffff1663945dbfd0826040518263ffffffff167c0100000000000000000000000000000000000000000000000000000000028152600401808273ffffffffffffffffffffffffffffffffffffffff1673ffffffffffffffffffffffffffffffffffffffff168152602001915050600060405180830381600087803b15801561068657600080fd5b505af115801561069a573d6000803e3d6000fd5b50505050600360009054906101000a900473ffffffffffffffffffffffffffffffffffffffff1673ffffffffffffffffffffffffffffffffffffffff1663945dbfd0826040518263ffffffff167c0100000000000000000000000000000000000000000000000000000000028152600401808273ffffffffffffffffffffffffffffffffffffffff1673ffffffffffffffffffffffffffffffffffffffff168152602001915050600060405180830381600087803b15801561075b57600080fd5b505af115801561076f573d6000803e3d6000fd5b50505050600160009054906101000a900473ffffffffffffffffffffffffffffffffffffffff1673ffffffffffffffffffffffffffffffffffffffff1663945dbfd0826040518263ffffffff167c0100000000000000000000000000000000000000000000000000000000028152600401808273ffffffffffffffffffffffffffffffffffffffff1673ffffffffffffffffffffffffffffffffffffffff168152602001915050600060405180830381600087803b15801561083057600080fd5b505af1158015610844573d6000803e3d6000fd5b5050505050565b600560159054906101000a900460ff1681565b600360009054906101000a900473ffffffffffffffffffffffffffffffffffffffff1681565b600160009054906101000a900473ffffffffffffffffffffffffffffffffffffffff1673ffffffffffffffffffffffffffffffffffffffff163373ffffffffffffffffffffffffffffffffffffffff161415156108e057600080fd5b80600260006101000a81548173ffffffffffffffffffffffffffffffffffffffff021916908373ffffffffffffffffffffffffffffffffffffffff160217905550600160009054906101000a900473ffffffffffffffffffffffffffffffffffffffff1673ffffffffffffffffffffffffffffffffffffffff1663d62d8f20826040518263ffffffff167c0100000000000000000000000000000000000000000000000000000000028152600401808273ffffffffffffffffffffffffffffffffffffffff1673ffffffffffffffffffffffffffffffffffffffff168152602001915050600060405180830381600087803b1580156109de57600080fd5b505af11580156109f2573d6000803e3d6000fd5b505050506000809054906101000a900473ffffffffffffffffffffffffffffffffffffffff1673ffffffffffffffffffffffffffffffffffffffff1663d62d8f20826040518263ffffffff167c0100000000000000000000000000000000000000000000000000000000028152600401808273ffffffffffffffffffffffffffffffffffffffff1673ffffffffffffffffffffffffffffffffffffffff168152602001915050600060405180830381600087803b158015610ab257600080fd5b505af1158015610ac6573d6000803e3d6000fd5b5050505050565b600560009054906101000a900473ffffffffffffffffffffffffffffffffffffffff1681565b600160009054906101000a900473ffffffffffffffffffffffffffffffffffffffff1681565b6000809054906101000a900473ffffffffffffffffffffffffffffffffffffffff1681565b600360009054906101000a900473ffffffffffffffffffffffffffffffffffffffff1673ffffffffffffffffffffffffffffffffffffffff163373ffffffffffffffffffffffffffffffffffffffff16141515610b9a57600080fd5b80600460006101000a81548173ffffffffffffffffffffffffffffffffffffffff021916908373ffffffffffffffffffffffffffffffffffffffff16021790555050565b600460009054906101000a900473ffffffffffffffffffffffffffffffffffffffff1681565b600260009054906101000a900473ffffffffffffffffffffffffffffffffffffffff1681565b600560149054906101000a900460ff1681565b600160009054906101000a900473ffffffffffffffffffffffffffffffffffffffff1673ffffffffffffffffffffffffffffffffffffffff1663f4586647826040518263ffffffff167c0100000000000000000000000000000000000000000000000000000000028152600401808260001916600019168152602001915050602060405180830381600087803b158015610cd657600080fd5b505af1158015610cea573d6000803e3d6000fd5b505050506040513d6020811015610d0057600080fd5b81019080805190602001909291905050501515610d1c57600080fd5b600160009054906101000a900473ffffffffffffffffffffffffffffffffffffffff1673ffffffffffffffffffffffffffffffffffffffff1663ccf165e4826040518263ffffffff167c0100000000000000000000000000000000000000000000000000000000028152600401808260001916600019168152602001915050602060405180830381600087803b158015610db557600080fd5b505af1158015610dc9573d6000803e3d6000fd5b505050506040513d6020811015610ddf57600080fd5b81019080805190602001909291905050501515610dfb57600080fd5b6000600560156101000a81548160ff02191690831515021790555050565b600360009054906101000a900473ffffffffffffffffffffffffffffffffffffffff1673ffffffffffffffffffffffffffffffffffffffff163373ffffffffffffffffffffffffffffffffffffffff16141515610e7557600080fd5b80600560006101000a81548173ffffffffffffffffffffffffffffffffffffffff021916908373ffffffffffffffffffffffffffffffffffffffff16021790555050565b60001515600560149054906101000a900460ff161515141515610edb57600080fd5b6001600560146101000a81548160ff021916908315150217905550600160009054906101000a900473ffffffffffffffffffffffffffffffffffffffff1673ffffffffffffffffffffffffffffffffffffffff1663988db79c600260009054906101000a900473ffffffffffffffffffffffffffffffffffffffff16306040518363ffffffff167c0100000000000000000000000000000000000000000000000000000000028152600401808373ffffffffffffffffffffffffffffffffffffffff1673ffffffffffffffffffffffffffffffffffffffff1681526020018273ffffffffffffffffffffffffffffffffffffffff1673ffffffffffffffffffffffffffffffffffffffff16815260200192505050600060405180830381600087803b15801561100957600080fd5b505af115801561101d573d6000803e3d6000fd5b505050506000809054906101000a900473ffffffffffffffffffffffffffffffffffffffff1673ffffffffffffffffffffffffffffffffffffffff16636a07951f600160009054906101000a900473ffffffffffffffffffffffffffffffffffffffff166040518263ffffffff167c0100000000000000000000000000000000000000000000000000000000028152600401808273ffffffffffffffffffffffffffffffffffffffff1673ffffffffffffffffffffffffffffffffffffffff168152602001915050600060405180830381600087803b1580156110ff57600080fd5b505af1158015611113573d6000803e3d6000fd5b505050506000809054906101000a900473ffffffffffffffffffffffffffffffffffffffff1673ffffffffffffffffffffffffffffffffffffffff1663841e4561600360009054906101000a900473ffffffffffffffffffffffffffffffffffffffff166040518263ffffffff167c0100000000000000000000000000000000000000000000000000000000028152600401808273ffffffffffffffffffffffffffffffffffffffff1673ffffffffffffffffffffffffffffffffffffffff168152602001915050600060405180830381600087803b1580156111f557600080fd5b505af1158015611209573d6000803e3d6000fd5b50505050565b600160009054906101000a900473ffffffffffffffffffffffffffffffffffffffff1673ffffffffffffffffffffffffffffffffffffffff163373ffffffffffffffffffffffffffffffffffffffff1614151561126b57600080fd5b6000809054906101000a900473ffffffffffffffffffffffffffffffffffffffff1673ffffffffffffffffffffffffffffffffffffffff1663841e4561826040518263ffffffff167c0100000000000000000000000000000000000000000000000000000000028152600401808273ffffffffffffffffffffffffffffffffffffffff1673ffffffffffffffffffffffffffffffffffffffff168152602001915050600060405180830381600087803b15801561132757600080fd5b505af115801561133b573d6000803e3d6000fd5b5050505050565b600160009054906101000a900473ffffffffffffffffffffffffffffffffffffffff1673ffffffffffffffffffffffffffffffffffffffff163373ffffffffffffffffffffffffffffffffffffffff1614151561139e57600080fd5b80600160006101000a81548173ffffffffffffffffffffffffffffffffffffffff021916908373ffffffffffffffffffffffffffffffffffffffff1602179055506000809054906101000a900473ffffffffffffffffffffffffffffffffffffffff1673ffffffffffffffffffffffffffffffffffffffff16636a07951f826040518263ffffffff167c0100000000000000000000000000000000000000000000000000000000028152600401808273ffffffffffffffffffffffffffffffffffffffff1673ffffffffffffffffffffffffffffffffffffffff168152602001915050600060405180830381600087803b15801561149b57600080fd5b505af11580156114af573d6000803e3d6000fd5b50505050600260009054906101000a900473ffffffffffffffffffffffffffffffffffffffff1673ffffffffffffffffffffffffffffffffffffffff16636a07951f826040518263ffffffff167c0100000000000000000000000000000000000000000000000000000000028152600401808273ffffffffffffffffffffffffffffffffffffffff1673ffffffffffffffffffffffffffffffffffffffff168152602001915050600060405180830381600087803b15801561157057600080fd5b505af1158015611584573d6000803e3d6000fd5b50505050600360009054906101000a900473ffffffffffffffffffffffffffffffffffffffff1673ffffffffffffffffffffffffffffffffffffffff16636a07951f826040518263ffffffff167c0100000000000000000000000000000000000000000000000000000000028152600401808273ffffffffffffffffffffffffffffffffffffffff1673ffffffffffffffffffffffffffffffffffffffff168152602001915050600060405180830381600087803b15801561164557600080fd5b505af1158015611659573d6000803e3d6000fd5b50505050505600a165627a7a723058207d2ef750b08be501ed15880697da7589ac43a45eb217766ee8c6e89764913f840029",
  "source": "/**\n * @title The contract that manages the creation and voting of the DAA.\n * @notice This contract is used when proposals are stored as structs but not created as individual contract by the factory.\n */\npragma solidity ^0.4.21;\n\nimport \"./Membership.sol\";\n// import \"./ProposalManager.sol\";\nimport \"./ProposalInterface.sol\";\nimport \"./GAManager.sol\";\nimport \"./Treasury.sol\";\n// import \"./ExternalDepositWallet.sol\";\n// import \"./Wallet.sol\";\nimport \"./DAAInterface.sol\";\nimport \"../node_modules/openzeppelin-solidity/contracts/math/SafeMath.sol\"; \n\ncontract DAA {\n\n    Membership public membershipContract;\n    // ProposalManager public proposalManagerContract;\n    ProposalInterface public proposalManagerContract;\n    GAManager public gaManagerContract;\n    Treasury public treasuryContract;\n    address public walletAddress;\n    address public externalWalletAddress;\n    bool public alreadyBeCalledOnce;\n    bool public active;\n\n    /**\n     *@title Form a DAA with contracts that manages groups of functionalities.\n     *@param _membership The address of Membership contract\n     *@param _proposalManager The address of the proposal manager contract\n     *@param _GA The address of the GA contract\n     *@param _wallet The address of the internal wallet contract\n     *@param _externalWallet The address of the external wallet contract\n     */\n    constructor(address _membership, address _proposalManager, address _GA, address _treasury, address _wallet, address _externalWallet) public {\n        membershipContract = Membership(_membership);\n        // proposalManagerContract = ProposalManager(_proposalManager);\n        proposalManagerContract = ProposalInterface(_proposalManager);\n        gaManagerContract = GAManager(_GA);\n        treasuryContract = Treasury(_treasury);\n        walletAddress = _wallet;\n        externalWalletAddress = _externalWallet;\n        active = true;\n    }\n\n    modifier proposalOnly {\n        require(msg.sender == address(proposalManagerContract));\n        _;\n    }\n\n    modifier treasuryOnly {\n        require(msg.sender == address(treasuryContract));\n        _;\n    }\n\n    // new function that updates one address per time\n    function updateMembershipAddress(address _newAdr) proposalOnly external {\n        membershipContract = Membership(_newAdr);\n        // start to change other contracts, including treasury and gaManager\n        gaManagerContract.updateMembershipContractAddress(_newAdr);\n        treasuryContract.updateMembershipContractAddress(_newAdr);\n        proposalManagerContract.updateMembershipContractAddress(_newAdr);\n        // gaManagerContract.updateContractAddress(_newAdr,0x0);\n        // treasuryContract.updateContractAddress(_newAdr,0x0);\n        // membershipContract.updateContractAddress(0x0, _newAdr);\n    }\n\n    function updateProposalAddress(address _newAdr) proposalOnly external {\n        proposalManagerContract = ProposalInterface(_newAdr);\n        membershipContract.updateProposalContractAddress(_newAdr);\n        gaManagerContract.updateProposalContractAddress(_newAdr);\n        treasuryContract.updateProposalContractAddress(_newAdr);\n    }\n\n    function updateTreasuryAddreess(address _newAdr) proposalOnly external {\n        membershipContract.updateTreasuryAddress(_newAdr);\n    }\n\n    function updateGAAddress(address _newAdr) proposalOnly external {\n        gaManagerContract = GAManager(_newAdr);\n        // start to change contract addresses, including proposalManager\n        proposalManagerContract.updateGAContractAddress(_newAdr);\n        membershipContract.updateGAContractAddress(_newAdr);\n    }\n\n    function updateInternalWallet(address _newAdr) external treasuryOnly {\n        // require(msg.sender == address(treasuryContract));\n        walletAddress = _newAdr;\n    }\n\n    function updateExternalWallet(address _newAdr) external treasuryOnly {\n        // require(msg.sender == address(treasuryContract));\n        externalWalletAddress = _newAdr;\n    }\n\n    // // old functions - need to be replaced by the new one that separates the update functions \n    // function updateMembershipAddress(address _newAdr) proposalOnly external {\n    //     membershipContract = Membership(_newAdr);\n    //     // start to change other contracts, including treasury and gaManager\n    //     gaManagerContract.updateContractAddress(_newAdr,0x0);\n    //     treasuryContract.updateContractAddress(_newAdr,0x0);\n    //     // membershipContract.updateContractAddress(0x0, _newAdr);\n    // }\n\n    // function updateProposalManagerAddress(address _newAdr) proposalOnly external {\n    //     // proposalManagerContract = ProposalManager(_newAdr);\n    //     proposalManagerContract = ProposalInterface(_newAdr);\n    //     // start to change other contracts, including proposalManager, gaManager, and treasury\n    //     gaManagerContract.updateContractAddress(0x0, _newAdr);\n    //     // proposalManagerContract.updateContractAddress(_newAdr,0x0);\n    //     treasuryContract.updateContractAddress(0x0,_newAdr);\n    //     // membershipContract.updateContractAddress(_newAdr, 0x0);\n    // }\n\n    function finishDeployment() public {\n        require(alreadyBeCalledOnce == false);\n        alreadyBeCalledOnce = true;\n        proposalManagerContract.linkContract(address(gaManagerContract), address(this));\n        membershipContract.updateProposalContractAddress(address(proposalManagerContract));\n        membershipContract.updateTreasuryAddress(address(treasuryContract));\n    }\n\n    //@TODO More things may happen in case of dissolution?\n    function dissolveDAA(bytes32 _proposalID) public {\n        // upon proposal success\n        require(proposalManagerContract.getProposalFinalResult(_proposalID));\n        // request is dissolve\n        require(proposalManagerContract.checkActionIsDissolution(_proposalID));\n        active = false;\n    }\n\n}",
  "sourcePath": "C:\\Users\\vasil\\OneDrive\\Documents\\02_e-swissolar\\02_prj\\Truffle-React-ReFiDAO-Sandbox\\backend\\contracts\\DAA.sol",
  "compiler": {
    "name": "solc",
    "version": "0.4.26+commit.4563c3fc.Emscripten.clang"
  },
  "schemaVersion": "3.4.4",
  "updatedAt": "2022-08-10T19:12:30.541Z",
  "networkType": "ethereum",
  "devdoc": {
    "methods": {}
  },
  "userdoc": {
    "methods": {}
  }
}