{
  "contractName": "GAManager",
  "abi": [
    {
      "constant": true,
      "inputs": [],
      "name": "proposalGate",
      "outputs": [
        {
          "name": "",
          "type": "address"
        }
      ],
      "payable": false,
      "stateMutability": "view",
      "type": "function"
    },
    {
      "constant": true,
      "inputs": [],
      "name": "accessibleGate",
      "outputs": [
        {
          "name": "",
          "type": "address"
        }
      ],
      "payable": false,
      "stateMutability": "view",
      "type": "function"
    },
    {
      "constant": true,
      "inputs": [],
      "name": "potentialCandidateListForCurrentGA",
      "outputs": [
        {
          "name": "totalLength",
          "type": "uint256"
        },
        {
          "name": "revoteOrNot",
          "type": "bool"
        },
        {
          "name": "potentialRevote",
          "type": "uint256"
        },
        {
          "name": "participantNum",
          "type": "uint256"
        }
      ],
      "payable": false,
      "stateMutability": "view",
      "type": "function"
    },
    {
      "constant": false,
      "inputs": [],
      "name": "renounceOwnership",
      "outputs": [],
      "payable": false,
      "stateMutability": "nonpayable",
      "type": "function"
    },
    {
      "constant": true,
      "inputs": [],
      "name": "currentHashOfStatutes",
      "outputs": [
        {
          "name": "",
          "type": "bytes32"
        }
      ],
      "payable": false,
      "stateMutability": "view",
      "type": "function"
    },
    {
      "constant": true,
      "inputs": [],
      "name": "owner",
      "outputs": [
        {
          "name": "",
          "type": "address"
        }
      ],
      "payable": false,
      "stateMutability": "view",
      "type": "function"
    },
    {
      "constant": true,
      "inputs": [],
      "name": "candidateAssitant",
      "outputs": [
        {
          "name": "numberOfCandidate",
          "type": "uint256"
        }
      ],
      "payable": false,
      "stateMutability": "view",
      "type": "function"
    },
    {
      "constant": false,
      "inputs": [
        {
          "name": "_newOwner",
          "type": "address"
        }
      ],
      "name": "transferOwnership",
      "outputs": [],
      "payable": false,
      "stateMutability": "nonpayable",
      "type": "function"
    },
    {
      "inputs": [
        {
          "name": "_membershipAdr",
          "type": "address"
        },
        {
          "name": "_proposalInterfaceAdr",
          "type": "address"
        },
        {
          "name": "_initialHash",
          "type": "bytes32"
        }
      ],
      "payable": false,
      "stateMutability": "nonpayable",
      "type": "constructor"
    },
    {
      "anonymous": false,
      "inputs": [
        {
          "indexed": true,
          "name": "previousOwner",
          "type": "address"
        }
      ],
      "name": "OwnershipRenounced",
      "type": "event"
    },
    {
      "anonymous": false,
      "inputs": [
        {
          "indexed": true,
          "name": "previousOwner",
          "type": "address"
        },
        {
          "indexed": true,
          "name": "newOwner",
          "type": "address"
        }
      ],
      "name": "OwnershipTransferred",
      "type": "event"
    },
    {
      "constant": false,
      "inputs": [
        {
          "name": "_newAccessible",
          "type": "address"
        }
      ],
      "name": "updateMembershipContractAddress",
      "outputs": [],
      "payable": false,
      "stateMutability": "nonpayable",
      "type": "function"
    },
    {
      "constant": false,
      "inputs": [
        {
          "name": "_newProposal",
          "type": "address"
        }
      ],
      "name": "updateProposalContractAddress",
      "outputs": [],
      "payable": false,
      "stateMutability": "nonpayable",
      "type": "function"
    },
    {
      "constant": false,
      "inputs": [
        {
          "name": "_adr",
          "type": "address"
        }
      ],
      "name": "addDelegateCandidate",
      "outputs": [],
      "payable": false,
      "stateMutability": "nonpayable",
      "type": "function"
    },
    {
      "constant": false,
      "inputs": [
        {
          "name": "_gaIndex",
          "type": "uint256"
        }
      ],
      "name": "setDelegateProposalsToGA",
      "outputs": [
        {
          "name": "",
          "type": "bool"
        }
      ],
      "payable": false,
      "stateMutability": "nonpayable",
      "type": "function"
    },
    {
      "constant": true,
      "inputs": [
        {
          "name": "_time",
          "type": "uint256"
        },
        {
          "name": "_isExtraGA",
          "type": "bool"
        }
      ],
      "name": "canSetGA",
      "outputs": [
        {
          "name": "",
          "type": "bool"
        }
      ],
      "payable": false,
      "stateMutability": "view",
      "type": "function"
    },
    {
      "constant": false,
      "inputs": [
        {
          "name": "_adr",
          "type": "address"
        }
      ],
      "name": "voteForDelegate",
      "outputs": [
        {
          "name": "",
          "type": "bool"
        }
      ],
      "payable": false,
      "stateMutability": "nonpayable",
      "type": "function"
    },
    {
      "constant": false,
      "inputs": [
        {
          "name": "_minParticipant",
          "type": "uint256"
        },
        {
          "name": "_minYes",
          "type": "uint256"
        }
      ],
      "name": "concludeDelegateVoting",
      "outputs": [
        {
          "name": "",
          "type": "bool"
        },
        {
          "name": "",
          "type": "bool"
        }
      ],
      "payable": false,
      "stateMutability": "nonpayable",
      "type": "function"
    },
    {
      "constant": false,
      "inputs": [
        {
          "name": "_nextGATime",
          "type": "uint256"
        },
        {
          "name": "_duration",
          "type": "uint256"
        }
      ],
      "name": "setGATime",
      "outputs": [
        {
          "name": "",
          "type": "bool"
        }
      ],
      "payable": false,
      "stateMutability": "nonpayable",
      "type": "function"
    },
    {
      "constant": false,
      "inputs": [
        {
          "name": "_proposalID",
          "type": "bytes32"
        }
      ],
      "name": "setExtraordinaryGA",
      "outputs": [
        {
          "name": "",
          "type": "bool"
        }
      ],
      "payable": false,
      "stateMutability": "nonpayable",
      "type": "function"
    },
    {
      "constant": true,
      "inputs": [],
      "name": "isDuringGA",
      "outputs": [
        {
          "name": "",
          "type": "bool"
        }
      ],
      "payable": false,
      "stateMutability": "view",
      "type": "function"
    },
    {
      "constant": false,
      "inputs": [],
      "name": "updateCurrentGA",
      "outputs": [
        {
          "name": "",
          "type": "bool"
        }
      ],
      "payable": false,
      "stateMutability": "nonpayable",
      "type": "function"
    },
    {
      "constant": false,
      "inputs": [
        {
          "name": "_proposalID",
          "type": "bytes32"
        }
      ],
      "name": "setNewStatute",
      "outputs": [
        {
          "name": "",
          "type": "bool"
        }
      ],
      "payable": false,
      "stateMutability": "nonpayable",
      "type": "function"
    },
    {
      "constant": false,
      "inputs": [
        {
          "name": "_gaIndex",
          "type": "uint256"
        }
      ],
      "name": "getTimeIfNextGAExistsAndNotYetFullyBooked",
      "outputs": [
        {
          "name": "",
          "type": "uint256"
        }
      ],
      "payable": false,
      "stateMutability": "nonpayable",
      "type": "function"
    },
    {
      "constant": true,
      "inputs": [
        {
          "name": "_candidate",
          "type": "address"
        }
      ],
      "name": "canVoteForDelegate",
      "outputs": [
        {
          "name": "",
          "type": "bool"
        }
      ],
      "payable": false,
      "stateMutability": "view",
      "type": "function"
    },
    {
      "constant": true,
      "inputs": [
        {
          "name": "_gaIndex",
          "type": "uint256"
        }
      ],
      "name": "getGAStartAndDuration",
      "outputs": [
        {
          "name": "",
          "type": "uint256"
        },
        {
          "name": "",
          "type": "uint256"
        }
      ],
      "payable": false,
      "stateMutability": "view",
      "type": "function"
    }
  ],
  "bytecode": "0x608060405234801561001057600080fd5b5060405160608061293e833981018060405281019080805190602001909291908051906020019092919080519060200190929190505050336000806101000a81548173ffffffffffffffffffffffffffffffffffffffff021916908373ffffffffffffffffffffffffffffffffffffffff16021790555082600460006101000a81548173ffffffffffffffffffffffffffffffffffffffff021916908373ffffffffffffffffffffffffffffffffffffffff16021790555081600560006101000a81548173ffffffffffffffffffffffffffffffffffffffff021916908373ffffffffffffffffffffffffffffffffffffffff1602179055508060068160001916905550505050612818806101266000396000f300608060405260043610610133576000357c0100000000000000000000000000000000000000000000000000000000900463ffffffff16806311bb814714610138578063351839c11461018f57806352599dcf146101e6578063549613f91461024157806354f22d2414610290578063614e22bc146102bf5780636a07951f146103035780636b22fb1f14610346578063715018a6146103a05780637a40f7f4146103b757806385c8a1c5146103fc5780638cabc5e11461042b5780638da5cb5b1461045e578063945dbfd0146104b55780639bbc92e4146104f85780639d9c4c4714610553578063ad19f90c1461059b578063c64d2810146105de578063ccefcc2c1461061f578063d2ebc94814610670578063eef4f35e1461069b578063f2fde38b146106e4578063f4107b5d14610727575b600080fd5b34801561014457600080fd5b5061014d610770565b604051808273ffffffffffffffffffffffffffffffffffffffff1673ffffffffffffffffffffffffffffffffffffffff16815260200191505060405180910390f35b34801561019b57600080fd5b506101a4610796565b604051808273ffffffffffffffffffffffffffffffffffffffff1673ffffffffffffffffffffffffffffffffffffffff16815260200191505060405180910390f35b3480156101f257600080fd5b50610227600480360381019080803573ffffffffffffffffffffffffffffffffffffffff1690602001909291905050506107bc565b604051808215151515815260200191505060405180910390f35b34801561024d57600080fd5b5061027660048036038101908080359060200190929190803590602001909291905050506108a6565b604051808215151515815260200191505060405180910390f35b34801561029c57600080fd5b506102a5610b1c565b604051808215151515815260200191505060405180910390f35b3480156102cb57600080fd5b506102d4610ba6565b604051808581526020018415151515815260200183815260200182815260200194505050505060405180910390f35b34801561030f57600080fd5b50610344600480360381019080803573ffffffffffffffffffffffffffffffffffffffff169060200190929190505050610bd1565b005b34801561035257600080fd5b5061037b6004803603810190808035906020019092919080359060200190929190505050610c98565b6040518083151515158152602001821515151581526020019250505060405180910390f35b3480156103ac57600080fd5b506103b5611366565b005b3480156103c357600080fd5b506103e260048036038101908080359060200190929190505050611468565b604051808215151515815260200191505060405180910390f35b34801561040857600080fd5b506104116114ed565b604051808215151515815260200191505060405180910390f35b34801561043757600080fd5b506104406115b2565b60405180826000191660001916815260200191505060405180910390f35b34801561046a57600080fd5b506104736115b8565b604051808273ffffffffffffffffffffffffffffffffffffffff1673ffffffffffffffffffffffffffffffffffffffff16815260200191505060405180910390f35b3480156104c157600080fd5b506104f6600480360381019080803573ffffffffffffffffffffffffffffffffffffffff1690602001909291905050506115dd565b005b34801561050457600080fd5b50610539600480360381019080803573ffffffffffffffffffffffffffffffffffffffff1690602001909291905050506116a4565b604051808215151515815260200191505060405180910390f35b34801561055f57600080fd5b5061057e600480360381019080803590602001909291905050506117b5565b604051808381526020018281526020019250505060405180910390f35b3480156105a757600080fd5b506105dc600480360381019080803573ffffffffffffffffffffffffffffffffffffffff16906020019092919050505061184a565b005b3480156105ea57600080fd5b5061060960048036038101908080359060200190929190505050611a7a565b6040518082815260200191505060405180910390f35b34801561062b57600080fd5b5061065660048036038101908080359060200190929190803515159060200190929190505050611bee565b604051808215151515815260200191505060405180910390f35b34801561067c57600080fd5b50610685611eba565b6040518082815260200191505060405180910390f35b3480156106a757600080fd5b506106ca6004803603810190808035600019169060200190929190505050611ec6565b604051808215151515815260200191505060405180910390f35b3480156106f057600080fd5b50610725600480360381019080803573ffffffffffffffffffffffffffffffffffffffff1690602001909291905050506122d2565b005b34801561073357600080fd5b506107566004803603810190808035600019169060200190929190505050612339565b604051808215151515815260200191505060405180910390f35b600560009054906101000a900473ffffffffffffffffffffffffffffffffffffffff1681565b600460009054906101000a900473ffffffffffffffffffffffffffffffffffffffff1681565b6000600560009054906101000a900473ffffffffffffffffffffffffffffffffffffffff1673ffffffffffffffffffffffffffffffffffffffff163373ffffffffffffffffffffffffffffffffffffffff1614151561081a57600080fd5b600760000160006001601360000160008673ffffffffffffffffffffffffffffffffffffffff1673ffffffffffffffffffffffffffffffffffffffff168152602001908152602001600020540381526020019081526020016000206001016000815480929190600101919050555060076004016000815480929190600101919050555060019050919050565b6000806000600460009054906101000a900473ffffffffffffffffffffffffffffffffffffffff1673ffffffffffffffffffffffffffffffffffffffff16639a3248bc336040518263ffffffff167c0100000000000000000000000000000000000000000000000000000000028152600401808273ffffffffffffffffffffffffffffffffffffffff1673ffffffffffffffffffffffffffffffffffffffff168152602001915050602060405180830381600087803b15801561096857600080fd5b505af115801561097c573d6000803e3d6000fd5b505050506040513d602081101561099257600080fd5b810190808051906020019092919050505015156109ae57600080fd5b6109b9856000611bee565b15156109c457600080fd5b60025491505b600354821015610ab1576001600083815260200190815260200160002060000154851015610aa45760035490505b81811115610a9f576001600060018303815260200190815260200160002060016000838152602001908152602001600020600082015481600001556001820154816001015560028201548160020155600382015481600301906000191690556004820160009054906101000a900460ff168160040160006101000a81548160ff021916908315150217905550600582015481600501559050508080600190039150506109f8565b610ab1565b81806001019250506109ca565b846001600084815260200190815260200160002060000181905550846001600084815260200190815260200160002060010181905550836001600084815260200190815260200160002060020181905550600360008154809291906001019190505550505092915050565b6000610b9060016000600160025401815260200190815260200160002060000154610b80600160006002548152602001908152602001600020600201546001600060025481526020019081526020016000206000015461260a90919063ffffffff16565b426126269092919063ffffffff16565b15610b9e5760019050610ba3565b600090505b90565b60078060010154908060020160009054906101000a900460ff16908060030154908060040154905084565b6000809054906101000a900473ffffffffffffffffffffffffffffffffffffffff1673ffffffffffffffffffffffffffffffffffffffff163373ffffffffffffffffffffffffffffffffffffffff16141515610c2c57600080fd5b8060008173ffffffffffffffffffffffffffffffffffffffff1614151515610c5357600080fd5b81600560006101000a81548173ffffffffffffffffffffffffffffffffffffffff021916908373ffffffffffffffffffffffffffffffffffffffff1602179055505050565b600080610ca36127b0565b6000600773__TallyClerkLib_________________________63203cd4c390916040518263ffffffff167c01000000000000000000000000000000000000000000000000000000000281526004018082815260200191505060006040518083038186803b158015610d1357600080fd5b505af4158015610d27573d6000803e3d6000fd5b50505050856007600401541115611315578460076000016000600760050160008081526020019081526020016000205481526020019081526020016000206001015411156112c95760001515600760020160009054906101000a900460ff1615151415610f2357600460009054906101000a900473ffffffffffffffffffffffffffffffffffffffff1673ffffffffffffffffffffffffffffffffffffffff1663ca5eb5e1600760000160006007600501600080815260200190815260200160002054815260200190815260200160002060000160009054906101000a900473ffffffffffffffffffffffffffffffffffffffff166040518263ffffffff167c0100000000000000000000000000000000000000000000000000000000028152600401808273ffffffffffffffffffffffffffffffffffffffff1673ffffffffffffffffffffffffffffffffffffffff168152602001915050602060405180830381600087803b158015610e9a57600080fd5b505af1158015610eae573d6000803e3d6000fd5b505050506040513d6020811015610ec457600080fd5b8101908080519060200190929190505050506007600060018201600090556002820160006101000a81549060ff02191690556003820160009055600482016000905550506013600060018201600090555050600160009350935061135d565b60016000600254815260200190815260200160002060c060405190810160405290816000820154815260200160018201548152602001600282015481526020016003820154600019166000191681526020016004820160009054906101000a900460ff16151515158152602001600582015481525050915060001515610fc4836040015184602001516102588660000151612652909392919063ffffffff16565b1515141561101657610ff96102586001600060025481526020019081526020016000206002015461260a90919063ffffffff16565b600160006002548152602001908152602001600020600201819055505b600160006002548152602001908152602001600020600101546001600060025481526020019081526020016000206005018190555061108b60b461107d6102586001600060025481526020019081526020016000206001015461260a90919063ffffffff16565b61260a90919063ffffffff16565b60016000600254815260200190815260200160002060010181905550600760030154600d60010181905550600d60010154601560010181905550600090505b60076003015481101561121a576007600001600060076005016000848152602001908152602001600020548152602001908152602001600020600d60000160008381526020019081526020016000206000820160009054906101000a900473ffffffffffffffffffffffffffffffffffffffff168160000160006101000a81548173ffffffffffffffffffffffffffffffffffffffff021916908373ffffffffffffffffffffffffffffffffffffffff160217905550600182015481600101559050508060156000016000600d600001600085815260200190815260200160002060000160009054906101000a900473ffffffffffffffffffffffffffffffffffffffff1673ffffffffffffffffffffffffffffffffffffffff1673ffffffffffffffffffffffffffffffffffffffff1681526020019081526020016000208190555080806001019150506110ca565b600d6007600182015481600101556002820160009054906101000a900460ff168160020160006101000a81548160ff02191690831515021790555060038201548160030155600482015481600401559050506015601360018201548160010155905050600d600060018201600090556002820160006101000a81549060ff021916905560038201600090556004820160009055505060156000600182016000905550506001809350935061135d565b60136000600182016000905550506007600060018201600090556002820160006101000a81549060ff02191690556003820160009055600482016000905550506000809350935061135d565b60136000600182016000905550506007600060018201600090556002820160006101000a81549060ff0219169055600382016000905560048201600090555050600080935093505b50509250929050565b6000809054906101000a900473ffffffffffffffffffffffffffffffffffffffff1673ffffffffffffffffffffffffffffffffffffffff163373ffffffffffffffffffffffffffffffffffffffff161415156113c157600080fd5b6000809054906101000a900473ffffffffffffffffffffffffffffffffffffffff1673ffffffffffffffffffffffffffffffffffffffff167ff8df31144d9c2f0f6b59d69b8b98abd5459d07f2742c4df920b25aae33c6482060405160405180910390a260008060006101000a81548173ffffffffffffffffffffffffffffffffffffffff021916908373ffffffffffffffffffffffffffffffffffffffff160217905550565b60008061147483611a7a565b90506000811415151561148657600080fd5b8060016000858152602001908152602001600020600501819055506114c960b46114bb6102588461260a90919063ffffffff16565b61260a90919063ffffffff16565b60016000858152602001908152602001600020600101819055506001915050919050565b600061156760016000600160025401815260200190815260200160002060000154611557600160006001600254018152602001908152602001600020600201546001600060016002540181526020019081526020016000206000015461260a90919063ffffffff16565b426126269092919063ffffffff16565b156115aa576002600081548092919060010191905055506006546001600060025481526020019081526020016000206003018160001916905550600190506115af565b600090505b90565b60065481565b6000809054906101000a900473ffffffffffffffffffffffffffffffffffffffff1681565b6000809054906101000a900473ffffffffffffffffffffffffffffffffffffffff1673ffffffffffffffffffffffffffffffffffffffff163373ffffffffffffffffffffffffffffffffffffffff1614151561163857600080fd5b8060008173ffffffffffffffffffffffffffffffffffffffff161415151561165f57600080fd5b81600460006101000a81548173ffffffffffffffffffffffffffffffffffffffff021916908373ffffffffffffffffffffffffffffffffffffffff1602179055505050565b60006116ae6127b0565b60016000600254815260200190815260200160002060c060405190810160405290816000820154815260200160018201548152602001600282015481526020016003820154600019166000191681526020016004820160009054906101000a900460ff1615151515815260200160058201548152505090506000601360000160008573ffffffffffffffffffffffffffffffffffffffff1673ffffffffffffffffffffffffffffffffffffffff168152602001908152602001600020541415156117aa576117a38160a001516117936102588460a0015161260a90919063ffffffff16565b426126269092919063ffffffff16565b91506117af565b600091505b50919050565b6000806117c06127b0565b6001600085815260200190815260200160002060c060405190810160405290816000820154815260200160018201548152602001600282015481526020016003820154600019166000191681526020016004820160009054906101000a900460ff161515151581526020016005820154815250509050806000015181604001519250925050915091565b61189f42611891600160006002548152602001908152602001600020600201546001600060025481526020019081526020016000206000015461260a90919063ffffffff16565b61269790919063ffffffff16565b15156118aa57600080fd5b600560009054906101000a900473ffffffffffffffffffffffffffffffffffffffff1673ffffffffffffffffffffffffffffffffffffffff163373ffffffffffffffffffffffffffffffffffffffff1614151561190657600080fd5b6000601360000160008373ffffffffffffffffffffffffffffffffffffffff1673ffffffffffffffffffffffffffffffffffffffff1681526020019081526020016000205414151561195757600080fd5b8060076000016000601360010154815260200190815260200160002060000160006101000a81548173ffffffffffffffffffffffffffffffffffffffff021916908373ffffffffffffffffffffffffffffffffffffffff160217905550600060076000016000601360010154815260200190815260200160002060010181905550601360010160008154809291906001019190505550601360010154601360000160008373ffffffffffffffffffffffffffffffffffffffff1673ffffffffffffffffffffffffffffffffffffffff168152602001908152602001600020819055506007600101600081548092919060010191905055506000600760020160006101000a81548160ff021916908315150217905550600060076003018190555050565b6000611a846127b0565b6000600560009054906101000a900473ffffffffffffffffffffffffffffffffffffffff1673ffffffffffffffffffffffffffffffffffffffff163373ffffffffffffffffffffffffffffffffffffffff16141515611ae257600080fd5b6001600085815260200190815260200160002060c060405190810160405290816000820154815260200160018201548152602001600282015481526020016003820154600019166000191681526020016004820160009054906101000a900460ff161515151581526020016005820154815250509150428260000151118015611b8c5750611b8b826040015183602001516102588560000151612652909392919063ffffffff16565b5b15611be25781602001519050611bc060b4611bb26102588461260a90919063ffffffff16565b61260a90919063ffffffff16565b6001600086815260200190815260200160002060010181905550809250611be7565b600092505b5050919050565b60008060008085858015611c2457611c144262dd7c00846126269092919063ffffffff16565b1515611c1f57600080fd5b611c49565b611c3d426303bfc400846126269092919063ffffffff16565b1515611c4857600080fd5b5b8615611c615763014c3a009450621baf809350611c6f565b63014c3a0094506224ea0093505b611c82844261260a90919063ffffffff16565b881115611de35760006003541415611c9d5760019550611eaf565b60025492505b600354831015611d7b576001600084815260200190815260200160002060000154881015611d6e5787611d2386611d1560016000600189038152602001908152602001600020600201546001600060018a0381526020019081526020016000206000015461260a90919063ffffffff16565b61260a90919063ffffffff16565b108015611d5757506001600084815260200190815260200160002060000154611d55868a61260a90919063ffffffff16565b105b15611d655760019550611eaf565b60009550611eaf565b8280600101935050611ca3565b87611dd386611dc560016000600189038152602001908152602001600020600201546001600060018a0381526020019081526020016000206000015461260a90919063ffffffff16565b61260a90919063ffffffff16565b1015611de25760019550611eaf565b5b611df6844261260a90919063ffffffff16565b88118015611e57575087611e5586611e47600160006002548152602001908152602001600020600201546001600060025481526020019081526020016000206000015461260a90919063ffffffff16565b61260a90919063ffffffff16565b105b15611eaa57600254600354118015611e9b575060016000600160025401815260200190815260200160002060000154611e99868a61260a90919063ffffffff16565b105b15611ea95760019550611eaf565b5b600095505b505050505092915050565b60138060010154905081565b60008060008084600560009054906101000a900473ffffffffffffffffffffffffffffffffffffffff1673ffffffffffffffffffffffffffffffffffffffff1663f4586647826040518263ffffffff167c0100000000000000000000000000000000000000000000000000000000028152600401808260001916600019168152602001915050602060405180830381600087803b158015611f6657600080fd5b505af1158015611f7a573d6000803e3d6000fd5b505050506040513d6020811015611f9057600080fd5b81019080805190602001909291905050501515611fac57600080fd5b600560009054906101000a900473ffffffffffffffffffffffffffffffffffffffff1673ffffffffffffffffffffffffffffffffffffffff1663c68124ff876040518263ffffffff167c0100000000000000000000000000000000000000000000000000000000028152600401808260001916600019168152602001915050602060405180830381600087803b15801561204557600080fd5b505af1158015612059573d6000803e3d6000fd5b505050506040513d602081101561206f57600080fd5b8101908080519060200190929190505050151561208b57600080fd5b600560009054906101000a900473ffffffffffffffffffffffffffffffffffffffff1673ffffffffffffffffffffffffffffffffffffffff166354bf3656876040518263ffffffff167c0100000000000000000000000000000000000000000000000000000000028152600401808260001916600019168152602001915050602060405180830381600087803b15801561212457600080fd5b505af1158015612138573d6000803e3d6000fd5b505050506040513d602081101561214e57600080fd5b8101908080519060200190929190505050935061216c846001611bee565b151561217757600080fd5b60025492505b6003548310156122645760016000848152602001908152602001600020600001548410156122575760035491505b82821115612252576001600060018403815260200190815260200160002060016000848152602001908152602001600020600082015481600001556001820154816001015560028201548160020155600382015481600301906000191690556004820160009054906101000a900460ff168160040160006101000a81548160ff021916908315150217905550600582015481600501559050508180600190039250506121ab565b612264565b828060010193505061217d565b836001600085815260200190815260200160002060000181905550836001600085815260200190815260200160002060010181905550610e10600160008581526020019081526020016000206002018190555060036000815480929190600101919050555050505050919050565b6000809054906101000a900473ffffffffffffffffffffffffffffffffffffffff1673ffffffffffffffffffffffffffffffffffffffff163373ffffffffffffffffffffffffffffffffffffffff1614151561232d57600080fd5b612336816126b6565b50565b60008082600560009054906101000a900473ffffffffffffffffffffffffffffffffffffffff1673ffffffffffffffffffffffffffffffffffffffff1663f4586647826040518263ffffffff167c0100000000000000000000000000000000000000000000000000000000028152600401808260001916600019168152602001915050602060405180830381600087803b1580156123d657600080fd5b505af11580156123ea573d6000803e3d6000fd5b505050506040513d602081101561240057600080fd5b8101908080519060200190929190505050151561241c57600080fd5b600560009054906101000a900473ffffffffffffffffffffffffffffffffffffffff1673ffffffffffffffffffffffffffffffffffffffff16631da899d8856040518263ffffffff167c0100000000000000000000000000000000000000000000000000000000028152600401808260001916600019168152602001915050602060405180830381600087803b1580156124b557600080fd5b505af11580156124c9573d6000803e3d6000fd5b505050506040513d60208110156124df57600080fd5b810190808051906020019092919050505015156124fb57600080fd5b600560009054906101000a900473ffffffffffffffffffffffffffffffffffffffff1673ffffffffffffffffffffffffffffffffffffffff16633e4bba4f856040518263ffffffff167c0100000000000000000000000000000000000000000000000000000000028152600401808260001916600019168152602001915050602060405180830381600087803b15801561259457600080fd5b505af11580156125a8573d6000803e3d6000fd5b505050506040513d60208110156125be57600080fd5b8101908080519060200190929190505050915081600681600019169055506006546001600060025481526020019081526020016000206003018160001916905550600192505050919050565b6000818301905082811015151561261d57fe5b80905092915050565b60008284101580156126385750818411155b15612646576001905061264b565b600090505b9392505050565b6000612667848661260a90919063ffffffff16565b61267a838561260a90919063ffffffff16565b11151561268a576001905061268f565b600090505b949350505050565b600081831015156126ab57600190506126b0565b600090505b92915050565b600073ffffffffffffffffffffffffffffffffffffffff168173ffffffffffffffffffffffffffffffffffffffff16141515156126f257600080fd5b8073ffffffffffffffffffffffffffffffffffffffff166000809054906101000a900473ffffffffffffffffffffffffffffffffffffffff1673ffffffffffffffffffffffffffffffffffffffff167f8be0079c531659141344cd1fd0a4f28419497f9722a3daafe3b4186f6b6457e060405160405180910390a3806000806101000a81548173ffffffffffffffffffffffffffffffffffffffff021916908373ffffffffffffffffffffffffffffffffffffffff16021790555050565b60c060405190810160405280600081526020016000815260200160008152602001600080191681526020016000151581526020016000815250905600a165627a7a7230582033cd2f944b6f63966ae49d4a08c8003fe7289f4c61de80cc6ba8efb6610fd24b0029",
  "source": "/**\n * @title The contract that manages the creation and voting of the DAA.\n * @notice This contract is used when proposals are stored as structs but not created as individual contract by the factory.\n */\npragma solidity ^0.4.21;\n\nimport \"./Accessible.sol\";\nimport \"./TimedLib.sol\";\nimport \"./TallyClerkLib.sol\";\nimport \"./ProposalInterface.sol\";\nimport \"../node_modules/openzeppelin-solidity/contracts/math/SafeMath.sol\"; \nimport \"../node_modules/openzeppelin-solidity/contracts/ownership/Ownable.sol\"; \n\ncontract GAManager is Ownable {\n\n    using TimedLib for uint256;\n    using TallyClerkLib for *;\n    using SafeMath for uint256;\n\n    struct GAInfo {\n        uint256 GAStartTime;\n        uint256 currentEndTime;      // Indicates the end voting time of scheduled proposals\n        uint256 GADuration;\n        bytes32 hashOfStatutes;\n        bool extraordinaryGA;        // Note down whether the GA is an annual GA set by delegate (false) or an extraordinary one (true)\n        uint256 delegateElectionTime;    // Set the time when the delegate election is scheduled. Otherwise, zero.\n    }\n\n    mapping(uint256=>GAInfo) scheduledGA;\n    uint256 currentIndex;       // on-going or the lastest finished one.\n    uint256 totalScheduledGA;\n\n    Accessible public accessibleGate;\n    ProposalInterface public proposalGate;\n    bytes32 public currentHashOfStatutes;\n\n    TallyClerkLib.CandidancyForDelegate public potentialCandidateListForCurrentGA;\n    TallyClerkLib.CandidancyForDelegate private tempList;\n    \n    struct CandidateAssistant {\n        mapping(address=>uint256) listOfCandidateAddress;\n        uint256 numberOfCandidate;\n    }\n    // address newDelegate;\n\n    CandidateAssistant public candidateAssitant;\n    CandidateAssistant private tempCandidateAssitant;\n\n    uint256 constant TIMESPAN_GA = 104 weeks;               // The delegate can setup the annual GA that happens in max. 2 years\n    uint256 constant CLOSEST_FUTURE_GA = 4 weeks;           // The annual GA can only be set in 4 weeks.\n    uint256 constant MIN_INTERVAL_GA = 36 weeks;            // There should be min 9 months between two GAs.\n    //@TODO Check whether thest special constants are needed or not. If not, all the GA follows the same rule of settlement.\n    uint256 constant TIMESPAN_EXTRAGA = 24 weeks;          // Members can propose an extraordinary GA that takes place in max. 6\n    uint256 constant CLOSEST_FUTURE_EXTRAGA = 3 weeks;      // The extraordinary GA can be held in 3 weeks, starting from now.\n    uint256 constant MIN_INTERVAL_EXTRAGA = 36 weeks;       // There should be minimum 9 months of time between two extraordinary GA. \n    uint256 constant MIN_INTERVAL_GA_EXTRAGA = 8 weeks;     // There should be a minimum amount of time for two GAs to be held (regardless their type)\n    uint256 constant STANDARDGA_DURATION = 60 minutes;\n    uint256 constant VOTINGTIMEGAP_BETWEENPROPOSALS_GA = 3 minutes;\n    uint256 constant VOTINGDURITION_PROPOSAL_GA = 10 minutes;\n\n    /**\n     *@dev Check if there is still a GA planned in the pipeline\n     */\n    modifier scheduledGAExists {\n        require(currentIndex > 0);\n        _;\n    }\n\n    /**\n     *@dev Check if the current time is still before the closest GA startes.\n     */\n    modifier beforeGAstarts {\n        require(scheduledGA[currentIndex].GAStartTime.add(scheduledGA[currentIndex].GADuration).isFinished(block.timestamp));\n        _;\n    }\n\n    /**\n     *@dev Check if the message is called by the proposal manager.\n     */\n    modifier proposalOnly {\n        require(msg.sender == address(proposalGate));\n        _;\n    }\n\n    /**\n     *@dev Check if the proposed GA date respect the requirement of not being too close to other scheduled GAs.\n     */\n    modifier shouldInSpan(uint256 _proposedGADate, bool _isExtraGA) {\n        if (_isExtraGA) {\n            require(_proposedGADate.isInside(block.timestamp, TIMESPAN_EXTRAGA));\n        } else {\n            require(_proposedGADate.isInside(block.timestamp, TIMESPAN_GA));\n        }\n        _;\n    }\n\n    /**\n     *@dev Check if the proposal has been concluded as sucessful, via its ID.\n     */\n    modifier successfulProposal(bytes32 _proposalID) {\n        require(proposalGate.getProposalFinalResult(_proposalID));\n        _;\n    }\n\n    /**\n     *@dev Check if the address is empty or not \n     */\n    modifier notEmpty(address _adr) {\n        require(_adr != 0x0);\n        _;\n    }\n\n    /**\n     *@title Construct a GA Manger, who holds the information of current statutes\n     *@param _membershipAdr The address of membership contract\n     *@param _proposalInterfaceAdr The address of proposal manager contract\n     *@param _initialHash The hash of current statutes.\n     */\n    constructor(address _membershipAdr, address _proposalInterfaceAdr, bytes32 _initialHash) public {\n        accessibleGate = Accessible(_membershipAdr);\n        proposalGate = ProposalInterface(_proposalInterfaceAdr);\n        currentHashOfStatutes = _initialHash;\n    }\n\n    /**\n     *@title Update the address of the membership contract\n     *@dev This function can only be called by the DAA, eventually trigged by a successful proposal\n     *@param _newAccessible The address of the new membership contract.\n     */\n    function updateMembershipContractAddress(address _newAccessible) public onlyOwner notEmpty(_newAccessible) {\n        // require(_newAccessible != 0x0);\n        accessibleGate = Accessible(_newAccessible);\n    }\n\n    /**\n     *@title Update address of the proposal manager contract\n     *@dev This function can only be called by the DAA, eventually trigged by a successful proposal\n     *@param _newProposal The address of the new proposal manager contract.\n     */\n    function updateProposalContractAddress(address _newProposal) public onlyOwner notEmpty(_newProposal) {\n        // require(_newProposal != 0x0);\n        proposalGate = ProposalInterface(_newProposal);\n    }\n\n    /**\n     *@title \n     */\n    function addDelegateCandidate(address _adr) beforeGAstarts external proposalOnly {\n        require(candidateAssitant.listOfCandidateAddress[_adr] == 0);\n        // list starts from 0\n        potentialCandidateListForCurrentGA.list[candidateAssitant.numberOfCandidate].candidate = _adr;\n        potentialCandidateListForCurrentGA.list[candidateAssitant.numberOfCandidate].supportingVoteNum = 0;\n        // listOfCandidateAddress starts from 1\n        candidateAssitant.numberOfCandidate++;\n        candidateAssitant.listOfCandidateAddress[_adr] = candidateAssitant.numberOfCandidate;\n        potentialCandidateListForCurrentGA.totalLength++;\n        potentialCandidateListForCurrentGA.revoteOrNot = false;\n        potentialCandidateListForCurrentGA.potentialRevote = 0;\n    }\n\n    /**\n     *@title Assign all the candidacy proposals that are in the pipeline to the target GA.\n     *@param _proposalID The reference ID of proposals.\n     *@param _gaIndex The index of the target GA. \n     */\n    function setDelegateProposalsToGA(uint256 _gaIndex) public returns (bool) {\n        uint256 _startingTime = getTimeIfNextGAExistsAndNotYetFullyBooked(_gaIndex);\n        require(_startingTime != 0);\n        scheduledGA[_gaIndex].delegateElectionTime = _startingTime;\n        scheduledGA[_gaIndex].currentEndTime = _startingTime.add(VOTINGDURITION_PROPOSAL_GA).add(VOTINGTIMEGAP_BETWEENPROPOSALS_GA);\n        return true;\n    }\n\n\n    /**\n     *@dev check if the GA respects the minimum time gap for GAs. This function may need modification when more regulation is applied.\n     *@notice This function currently take both types of GA as identical. They both follow the same set of limitation in timespan and minimum interval.\n     */\n    function canSetGA(uint256 _time, bool _isExtraGA) public view shouldInSpan(_time, _isExtraGA) returns (bool) {\n        uint256 minInterval;\n        uint256 closestFuture;\n        if (_isExtraGA) {\n            minInterval = MIN_INTERVAL_EXTRAGA;\n            closestFuture = CLOSEST_FUTURE_EXTRAGA;\n        } else {\n            minInterval = MIN_INTERVAL_GA;\n            closestFuture = CLOSEST_FUTURE_GA;\n        }\n        if (_time > now.add(closestFuture)) {\n            if (totalScheduledGA == 0) {\n                return true;\n            } else {\n                for (uint256 i = currentIndex; i < totalScheduledGA; i++) {\n                    if (_time < scheduledGA[i].GAStartTime) {\n                        if (scheduledGA[i-1].GAStartTime.add(scheduledGA[i-1].GADuration).add(minInterval) < _time && _time.add(minInterval) < scheduledGA[i].GAStartTime) {\n                            return true;\n                        } else {\n                            return false;\n                        }\n                    }\n                }\n                if (scheduledGA[i-1].GAStartTime.add(scheduledGA[i-1].GADuration).add(minInterval) < _time) {\n                    return true;\n                }\n            }\n        }\n        \n        if (_time > now.add(closestFuture) && scheduledGA[currentIndex].GAStartTime.add(scheduledGA[currentIndex].GADuration).add(minInterval) < _time) {\n            if (totalScheduledGA > currentIndex && _time.add(minInterval) <scheduledGA[currentIndex + 1].GAStartTime) {\n                return true;\n            }\n        }\n        return false;\n    }\n\n    function voteForDelegate(address _adr) public proposalOnly returns (bool) {\n        potentialCandidateListForCurrentGA.list[candidateAssitant.listOfCandidateAddress[_adr]-1].supportingVoteNum++;\n        potentialCandidateListForCurrentGA.participantNum++;\n        return true;\n    }\n\n    /**\n     *@dev Return the decision, whether (some) candidate(s) received votes reaches the minimum requirement\n     *     whether to revote the candidate or not. \n     *     If non, tell the index where the hightest vote is stored. If yes, tell how many candidates are needed to participate into the next round.\n     */\n    function concludeDelegateVoting(uint256 _minParticipant, uint _minYes) public returns (bool, bool) {\n        potentialCandidateListForCurrentGA.findMostVotes();\n        // Check if the the participant number reaches minimum\n        if (potentialCandidateListForCurrentGA.participantNum > _minParticipant) {\n            if (potentialCandidateListForCurrentGA.list[potentialCandidateListForCurrentGA.markedPositionForRevote[0]].supportingVoteNum > _minYes) {\n                if (potentialCandidateListForCurrentGA.revoteOrNot == false) {\n                    // Here shows the final delegate. \n                    accessibleGate.setDelegate(potentialCandidateListForCurrentGA.list[potentialCandidateListForCurrentGA.markedPositionForRevote[0]].candidate);\n                    delete(potentialCandidateListForCurrentGA);\n                    delete(candidateAssitant);\n                    return (true, false);\n                } else {\n                    // Enter revoting phase.\n                    // 1. Need to create a(n) (additional) time slot.\n                    GAInfo memory temp = scheduledGA[currentIndex];\n                    // CandidateAssistant memory tempCandidateAssitant;\n                    if (temp.GAStartTime.canSchedule(temp.GADuration, temp.currentEndTime, VOTINGDURITION_PROPOSAL_GA) == false) {\n                        // current GA is full. Need to extend it and shcedule the meeting\n                        scheduledGA[currentIndex].GADuration = scheduledGA[currentIndex].GADuration.add(VOTINGDURITION_PROPOSAL_GA);\n                    }\n                        // put the next round into the current GA\n                        scheduledGA[currentIndex].delegateElectionTime = scheduledGA[currentIndex].currentEndTime;\n                        scheduledGA[currentIndex].currentEndTime = scheduledGA[currentIndex].currentEndTime.add(VOTINGDURITION_PROPOSAL_GA).add(VOTINGTIMEGAP_BETWEENPROPOSALS_GA);\n                    // 2. Need to create new proposal list. \n                    \n                    tempList.totalLength = potentialCandidateListForCurrentGA.potentialRevote;\n                    tempCandidateAssitant.numberOfCandidate = tempList.totalLength;\n                    for (uint256 i = 0; i < potentialCandidateListForCurrentGA.potentialRevote; i++) {\n                        tempList.list[i] = potentialCandidateListForCurrentGA.list[potentialCandidateListForCurrentGA.markedPositionForRevote[i]];\n                        tempCandidateAssitant.listOfCandidateAddress[tempList.list[i].candidate] = i;\n                    }\n                    potentialCandidateListForCurrentGA = tempList;\n                    candidateAssitant = tempCandidateAssitant;\n                    delete(tempList);\n                    delete(tempCandidateAssitant);\n                    return (true, true);\n                }\n            } else {\n                delete(candidateAssitant);\n                delete(potentialCandidateListForCurrentGA);\n                return (false, false);\n            }\n        } else {\n            delete(candidateAssitant);\n            delete(potentialCandidateListForCurrentGA);\n            return (false, false);\n        }\n    }\n\n    function setGATime (uint256 _nextGATime, uint256 _duration) public returns (bool) {\n        // either it's from delegate, or it's from GA proposal\n        require(accessibleGate.checkIsDelegate(msg.sender));\n        require(canSetGA(_nextGATime, false));\n        // set the time & date\n        for (uint256 i = currentIndex; i < totalScheduledGA; i++) {\n            if (_nextGATime < scheduledGA[i].GAStartTime) {\n                // add the new GA time and date at place i. All the old elements that were at i -> i+1\n                for (uint256 j = totalScheduledGA; j > i; j--) {\n                    scheduledGA[j] = scheduledGA[j-1];\n                }\n                break;\n            }\n        }\n        scheduledGA[i].GAStartTime = _nextGATime;\n        scheduledGA[i].currentEndTime = _nextGATime;\n        scheduledGA[i].GADuration = _duration;\n        // if (i == 0) {\n        //     scheduledGA[i].hashOfStatutes = initialHashOfStatutes;\n        // } else {\n        //     scheduledGA[i].hashOfStatutes = scheduledGA[i-1].hashOfStatutes;\n        // }\n        totalScheduledGA++;\n    \n    }\n\n    //@TODO if by defaut, it's 60 min\n    function setExtraordinaryGA(bytes32 _proposalID) public successfulProposal(_proposalID) returns (bool) {\n        // require(proposalGate.getProposalFinalResult(_proposalID));\n        require(proposalGate.checkActionIsSuccessfulGA(_proposalID));\n        uint256 _nextGATime = proposalGate.getProposalProposedDate(_proposalID);\n        require(canSetGA(_nextGATime, true));\n        // set the time & date\n        for (uint256 i = currentIndex; i < totalScheduledGA; i++) {\n            if (_nextGATime < scheduledGA[i].GAStartTime) {\n                // add the new GA time and date at place i. All the old elements that were at i -> i+1\n                for (uint256 j = totalScheduledGA; j > i; j--) {\n                    scheduledGA[j] = scheduledGA[j-1];\n                }\n                break;\n            }\n        }\n        scheduledGA[i].GAStartTime = _nextGATime;\n        scheduledGA[i].currentEndTime = _nextGATime;\n        scheduledGA[i].GADuration = STANDARDGA_DURATION;\n        totalScheduledGA++;\n    }\n\n    function isDuringGA() public view returns (bool) {\n        if (now.isInside(scheduledGA[currentIndex + 1].GAStartTime,scheduledGA[currentIndex].GAStartTime.add(scheduledGA[currentIndex].GADuration))) {\n            return true;\n        } else {\n            return false;\n        }\n    }\n    /**\n     *@notice Anyone can update this information.\n     */\n    function updateCurrentGA() public returns (bool) {\n        if (now.isInside(scheduledGA[currentIndex + 1].GAStartTime,scheduledGA[currentIndex + 1].GAStartTime.add(scheduledGA[currentIndex + 1].GADuration))) {\n            currentIndex++;\n            scheduledGA[currentIndex].hashOfStatutes = currentHashOfStatutes;\n            return true;\n        } else {\n            return false;\n        }\n    }\n    /**\n     *@dev Upon the success of the correct type of proposal.\n     */\n    function setNewStatute(bytes32 _proposalID) public successfulProposal(_proposalID) returns (bool) {\n        // upon proposal success\n        // require(proposalGate.getProposalFinalResult(_proposalID));\n        require(proposalGate.checkActionIsStatute(_proposalID));\n\n        bytes32 _newHash = proposalGate.getProposalStatute(_proposalID);\n        currentHashOfStatutes = _newHash;\n        scheduledGA[currentIndex].hashOfStatutes = currentHashOfStatutes;\n        return true;\n    }\n\n    /**\n     *@title check If the next GA is planned. If yes, whether is already fully booked.\n     *@dev   If there is still possible slot for another proposal, returns the timestamp where\n     *       proposals could be added. \n     *@notice This function is used when the GA proposals are set via the function \"setProposalToGA\" in ProposalManager.sol\n     *@param _gaIndex The index of the scheduled GA. \n     */\n    function getTimeIfNextGAExistsAndNotYetFullyBooked(uint256 _gaIndex) proposalOnly public returns (uint256) {\n        GAInfo memory temp = scheduledGA[_gaIndex];\n        if (temp.GAStartTime > block.timestamp && temp.GAStartTime.canSchedule(temp.GADuration, temp.currentEndTime, VOTINGDURITION_PROPOSAL_GA)) {\n            uint256 _end = temp.currentEndTime;\n            scheduledGA[_gaIndex].currentEndTime = _end.add(VOTINGDURITION_PROPOSAL_GA).add(VOTINGTIMEGAP_BETWEENPROPOSALS_GA);\n            return _end;\n        } else {\n            return 0;\n        }\n    }\n    \n    /**\n     *@title Getter to check if we could vote for delegate now\n     */\n    function canVoteForDelegate(address _candidate) public view returns (bool) {\n        GAInfo memory temp = scheduledGA[currentIndex];\n        //@TODO If this _candidate is inside the list of candidates.\n        if (candidateAssitant.listOfCandidateAddress[_candidate] != 0) {\n            return (block.timestamp.isInside(temp.delegateElectionTime, temp.delegateElectionTime.add(VOTINGDURITION_PROPOSAL_GA)));\n        } else {\n            return false;\n        }\n    }\n\n    // /**\n    //  *@title Check if there is already some time scheduled for delegate election. If not set it.\n    //  *@dev check If the next GA is planned. If yes, whether is already fully booked.\n    //  *@notice This function is used when the GA proposals are set via the function \"setProposalToGA\" in ProposalManager.sol\n    //  *@param _gaIndex The index of the scheduled GA. \n    //  */\n    // function getTimeAtNextGAForDelegateElection(uint256 _gaIndex) proposalOnly public returns (uint256) {\n    //     GAInfo memory temp = scheduledGA[_gaIndex];\n    //     if (temp.GAStartTime > block.timestamp) {\n    //         if (temp.delegateElectionTime != 0) {\n    //             // already smth scheduled\n    //             return temp.delegateElectionTime;\n    //         } else {\n    //             uint256 _end = temp.currentEndTime;\n    //             if (_end.add(VOTINGDURITION_PROPOSAL_GA) < temp.GAStartTime.add(temp.GADuration)) {\n    //                 temp.delegateElectionTime = _end;\n    //                 scheduledGA[_gaIndex].currentEndTime = _end.add(VOTINGDURITION_PROPOSAL_GA).add(VOTINGTIMEGAP_BETWEENPROPOSALS_GA);\n    //                 return _end;\n    //             }\n    //         }\n    //     }\n    //     return 0;\n    // }\n\n    // /**\n    //  *@title This function updates the current schedule of a given GA.\n    //  *@dev This action can only be initiated by the ProposalManger\n    //  *@param _gaIndex The index of the scheduled GA.\n    //  *@param _newEndingTime The new time when all the proposals from the addressed GA will be finished.\n    //  */\n    // function setGAcurrentEndTime(uint256 _gaIndex, uint256 _newEndingTime) proposalOnly public returns (bool) {\n    //     scheduledGA[_gaIndex].currentEndTime = _newEndingTime;\n    //     return true;\n    // }\n\n    /**\n     *@title Getter for the starting time and the duration of the GA\n     *@param _gaIndex The index of the addressed scheduled GA.\n     */\n    function getGAStartAndDuration(uint256 _gaIndex) public view returns (uint256, uint256) {\n        GAInfo memory temp = scheduledGA[_gaIndex];\n        return(temp.GAStartTime, temp.GADuration);\n    }\n\n}",
  "sourcePath": "C:\\Users\\vasil\\OneDrive\\Documents\\02_e-swissolar\\02_prj\\Truffle-React-ReFiDAO-Sandbox\\backend\\contracts\\GAManager.sol",
  "compiler": {
    "name": "solc",
    "version": "0.4.26+commit.4563c3fc.Emscripten.clang"
  },
  "schemaVersion": "3.4.4",
  "updatedAt": "2022-08-10T19:12:30.468Z",
  "networkType": "ethereum",
  "devdoc": {
    "methods": {
      "renounceOwnership()": {
        "details": "Allows the current owner to relinquish control of the contract."
      },
      "transferOwnership(address)": {
        "details": "Allows the current owner to transfer control of the contract to a newOwner.",
        "params": {
          "_newOwner": "The address to transfer ownership to."
        }
      }
    }
  },
  "userdoc": {
    "methods": {
      "addDelegateCandidate(address)": {
        "notice": "title "
      },
      "canSetGA(uint256,bool)": {
        "notice": "dev check if the GA respects the minimum time gap for GAs. This function may need modification when more regulation is applied. notice This function currently take both types of GA as identical. They both follow the same set of limitation in timespan and minimum interval."
      },
      "canVoteForDelegate(address)": {
        "notice": "title Getter to check if we could vote for delegate now"
      },
      "concludeDelegateVoting(uint256,uint256)": {
        "notice": "dev Return the decision, whether (some) candidate(s) received votes reaches the minimum requirement    whether to revote the candidate or not.     If non, tell the index where the hightest vote is stored. If yes, tell how many candidates are needed to participate into the next round."
      },
      "getGAStartAndDuration(uint256)": {
        "notice": "title Getter for the starting time and the duration of the GA param _gaIndex The index of the addressed scheduled GA."
      },
      "getTimeIfNextGAExistsAndNotYetFullyBooked(uint256)": {
        "notice": "title check If the next GA is planned. If yes, whether is already fully booked. dev   If there is still possible slot for another proposal, returns the timestamp where      proposals could be added.  notice This function is used when the GA proposals are set via the function \"setProposalToGA\" in ProposalManager.sol param _gaIndex The index of the scheduled GA. "
      },
      "renounceOwnership()": {
        "notice": "Renouncing to ownership will leave the contract without an owner. It will not be possible to call the functions with the `onlyOwner` modifier anymore."
      },
      "setDelegateProposalsToGA(uint256)": {
        "notice": "title Assign all the candidacy proposals that are in the pipeline to the target GA. param _proposalID The reference ID of proposals. param _gaIndex The index of the target GA. "
      },
      "setNewStatute(bytes32)": {
        "notice": "dev Upon the success of the correct type of proposal."
      },
      "updateCurrentGA()": {
        "notice": "notice Anyone can update this information."
      },
      "updateMembershipContractAddress(address)": {
        "notice": "title Update the address of the membership contract dev This function can only be called by the DAA, eventually trigged by a successful proposal param _newAccessible The address of the new membership contract."
      },
      "updateProposalContractAddress(address)": {
        "notice": "title Update address of the proposal manager contract dev This function can only be called by the DAA, eventually trigged by a successful proposal param _newProposal The address of the new proposal manager contract."
      }
    }
  }
}