{
  "contractName": "MinimalProposal",
  "abi": [
    {
      "constant": true,
      "inputs": [
        {
          "name": "",
          "type": "bytes32"
        }
      ],
      "name": "proposalList",
      "outputs": [
        {
          "name": "proposalID",
          "type": "bytes32"
        },
        {
          "name": "shortDescription",
          "type": "bytes32"
        },
        {
          "name": "startingTime",
          "type": "uint256"
        },
        {
          "name": "endingTime",
          "type": "uint256"
        },
        {
          "name": "concludeStatus",
          "type": "bool"
        },
        {
          "name": "finalResult",
          "type": "bool"
        },
        {
          "name": "proposalType",
          "type": "bool"
        }
      ],
      "payable": false,
      "stateMutability": "view",
      "type": "function"
    },
    {
      "constant": true,
      "inputs": [
        {
          "name": "_proposalID",
          "type": "bytes32"
        }
      ],
      "name": "isProposalVotable",
      "outputs": [
        {
          "name": "",
          "type": "bool"
        }
      ],
      "payable": false,
      "stateMutability": "view",
      "type": "function"
    },
    {
      "constant": true,
      "inputs": [
        {
          "name": "_proposalID",
          "type": "bytes32"
        }
      ],
      "name": "isProposalConcludable",
      "outputs": [
        {
          "name": "",
          "type": "bool"
        }
      ],
      "payable": false,
      "stateMutability": "view",
      "type": "function"
    },
    {
      "constant": true,
      "inputs": [
        {
          "name": "_proposalID",
          "type": "bytes32"
        }
      ],
      "name": "isProposalConcluded",
      "outputs": [
        {
          "name": "",
          "type": "bool"
        }
      ],
      "payable": false,
      "stateMutability": "view",
      "type": "function"
    },
    {
      "constant": true,
      "inputs": [
        {
          "name": "_proposalID",
          "type": "bytes32"
        }
      ],
      "name": "isProposalNotEndYet",
      "outputs": [
        {
          "name": "",
          "type": "bool"
        }
      ],
      "payable": false,
      "stateMutability": "view",
      "type": "function"
    },
    {
      "constant": true,
      "inputs": [
        {
          "name": "_proposalID",
          "type": "bytes32"
        }
      ],
      "name": "getProposalType",
      "outputs": [
        {
          "name": "",
          "type": "bool"
        }
      ],
      "payable": false,
      "stateMutability": "view",
      "type": "function"
    },
    {
      "constant": true,
      "inputs": [
        {
          "name": "_proposalID",
          "type": "bytes32"
        }
      ],
      "name": "getProposalFinalResult",
      "outputs": [
        {
          "name": "",
          "type": "bool"
        }
      ],
      "payable": false,
      "stateMutability": "view",
      "type": "function"
    }
  ],
  "bytecode": "0x608060405234801561001057600080fd5b5061054f806100206000396000f300608060405260043610610083576000357c0100000000000000000000000000000000000000000000000000000000900463ffffffff1680630e2f26cf1461008857806330fa63ab146100d15780633f470c511461015c578063814fde0a146101a5578063a491d3e1146101ee578063ed02041814610237578063f458664714610280575b600080fd5b34801561009457600080fd5b506100b760048036038101908080356000191690602001909291905050506102c9565b604051808215151515815260200191505060405180910390f35b3480156100dd57600080fd5b5061010060048036038101908080356000191690602001909291905050506102fd565b604051808860001916600019168152602001876000191660001916815260200186815260200185815260200184151515158152602001831515151581526020018215151515815260200197505050505050505060405180910390f35b34801561016857600080fd5b5061018b6004803603810190808035600019169060200190929190505050610366565b604051808215151515815260200191505060405180910390f35b3480156101b157600080fd5b506101d460048036038101908080356000191690602001909291905050506103be565b604051808215151515815260200191505060405180910390f35b3480156101fa57600080fd5b5061021d60048036038101908080356000191690602001909291905050506103f2565b604051808215151515815260200191505060405180910390f35b34801561024357600080fd5b50610266600480360381019080803560001916906020019092919050505061042b565b604051808215151515815260200191505060405180910390f35b34801561028c57600080fd5b506102af6004803603810190808035600019169060200190929190505050610467565b604051808215151515815260200191505060405180910390f35b6000806000836000191660001916815260200190815260200160002060040160029054906101000a900460ff169050919050565b60006020528060005260406000206000915090508060000154908060010154908060020154908060030154908060040160009054906101000a900460ff16908060040160019054906101000a900460ff16908060040160029054906101000a900460ff16905087565b60006103b7600080846000191660001916815260200190815260200160002060020154600080856000191660001916815260200190815260200160002060030154426104d89092919063ffffffff16565b9050919050565b6000806000836000191660001916815260200190815260200160002060040160009054906101000a900460ff169050919050565b60006104246000808460001916600019168152602001908152602001600020600301544261050490919063ffffffff16565b9050919050565b60006104606000806000856000191660001916815260200190815260200160002060030154426104d89092919063ffffffff16565b9050919050565b600060011515600080846000191660001916815260200190815260200160002060040160009054906101000a900460ff1615151415156104a657600080fd5b600080836000191660001916815260200190815260200160002060040160019054906101000a900460ff169050919050565b60008284101580156104ea5750818411155b156104f857600190506104fd565b600090505b9392505050565b60008183101515610518576001905061051d565b600090505b929150505600a165627a7a723058203413b1d6a99f86300c2e3342f21e984c5311d9dd750cd0918bd4072a9e7241a30029",
  "source": "/**\n * @title The interface to check basic proposals\n * @notice This contract is used when proposals are stored as structs but not created as individual contract by the factory.\n */\npragma solidity ^0.4.21;\n\nimport \"./Accessible.sol\";\nimport \"./TimedLib.sol\";\n// import \"./ProposalInterface.sol\";\nimport \"../node_modules/openzeppelin-solidity/contracts/math/SafeMath.sol\"; \n\ncontract MinimalProposal {\n\n    using TimedLib for uint256;\n\n    struct BasicProposal {\n        bytes32 proposalID;          // This attribute needs to be replaced by the incremental proposalID (uint256)\n        // uint256 proposalID;\n        bytes32 shortDescription;    // This allows members to quickly check the proposal before participating in the vote.\n        uint256 startingTime;        // Blocktime of the start of the voting for proposal\n        uint256 endingTime;          // Blocktime of the end of the voting\n        bool concludeStatus;         // Whether the purposal is concluded by someone\n        bool finalResult;            // The concluded result of the proposal. Only valid after the concludeStatus == true;\n        bool proposalType;           // False for normal proposal; True for GA proposal;\n        // There is no need for the proposalType when the actionType is expanded with one additional element for non GA proposals\n    }\n\n    // uint256 public currentProposalID;   // This takes care of the counter for the next new proposal. \n                                        // Noted, there is a chance that when the proposal manager get updated, this variable is set by default to 0 and mess up with the wallet system.\n    mapping(bytes32=>BasicProposal) public proposalList;\n\n    modifier votable(bytes32 _proposalID) {\n        require(block.timestamp.isInside(proposalList[_proposalID].startingTime,proposalList[_proposalID].endingTime));\n        _;\n    }\n\n    modifier concludable(bytes32 _proposalID) {\n        require(block.timestamp.isFinished(proposalList[_proposalID].endingTime));\n        _;\n    }\n\n    modifier concluded(bytes32 _proposalID) {\n        require(proposalList[_proposalID].concludeStatus == true);\n        _;\n    }\n\n    modifier correctProposalType(bytes32 _proposalID, bool _typeShouldBe) {\n        require(proposalList[_proposalID].proposalType == _typeShouldBe);\n        _;\n    }\n\n    //@TODO Check if this function is useful or not\n    modifier shouldLastNoLongerThan(uint256 _proposedDuration, uint256 _maxDuration) {\n        require(_proposedDuration.isInside(0, _maxDuration));\n        _;\n    }\n\n    modifier canTakeAction(bytes32 _proposalID) {\n        require(proposalList[_proposalID].concludeStatus == true && proposalList[_proposalID].finalResult == true);\n        _;\n    }\n\n    // ----- Functions -----\n\n    function isProposalVotable(bytes32 _proposalID) external view returns (bool) {\n        return block.timestamp.isInside(proposalList[_proposalID].startingTime,proposalList[_proposalID].endingTime);\n    }\n    \n    function isProposalConcludable(bytes32 _proposalID) external view returns (bool) {\n        return block.timestamp.isFinished(proposalList[_proposalID].endingTime);\n    }\n    \n    function isProposalConcluded(bytes32 _proposalID) external view returns (bool) {\n        return proposalList[_proposalID].concludeStatus;\n    }\n\n    function isProposalNotEndYet(bytes32 _proposalID) external view returns (bool) {\n        return block.timestamp.isInside(0,proposalList[_proposalID].endingTime);\n    }\n\n    /**\n     *@dev Return the type of proposal: If it is a normal proposal then return false; If it's a GA proposal, return true;\n     */\n    function getProposalType(bytes32 _proposalID) external view returns (bool) {\n        return proposalList[_proposalID].proposalType;\n    }\n\n    function getProposalFinalResult(bytes32 _proposalID) external view returns (bool) {\n        require(proposalList[_proposalID].concludeStatus == true);\n        return proposalList[_proposalID].finalResult;\n    }\n}",
  "sourcePath": "C:\\Users\\vasil\\OneDrive\\Documents\\02_e-swissolar\\02_prj\\Truffle-React-ReFiDAO-Sandbox\\backend\\contracts\\MinimalProposal.sol",
  "compiler": {
    "name": "solc",
    "version": "0.4.26+commit.4563c3fc.Emscripten.clang"
  },
  "schemaVersion": "3.4.4",
  "updatedAt": "2022-08-10T19:12:20.352Z",
  "devdoc": {
    "methods": {}
  },
  "userdoc": {
    "methods": {
      "getProposalType(bytes32)": {
        "notice": "dev Return the type of proposal: If it is a normal proposal then return false; If it's a GA proposal, return true;"
      }
    }
  }
}