{
  "contractName": "TallyClerkLib",
  "abi": [
    {
      "constant": false,
      "inputs": [
        {
          "name": "_currentVotes",
          "type": "TallyClerkLib.VotesPerProposal storage"
        },
        {
          "name": "_voter",
          "type": "address"
        },
        {
          "name": "_newVote",
          "type": "TallyClerkLib.voteTicket"
        }
      ],
      "name": "refreshResult",
      "outputs": [],
      "payable": false,
      "stateMutability": "nonpayable",
      "type": "function"
    },
    {
      "constant": true,
      "inputs": [
        {
          "name": "_yesVoteNum",
          "type": "uint256"
        },
        {
          "name": "_totalNum",
          "type": "uint256"
        }
      ],
      "name": "isMajority",
      "outputs": [
        {
          "name": "",
          "type": "bool"
        }
      ],
      "payable": false,
      "stateMutability": "pure",
      "type": "function"
    },
    {
      "constant": true,
      "inputs": [
        {
          "name": "_totalNumber",
          "type": "uint256"
        },
        {
          "name": "_quorumNumerator",
          "type": "uint256"
        },
        {
          "name": "_quorumDemoninator",
          "type": "uint256"
        }
      ],
      "name": "calculateQuorum",
      "outputs": [
        {
          "name": "",
          "type": "uint256"
        }
      ],
      "payable": false,
      "stateMutability": "pure",
      "type": "function"
    },
    {
      "constant": false,
      "inputs": [
        {
          "name": "_allCandidates",
          "type": "TallyClerkLib.CandidancyForDelegate storage"
        }
      ],
      "name": "findMostVotes",
      "outputs": [],
      "payable": false,
      "stateMutability": "nonpayable",
      "type": "function"
    },
    {
      "constant": true,
      "inputs": [
        {
          "name": "_allCandidates",
          "type": "TallyClerkLib.CandidancyForDelegate storage"
        }
      ],
      "name": "needRevote",
      "outputs": [
        {
          "name": "",
          "type": "bool"
        }
      ],
      "payable": false,
      "stateMutability": "view",
      "type": "function"
    }
  ],
  "bytecode": "0x610696610030600b82828239805160001a6073146000811461002057610022565bfe5b5030600052607381538281f3007300000000000000000000000000000000000000003014608060405260043610610084576000357c0100000000000000000000000000000000000000000000000000000000900463ffffffff168063203cd4c314610089578063a8e8cf4f146100b6578063ab2b3342146100ee578063cca0a5a714610136578063d5a5bad414610190575b600080fd5b81801561009557600080fd5b506100b4600480360381019080803590602001909291905050506101d2565b005b6100d460048036038101908080359060200190929190505050610300565b604051808215151515815260200191505060405180910390f35b610120600480360381019080803590602001909291908035906020019092919080359060200190929190505050610343565b6040518082815260200191505060405180910390f35b81801561014257600080fd5b5061018e60048036038101908080359060200190929190803573ffffffffffffffffffffffffffffffffffffffff169060200190929190803560ff169060200190929190505050610387565b005b6101b860048036038101908080359060200190929190803590602001909291905050506105eb565b604051808215151515815260200191505060405180910390f35b600080600080925060009150600090505b83600101548110156102fa578360000160008281526020019081526020016000206001015483101561024d57836000016000828152602001908152602001600020600101549250600191508084600501600080815260200190815260200160002081905550610291565b8360000160008281526020019081526020016000206001015483141561029057808460050160008481526020019081526020016000208190555081806001019250505b5b60018211156102c55760018460020160006101000a81548160ff0219169083151502179055508184600301819055506102ed565b60008460020160006101000a81548160ff021916908315150217905550600184600301819055505b80806001019150506101e3565b50505050565b60006001826003015411801561032b5750600115158260020160009054906101000a900460ff161515145b15610339576001905061033e565b600090505b919050565b60008082841115151561035557600080fd5b61037a8361036c868861061c90919063ffffffff16565b61065490919063ffffffff16565b9050809150509392505050565b6000600381111561039457fe5b8360030160008473ffffffffffffffffffffffffffffffffffffffff1673ffffffffffffffffffffffffffffffffffffffff16815260200190815260200160002060009054906101000a900460ff1660038111156103ee57fe5b141561040d578260000160008154809291906001019190505550610518565b60038081111561041957fe5b8360030160008473ffffffffffffffffffffffffffffffffffffffff1673ffffffffffffffffffffffffffffffffffffffff16815260200190815260200160002060009054906101000a900460ff16600381111561047357fe5b141561049357826001016000815480929190600190039190505550610517565b600160038111156104a057fe5b8360030160008473ffffffffffffffffffffffffffffffffffffffff1673ffffffffffffffffffffffffffffffffffffffff16815260200190815260200160002060009054906101000a900460ff1660038111156104fa57fe5b1415610516578260020160008154809291906001900391905055505b5b5b60038081111561052457fe5b81600381111561053057fe5b141561054f578260010160008154809291906001019190505550610584565b6001600381111561055c57fe5b81600381111561056857fe5b14156105835782600201600081548092919060010191905055505b5b808360030160008473ffffffffffffffffffffffffffffffffffffffff1673ffffffffffffffffffffffffffffffffffffffff16815260200190815260200160002060006101000a81548160ff021916908360038111156105e157fe5b0217905550505050565b600061060160028361065490919063ffffffff16565b8311156106115760019050610616565b600090505b92915050565b60008083141561062f576000905061064e565b818302905081838281151561064057fe5b0414151561064a57fe5b8090505b92915050565b6000818381151561066157fe5b049050929150505600a165627a7a723058206ad46345eb3e9424be052d7303cb50aa9e4507dccbe52e7aa677a2c8fd3d32ee0029",
  "source": "/**\n * @title Library to count and calculate the voting result\n * @dev  The contract should inherate the methods of SafteMath.\n */\npragma solidity ^0.4.21;\n\nimport \"../node_modules/openzeppelin-solidity/contracts/math/SafeMath.sol\"; \n\nlibrary TallyClerkLib {\n\n    using SafeMath for uint256;\n\n    enum voteTicket{NotYetParticipated, Abstain, No, Yes}\n\n    struct VotesPerProposal {\n        uint256 participantNum;\n        uint256 yesNum;\n        uint256 abstainNum;\n        mapping(address=>voteTicket) participantList;\n    }\n\n    struct VotesForDelegate {\n        mapping(address=>bytes32) participantList;\n        uint256 participantNum;\n    }\n\n    // The following structs (1/2) are specifically for GA proposal where a new delegate needs to be selected.\n    struct SingleCandidancy {\n        address candidate;\n        uint256 supportingVoteNum;\n    }\n\n    // The following structs (2/2) are specifically for GA proposal where a new delegate needs to be selected.\n    struct CandidancyForDelegate {\n        mapping(uint256=>SingleCandidancy) list;\n        uint256 totalLength;\n        bool revoteOrNot;                           // by default = false. However, in the case where two or more candidates received the same votes, then a revote is needed. \n        uint256 potentialRevote;                    // by default = 0. It shows the number of accounts (length) that are needed for the next round revote. To do a revote, this number > 1\n        uint256 participantNum;\n        mapping(uint256=>uint256) markedPositionForRevote;\n    }\n\n\n    /**\n     *@title To refresh and calculate the result.\n     *@motice This function should be called, everytime a member votes.\n     */\n    function refreshResult(VotesPerProposal storage _currentVotes, address _voter, voteTicket _newVote) public {\n        if (_currentVotes.participantList[_voter] == voteTicket.NotYetParticipated) {\n            // new vote\n            _currentVotes.participantNum++;\n        } else {\n            // change previous vote\n            if (_currentVotes.participantList[_voter] == voteTicket.Yes) {\n                _currentVotes.yesNum--;\n            } else if (_currentVotes.participantList[_voter] == voteTicket.Abstain) {\n                _currentVotes.abstainNum--;\n            }\n        }\n        if (_newVote == voteTicket.Yes) {\n            _currentVotes.yesNum++;\n        } else if (_newVote == voteTicket.Abstain) {\n            _currentVotes.abstainNum++;\n        }\n        _currentVotes.participantList[_voter] = _newVote;\n    }\n\n    /**\n     *@title Tell whether the result of a voting wins majority or not\n     *@notice For even number, the positive votes should exceed half of the received votes.\n     */\n    function isMajority(uint256 _yesVoteNum, uint256 _totalNum) public pure returns (bool) {\n        // e.g. If the total number is odd number, such as 3, then the vote should have yes for more than 1 (at least 2), to win as majority.\n        // e.g. If the total number is even number, such as 4, then the vote should have yes for more than 2 (at least 2), to win as majority.\n        if (_yesVoteNum > _totalNum.div(2)) {\n            return true;\n        } else {\n            return false;\n        }\n    }\n\n    /**\n     *@title Calculate whether a quorum of voting has reached or not.\n     *@dev   simple comparison...\n     */\n    function calculateQuorum(uint256 _totalNumber, uint256 _quorumNumerator, uint256 _quorumDemoninator) public pure returns (uint256) {\n        require(_quorumNumerator <= _quorumDemoninator);\n        uint256 _quorum = _totalNumber.mul(_quorumNumerator).div(_quorumDemoninator);\n        return _quorum;\n    }\n\n    /**\n     *@title Function to find who are the candidates who hold the largest votes, in the election for new delegate\n     *@dev   This function only tells the position of the candidate(s) with the hightest votes into the front. The mapping is not sorted.\n     *@notice If a revote is needed, then the potential candidates are the accountes to which the markedPositionForRevote[0 to potentialRevote-1] points\n     */\n    function findMostVotes(CandidancyForDelegate storage _allCandidates) public {\n        uint256 temp = 0;\n        uint256 copies = 0;\n        for (uint256 i = 0; i < _allCandidates.totalLength; i++) {\n            if (temp < _allCandidates.list[i].supportingVoteNum) {\n                temp = _allCandidates.list[i].supportingVoteNum;\n                copies = 1;\n                _allCandidates.markedPositionForRevote[0] = i;\n            } else if (temp == _allCandidates.list[i].supportingVoteNum) {\n                _allCandidates.markedPositionForRevote[copies] = i;\n                copies++;\n            }\n\n            if (copies > 1) {\n                _allCandidates.revoteOrNot = true;\n                _allCandidates.potentialRevote = copies;\n            } else {\n                // When there is only one account won\n                _allCandidates.revoteOrNot = false;\n                _allCandidates.potentialRevote = 1;\n            }\n        }\n    }\n\n    /**\n     *@title Function tells whether a revote is needed or not\n     *@dev well... A public view function\n     */\n    function needRevote(CandidancyForDelegate storage _allCandidates) public view returns (bool) {\n        if (_allCandidates.potentialRevote > 1 && _allCandidates.revoteOrNot == true) {\n            return true;\n        } else {\n            return false;\n        }\n    }\n\n}",
  "sourcePath": "C:\\Users\\vasil\\OneDrive\\Documents\\02_e-swissolar\\02_prj\\Truffle-React-ReFiDAO-Sandbox\\backend\\contracts\\TallyClerkLib.sol",
  "compiler": {
    "name": "solc",
    "version": "0.4.26+commit.4563c3fc.Emscripten.clang"
  },
  "schemaVersion": "3.4.4",
  "updatedAt": "2022-08-10T19:12:30.415Z",
  "networkType": "ethereum",
  "devdoc": {
    "methods": {}
  },
  "userdoc": {
    "methods": {
      "calculateQuorum(uint256,uint256,uint256)": {
        "notice": "title Calculate whether a quorum of voting has reached or not. dev   simple comparison..."
      },
      "findMostVotes(TallyClerkLib.CandidancyForDelegate storage)": {
        "notice": "title Function to find who are the candidates who hold the largest votes, in the election for new delegate dev   This function only tells the position of the candidate(s) with the hightest votes into the front. The mapping is not sorted. notice If a revote is needed, then the potential candidates are the accountes to which the markedPositionForRevote[0 to potentialRevote-1] points"
      },
      "isMajority(uint256,uint256)": {
        "notice": "title Tell whether the result of a voting wins majority or not notice For even number, the positive votes should exceed half of the received votes."
      },
      "needRevote(TallyClerkLib.CandidancyForDelegate storage)": {
        "notice": "title Function tells whether a revote is needed or not dev well... A public view function"
      },
      "refreshResult(TallyClerkLib.VotesPerProposal storage,address,TallyClerkLib.voteTicket)": {
        "notice": "title To refresh and calculate the result. motice This function should be called, everytime a member votes."
      }
    }
  }
}